{
	"data": {
		"bytecode": {
			"linkReferences": {},
			"object": "60806040523480156200001157600080fd5b5060405162002635380380620026358339818101604052810190620000379190620000c4565b80600660036101000a81548160ff021916908360ff16021790555081600660006101000a81548160ff021916908360ff1602179055506000600660026101000a81548160ff021916908360ff1602179055506000600660016101000a81548160ff021916908360ff160217905550505062000137565b600081519050620000be816200011d565b92915050565b60008060408385031215620000de57620000dd62000118565b5b6000620000ee85828601620000ad565b92505060206200010185828601620000ad565b9150509250929050565b600060ff82169050919050565b600080fd5b62000128816200010b565b81146200013457600080fd5b50565b6124ee80620001476000396000f3fe608060405234801561001057600080fd5b50600436106100885760003560e01c80636b5d7f031161005b5780636b5d7f031461012e5780637464a92d1461014c578063ebacfed41461016a578063f84dabb71461018657610088565b80630671f57d1461008d5780631194d603146100ab5780631ef3409e146100db57806362213a82146100f9575b600080fd5b6100956101b6565b6040516100a29190611eae565b60405180910390f35b6100c560048036038101906100c091906116a7565b6101c9565b6040516100d29190611cff565b60405180910390f35b6100e3610225565b6040516100f09190611eae565b60405180910390f35b610113600480360381019061010e91906116d4565b610238565b60405161012596959493929190611c9e565b60405180910390f35b6101366102ae565b6040516101439190611eae565b60405180910390f35b6101546102c1565b6040516101619190611eae565b60405180910390f35b610184600480360381019061017f9190611701565b6102d4565b005b6101a0600480360381019061019b91906116a7565b610952565b6040516101ad9190611cff565b60405180910390f35b600660029054906101000a900460ff1681565b6000801515600360008473ffffffffffffffffffffffffffffffffffffffff1673ffffffffffffffffffffffffffffffffffffffff16815260200190815260200160002060009054906101000a900460ff161515149050919050565b600660009054906101000a900460ff1681565b60046020528060005260406000206000915090508060000160009054906101000a900473ffffffffffffffffffffffffffffffffffffffff16908060010154908060020154908060030154908060040160009054906101000a900460ff16908060040160019054906101000a900460ff16905086565b600660039054906101000a900460ff1681565b600660019054906101000a900460ff1681565b6102dd336101c9565b61031c576040517f08c379a000000000000000000000000000000000000000000000000000000000815260040161031390611dba565b60405180910390fd5b600660009054906101000a900460ff1660ff16600660019054906101000a900460ff1660ff1610610382576040517f08c379a000000000000000000000000000000000000000000000000000000000815260040161037990611d5a565b60405180910390fd5b61038b33610972565b6001600660019054906101000a900460ff166103a79190611f7a565b600660016101000a81548160ff021916908360ff1602179055506000338585856040516020016103da9493929190611c50565b604051602081830303815290604052805190602001209050336004600083815260200190815260200160002060000160006101000a81548173ffffffffffffffffffffffffffffffffffffffff021916908373ffffffffffffffffffffffffffffffffffffffff160217905550846004600083815260200190815260200160002060010181905550836004600083815260200190815260200160002060020181905550826004600083815260200190815260200160002060030181905550816004600083815260200190815260200160002060040160006101000a81548160ff021916908360ff16021790555060016004600083815260200190815260200160002060040160016101000a81548160ff021916908315150217905550610511600460008381526020019081526020016000206109d8565b61051c816005610a7c565b6000806004600084815260200190815260200160002060040160009054906101000a900460ff1660ff1660ff1681526020019081526020016000206001016004600083815260200190815260200160002090806001815401808255809150506001900390600052602060002090600502016000909190919091506000820160009054906101000a900473ffffffffffffffffffffffffffffffffffffffff168160000160006101000a81548173ffffffffffffffffffffffffffffffffffffffff021916908373ffffffffffffffffffffffffffffffffffffffff1602179055506001820154816001015560028201548160020155600382015481600301556004820160009054906101000a900460ff168160040160006101000a81548160ff021916908360ff1602179055506004820160019054906101000a900460ff168160040160016101000a81548160ff0219169083151502179055505050816000806004600085815260200190815260200160002060040160009054906101000a900460ff1660ff1660ff16815260200190815260200160002060000160006101000a81548160ff021916908360ff1602179055506106da826001610b03565b6001600360003373ffffffffffffffffffffffffffffffffffffffff1673ffffffffffffffffffffffffffffffffffffffff16815260200190815260200160002060006101000a81548160ff0219169083151502179055507f8d6661e0d5915a0819a638b972e4819397f8b7b61f7474d495387868db7ae69b60405161075f90611d9a565b60405180910390a1600660009054906101000a900460ff1660ff16600660019054906101000a900460ff1660ff16141561094b577f8d6661e0d5915a0819a638b972e4819397f8b7b61f7474d495387868db7ae69b6040516107c090611d3a565b60405180910390a16107d0610bec565b6001600660029054906101000a900460ff166107ec9190611f7a565b600660026101000a81548160ff021916908360ff160217905550600660039054906101000a900460ff1660ff16600660029054906101000a900460ff1660ff16141561094257600061083c611073565b905060016000808360ff1660ff16815260200190815260200160002060010180549050146108b7577f86f0b3193e6e024d746f8179b0e69f8e2f9429ff08e174fbc18370bdf9ba86006000808360ff1660ff1681526020019081526020016000206040516108aa9190611e79565b60405180910390a1610924565b6108bf611587565b6000816040019063ffffffff16908163ffffffff16815250506000816000019060ff16908160ff16815250507f47369145e9251a49f62452ccf793501933d2183b10ae1492318166f7095112128160405161091a9190611e0f565b60405180910390a1505b6000600660026101000a81548160ff021916908360ff160217905550505b61094a6111a3565b5b5050505050565b60036020528060005260406000206000915054906101000a900460ff1681565b6002819080600181540180825580915050600190039060005260206000200160009091909190916101000a81548173ffffffffffffffffffffffffffffffffffffffff021916908373ffffffffffffffffffffffffffffffffffffffff16021790555050565b62989680816002015410806109f35750629896808160010154105b8015610a03575060018160030154145b15610a2a5760008160040160016101000a81548160ff021916908315150217905550610a79565b6298968081600201541180610a455750629896808160010154115b8015610a55575060008160030154145b15610a785760008160040160016101000a81548160ff0219169083151502179055505b5b50565b8060008060001b815260200190815260200160002054821480610ab457506000801b8160008481526020019081526020016000205414155b610aff578060008060001b81526020019081526020016000205481600084815260200190815260200160002081905550818160008060001b8152602001908152602001600020819055505b5050565b8060008060ff16815260200190815260200160002060009054906101000a900460ff1660ff168260ff161480610b62575060008160008460ff1660ff16815260200190815260200160002060009054906101000a900460ff1660ff1614155b610be8578060008060ff16815260200190815260200160002060009054906101000a900460ff168160008460ff1660ff16815260200190815260200160002060006101000a81548160ff021916908360ff160217905550818160008060ff16815260200190815260200160002060006101000a81548160ff021916908360ff1602179055505b5050565b6000600660009054906101000a900460ff1660ff1667ffffffffffffffff811115610c1a57610c196121f5565b5b604051908082528060200260200182016040528015610c5357816020015b610c40611587565b815260200190600190039081610c385790505b509050600080600160008060ff16815260200190815260200160002060009054906101000a900460ff1690505b60008160ff1614610e5a576000808260ff1660ff1681526020019081526020016000206040518060600160405290816000820160009054906101000a900460ff1660ff1660ff16815260200160018201805480602002602001604051908101604052809291908181526020016000905b82821015610dce57838290600052602060002090600502016040518060c00160405290816000820160009054906101000a900473ffffffffffffffffffffffffffffffffffffffff1673ffffffffffffffffffffffffffffffffffffffff1673ffffffffffffffffffffffffffffffffffffffff1681526020016001820154815260200160028201548152602001600382015481526020016004820160009054906101000a900460ff1660ff1660ff1681526020016004820160019054906101000a900460ff16151515158152505081526020019060010190610cf0565b5050505081526020016002820160009054906101000a900463ffffffff1663ffffffff1663ffffffff1681525050838360ff1681518110610e1257610e116121c6565b5b6020026020010181905250600160008260ff1660ff16815260200190815260200160002060009054906101000a900460ff169050600182610e539190611f7a565b9150610c80565b7f8d6661e0d5915a0819a638b972e4819397f8b7b61f7474d495387868db7ae69b604051610e8790611d1a565b60405180910390a16000610e9a846114a3565b905060016000808360ff1660ff16815260200190815260200160002060010180549050146110005760016000808360ff1660ff16815260200190815260200160002060020160009054906101000a900463ffffffff1663ffffffff1610610f715760016000808360ff1660ff16815260200190815260200160002060020160009054906101000a900463ffffffff16610f339190611f40565b6000808360ff1660ff16815260200190815260200160002060020160006101000a81548163ffffffff021916908363ffffffff160217905550610fad565b60016000808360ff1660ff16815260200190815260200160002060020160006101000a81548163ffffffff021916908363ffffffff1602179055505b7f47369145e9251a49f62452ccf793501933d2183b10ae1492318166f7095112126000808360ff1660ff168152602001908152602001600020604051610ff39190611e44565b60405180910390a161106d565b611008611587565b6000816040019063ffffffff16908163ffffffff16815250506000816000019060ff16908160ff16815250507f47369145e9251a49f62452ccf793501933d2183b10ae1492318166f709511212816040516110639190611dda565b60405180910390a1505b50505050565b600080600160008060ff16815260200190815260200160002060009054906101000a900460ff169050600160008060ff16815260200190815260200160002060009054906101000a900460ff1691505b60008160ff161461116a576000808360ff1660ff16815260200190815260200160002060020160009054906101000a900463ffffffff1663ffffffff166000808360ff1660ff16815260200190815260200160002060020160009054906101000a900463ffffffff1663ffffffff16111561113c578091505b600160008260ff1660ff16815260200190815260200160002060009054906101000a900460ff1690506110c3565b7f8d6661e0d5915a0819a638b972e4819397f8b7b61f7474d495387868db7ae69b60405161119790611d7a565b60405180910390a15090565b6000600660016101000a81548160ff021916908360ff16021790555060005b60028054905081101561127857600060036000600284815481106111e9576111e86121c6565b5b9060005260206000200160009054906101000a900473ffffffffffffffffffffffffffffffffffffffff1673ffffffffffffffffffffffffffffffffffffffff1673ffffffffffffffffffffffffffffffffffffffff16815260200190815260200160002060006101000a81548160ff0219169083151502179055508080611270906120f6565b9150506111c2565b506000600560008060001b81526020019081526020016000205490505b6000801b81146113375760046000828152602001908152602001600020600080820160006101000a81549073ffffffffffffffffffffffffffffffffffffffff02191690556001820160009055600282016000905560038201600090556004820160006101000a81549060ff02191690556004820160016101000a81549060ff0219169055505060056000828152602001908152602001600020549050611295565b600560008060001b81526020019081526020016000205490505b6000801b811461138d57600560008281526020019081526020016000206000905560056000828152602001908152602001600020549050611351565b6000600160008060ff16815260200190815260200160002060009054906101000a900460ff1690505b60008160ff1614611416576000808260ff1660ff16815260200190815260200160002060010160006113e891906115b1565b600160008260ff1660ff16815260200190815260200160002060009054906101000a900460ff1690506113b6565b600160008060ff16815260200190815260200160002060009054906101000a900460ff1690505b60008160ff161461149f57600160008260ff1660ff16815260200190815260200160002060006101000a81549060ff0219169055600160008260ff1660ff16815260200190815260200160002060009054906101000a900460ff16905061143d565b5050565b6000805b82518160ff16101561155d57828260ff16815181106114c9576114c86121c6565b5b60200260200101516020015151838260ff16815181106114ec576114eb6121c6565b5b60200260200101516020015151111561154a57828160ff1681518110611515576115146121c6565b5b602002602001015160200151600081518110611534576115336121c6565b5b602002602001015160a0015115611549578091505b5b80806115559061213f565b9150506114a7565b50818160ff1681518110611574576115736121c6565b5b6020026020010151600001519050919050565b6040518060600160405280600060ff16815260200160608152602001600063ffffffff1681525090565b50805460008255600502906000526020600020908101906115d291906115d5565b50565b5b8082111561164f57600080820160006101000a81549073ffffffffffffffffffffffffffffffffffffffff02191690556001820160009055600282016000905560038201600090556004820160006101000a81549060ff02191690556004820160016101000a81549060ff0219169055506005016115d6565b5090565b6000813590506116628161245c565b92915050565b60008135905061167781612473565b92915050565b60008135905061168c8161248a565b92915050565b6000813590506116a1816124a1565b92915050565b6000602082840312156116bd576116bc612224565b5b60006116cb84828501611653565b91505092915050565b6000602082840312156116ea576116e9612224565b5b60006116f884828501611668565b91505092915050565b6000806000806080858703121561171b5761171a612224565b5b60006117298782880161167d565b945050602061173a8782880161167d565b935050604061174b8782880161167d565b925050606061175c87828801611692565b91505092959194509250565b60006117748383611abb565b60c08301905092915050565b600061178c8383611b36565b60c08301905092915050565b6117a181612005565b82525050565b6117b081612005565b82525050565b6117c76117c282612005565b612169565b82525050565b60006117d882611eee565b6117e28185611f1e565b93506117ed83611ec9565b8060005b8381101561181e5781516118058882611768565b975061181083611f04565b9250506001810190506117f1565b5085935050505092915050565b600061183682611ef9565b6118408185611f1e565b935061184b83611ed9565b8060005b8381101561187b57816118628882611780565b975061186d83611f11565b92505060018101905061184f565b5085935050505092915050565b61189181612017565b82525050565b6118a081612017565b82525050565b60006118b3601d83611f2f565b91506118be82612250565b602082019050919050565b60006118d6601683611f2f565b91506118e182612279565b602082019050919050565b60006118f9601583611f2f565b9150611904826122a2565b602082019050919050565b600061191c601883611f2f565b9150611927826122cb565b602082019050919050565b600061193f603983611f2f565b915061194a826122f4565b604082019050919050565b6000611962601c83611f2f565b915061196d82612343565b602082019050919050565b6000611985600e83611f2f565b91506119908261236c565b602082019050919050565b60006119a8603c83611f2f565b91506119b382612395565b604082019050919050565b60006119cb602383611f2f565b91506119d6826123e4565b604082019050919050565b60006119ee600383611f2f565b91506119f982612433565b602082019050919050565b6000606083016000830151611a1c6000860182611c32565b5060208301518482036020860152611a3482826117cd565b9150506040830151611a496040860182611c23565b508091505092915050565b6000606083016000808401549050611a6b816120c2565b611a786000870182611c32565b50600184018583036020870152611a8f838261182b565b92505060028401549050611aa2816120a8565b611aaf6040870182611c23565b50819250505092915050565b60c082016000820151611ad16000850182611798565b506020820151611ae46020850182611bee565b506040820151611af76040850182611bee565b506060820151611b0a6060850182611bee565b506080820151611b1d6080850182611c32565b5060a0820151611b3060a0850182611888565b50505050565b60c082016000808301549050611b4b81612074565b611b586000860182611798565b5060018301549050611b698161208e565b611b766020860182611bee565b5060028301549050611b878161208e565b611b946040860182611bee565b5060038301549050611ba58161208e565b611bb26060860182611bee565b5060048301549050611bc3816120c2565b611bd06080860182611c32565b50611bda816120dc565b611be760a0860182611888565b5050505050565b611bf78161204d565b82525050565b611c068161204d565b82525050565b611c1d611c188261204d565b61218d565b82525050565b611c2c81612057565b82525050565b611c3b81612067565b82525050565b611c4a81612067565b82525050565b6000611c5c82876117b6565b601482019150611c6c8286611c0c565b602082019150611c7c8285611c0c565b602082019150611c8c8284611c0c565b60208201915081905095945050505050565b600060c082019050611cb360008301896117a7565b611cc06020830188611bfd565b611ccd6040830187611bfd565b611cda6060830186611bfd565b611ce76080830185611c41565b611cf460a0830184611897565b979650505050505050565b6000602082019050611d146000830184611897565b92915050565b60006020820190508181036000830152611d33816118c9565b9050919050565b60006020820190508181036000830152611d53816118ec565b9050919050565b60006020820190508181036000830152611d7381611932565b9050919050565b60006020820190508181036000830152611d9381611955565b9050919050565b60006020820190508181036000830152611db381611978565b9050919050565b60006020820190508181036000830152611dd38161199b565b9050919050565b60006040820190508181036000830152611df48184611a04565b90508181036020830152611e078161190f565b905092915050565b60006040820190508181036000830152611e298184611a04565b90508181036020830152611e3c816119e1565b905092915050565b60006040820190508181036000830152611e5e8184611a54565b90508181036020830152611e71816118a6565b905092915050565b60006040820190508181036000830152611e938184611a54565b90508181036020830152611ea6816119be565b905092915050565b6000602082019050611ec36000830184611c41565b92915050565b6000819050602082019050919050565b60008190508160005260206000209050919050565b600081519050919050565b600081549050919050565b6000602082019050919050565b6000600582019050919050565b600082825260208201905092915050565b600082825260208201905092915050565b6000611f4b82612057565b9150611f5683612057565b92508263ffffffff03821115611f6f57611f6e612197565b5b828201905092915050565b6000611f8582612067565b9150611f9083612067565b92508260ff03821115611fa657611fa5612197565b5b828201905092915050565b600073ffffffffffffffffffffffffffffffffffffffff82169050919050565b600060ff82169050919050565b6000819050919050565b600063ffffffff82169050919050565b600060ff82169050919050565b60006120108261202d565b9050919050565b60008115159050919050565b6000819050919050565b600073ffffffffffffffffffffffffffffffffffffffff82169050919050565b6000819050919050565b600063ffffffff82169050919050565b600060ff82169050919050565b600061208761208283612236565b611fb1565b9050919050565b60006120a161209c83612236565b611fde565b9050919050565b60006120bb6120b683612236565b611fe8565b9050919050565b60006120d56120d083612236565b611ff8565b9050919050565b60006120ef6120ea83612243565b611fd1565b9050919050565b60006121018261204d565b91507fffffffffffffffffffffffffffffffffffffffffffffffffffffffffffffffff82141561213457612133612197565b5b600182019050919050565b600061214a82612067565b915060ff82141561215e5761215d612197565b5b600182019050919050565b60006121748261217b565b9050919050565b600061218682612229565b9050919050565b6000819050919050565b7f4e487b7100000000000000000000000000000000000000000000000000000000600052601160045260246000fd5b7f4e487b7100000000000000000000000000000000000000000000000000000000600052603260045260246000fd5b7f4e487b7100000000000000000000000000000000000000000000000000000000600052604160045260246000fd5b600080fd5b60008160601b9050919050565b60008160001c9050919050565b60008160081c9050919050565b7f4465636973696f6e206d616b696e672077617320612073756363657373000000600082015250565b7f617267756d656e746174696f6e2066696e697368656400000000000000000000600082015250565b7f63616c6c696e6720617267756d656e746174696f6e0000000000000000000000600082015250565b7f4e6f2077696e6e657220666f72207468697320726f756e640000000000000000600082015250565b7f546865206e756d626572206f6620617267756d656e74732063616e6e6f74206560008201527f786365656420746865206669786564207468726573686f6c6400000000000000602082015250565b7f66696e616c20617267756d656e746174696f6e2066696e697368656400000000600082015250565b7f417267756d656e74206164646564000000000000000000000000000000000000600082015250565b7f4f6e6c792061206e6f6465207468617420686173206e6f7420617267756d656e60008201527f746564207965742c2063616e2061646420616e20617267756d656e7400000000602082015250565b7f66696e616c204465636973696f6e206d616b696e67207761732061207375636360008201527f6573730000000000000000000000000000000000000000000000000000000000602082015250565b7f4e2f410000000000000000000000000000000000000000000000000000000000600082015250565b61246581612005565b811461247057600080fd5b50565b61247c81612023565b811461248757600080fd5b50565b6124938161204d565b811461249e57600080fd5b50565b6124aa81612067565b81146124b557600080fd5b5056fea26469706673582212209de53f3b88ad2cb2c4f49c79283184d163cc3d48491c1bf3704c4776454b18fd64736f6c63430008070033",
			"opcodes": "PUSH1 0x80 PUSH1 0x40 MSTORE CALLVALUE DUP1 ISZERO PUSH3 0x11 JUMPI PUSH1 0x0 DUP1 REVERT JUMPDEST POP PUSH1 0x40 MLOAD PUSH3 0x2635 CODESIZE SUB DUP1 PUSH3 0x2635 DUP4 CODECOPY DUP2 DUP2 ADD PUSH1 0x40 MSTORE DUP2 ADD SWAP1 PUSH3 0x37 SWAP2 SWAP1 PUSH3 0xC4 JUMP JUMPDEST DUP1 PUSH1 0x6 PUSH1 0x3 PUSH2 0x100 EXP DUP2 SLOAD DUP2 PUSH1 0xFF MUL NOT AND SWAP1 DUP4 PUSH1 0xFF AND MUL OR SWAP1 SSTORE POP DUP2 PUSH1 0x6 PUSH1 0x0 PUSH2 0x100 EXP DUP2 SLOAD DUP2 PUSH1 0xFF MUL NOT AND SWAP1 DUP4 PUSH1 0xFF AND MUL OR SWAP1 SSTORE POP PUSH1 0x0 PUSH1 0x6 PUSH1 0x2 PUSH2 0x100 EXP DUP2 SLOAD DUP2 PUSH1 0xFF MUL NOT AND SWAP1 DUP4 PUSH1 0xFF AND MUL OR SWAP1 SSTORE POP PUSH1 0x0 PUSH1 0x6 PUSH1 0x1 PUSH2 0x100 EXP DUP2 SLOAD DUP2 PUSH1 0xFF MUL NOT AND SWAP1 DUP4 PUSH1 0xFF AND MUL OR SWAP1 SSTORE POP POP POP PUSH3 0x137 JUMP JUMPDEST PUSH1 0x0 DUP2 MLOAD SWAP1 POP PUSH3 0xBE DUP2 PUSH3 0x11D JUMP JUMPDEST SWAP3 SWAP2 POP POP JUMP JUMPDEST PUSH1 0x0 DUP1 PUSH1 0x40 DUP4 DUP6 SUB SLT ISZERO PUSH3 0xDE JUMPI PUSH3 0xDD PUSH3 0x118 JUMP JUMPDEST JUMPDEST PUSH1 0x0 PUSH3 0xEE DUP6 DUP3 DUP7 ADD PUSH3 0xAD JUMP JUMPDEST SWAP3 POP POP PUSH1 0x20 PUSH3 0x101 DUP6 DUP3 DUP7 ADD PUSH3 0xAD JUMP JUMPDEST SWAP2 POP POP SWAP3 POP SWAP3 SWAP1 POP JUMP JUMPDEST PUSH1 0x0 PUSH1 0xFF DUP3 AND SWAP1 POP SWAP2 SWAP1 POP JUMP JUMPDEST PUSH1 0x0 DUP1 REVERT JUMPDEST PUSH3 0x128 DUP2 PUSH3 0x10B JUMP JUMPDEST DUP2 EQ PUSH3 0x134 JUMPI PUSH1 0x0 DUP1 REVERT JUMPDEST POP JUMP JUMPDEST PUSH2 0x24EE DUP1 PUSH3 0x147 PUSH1 0x0 CODECOPY PUSH1 0x0 RETURN INVALID PUSH1 0x80 PUSH1 0x40 MSTORE CALLVALUE DUP1 ISZERO PUSH2 0x10 JUMPI PUSH1 0x0 DUP1 REVERT JUMPDEST POP PUSH1 0x4 CALLDATASIZE LT PUSH2 0x88 JUMPI PUSH1 0x0 CALLDATALOAD PUSH1 0xE0 SHR DUP1 PUSH4 0x6B5D7F03 GT PUSH2 0x5B JUMPI DUP1 PUSH4 0x6B5D7F03 EQ PUSH2 0x12E JUMPI DUP1 PUSH4 0x7464A92D EQ PUSH2 0x14C JUMPI DUP1 PUSH4 0xEBACFED4 EQ PUSH2 0x16A JUMPI DUP1 PUSH4 0xF84DABB7 EQ PUSH2 0x186 JUMPI PUSH2 0x88 JUMP JUMPDEST DUP1 PUSH4 0x671F57D EQ PUSH2 0x8D JUMPI DUP1 PUSH4 0x1194D603 EQ PUSH2 0xAB JUMPI DUP1 PUSH4 0x1EF3409E EQ PUSH2 0xDB JUMPI DUP1 PUSH4 0x62213A82 EQ PUSH2 0xF9 JUMPI JUMPDEST PUSH1 0x0 DUP1 REVERT JUMPDEST PUSH2 0x95 PUSH2 0x1B6 JUMP JUMPDEST PUSH1 0x40 MLOAD PUSH2 0xA2 SWAP2 SWAP1 PUSH2 0x1EAE JUMP JUMPDEST PUSH1 0x40 MLOAD DUP1 SWAP2 SUB SWAP1 RETURN JUMPDEST PUSH2 0xC5 PUSH1 0x4 DUP1 CALLDATASIZE SUB DUP2 ADD SWAP1 PUSH2 0xC0 SWAP2 SWAP1 PUSH2 0x16A7 JUMP JUMPDEST PUSH2 0x1C9 JUMP JUMPDEST PUSH1 0x40 MLOAD PUSH2 0xD2 SWAP2 SWAP1 PUSH2 0x1CFF JUMP JUMPDEST PUSH1 0x40 MLOAD DUP1 SWAP2 SUB SWAP1 RETURN JUMPDEST PUSH2 0xE3 PUSH2 0x225 JUMP JUMPDEST PUSH1 0x40 MLOAD PUSH2 0xF0 SWAP2 SWAP1 PUSH2 0x1EAE JUMP JUMPDEST PUSH1 0x40 MLOAD DUP1 SWAP2 SUB SWAP1 RETURN JUMPDEST PUSH2 0x113 PUSH1 0x4 DUP1 CALLDATASIZE SUB DUP2 ADD SWAP1 PUSH2 0x10E SWAP2 SWAP1 PUSH2 0x16D4 JUMP JUMPDEST PUSH2 0x238 JUMP JUMPDEST PUSH1 0x40 MLOAD PUSH2 0x125 SWAP7 SWAP6 SWAP5 SWAP4 SWAP3 SWAP2 SWAP1 PUSH2 0x1C9E JUMP JUMPDEST PUSH1 0x40 MLOAD DUP1 SWAP2 SUB SWAP1 RETURN JUMPDEST PUSH2 0x136 PUSH2 0x2AE JUMP JUMPDEST PUSH1 0x40 MLOAD PUSH2 0x143 SWAP2 SWAP1 PUSH2 0x1EAE JUMP JUMPDEST PUSH1 0x40 MLOAD DUP1 SWAP2 SUB SWAP1 RETURN JUMPDEST PUSH2 0x154 PUSH2 0x2C1 JUMP JUMPDEST PUSH1 0x40 MLOAD PUSH2 0x161 SWAP2 SWAP1 PUSH2 0x1EAE JUMP JUMPDEST PUSH1 0x40 MLOAD DUP1 SWAP2 SUB SWAP1 RETURN JUMPDEST PUSH2 0x184 PUSH1 0x4 DUP1 CALLDATASIZE SUB DUP2 ADD SWAP1 PUSH2 0x17F SWAP2 SWAP1 PUSH2 0x1701 JUMP JUMPDEST PUSH2 0x2D4 JUMP JUMPDEST STOP JUMPDEST PUSH2 0x1A0 PUSH1 0x4 DUP1 CALLDATASIZE SUB DUP2 ADD SWAP1 PUSH2 0x19B SWAP2 SWAP1 PUSH2 0x16A7 JUMP JUMPDEST PUSH2 0x952 JUMP JUMPDEST PUSH1 0x40 MLOAD PUSH2 0x1AD SWAP2 SWAP1 PUSH2 0x1CFF JUMP JUMPDEST PUSH1 0x40 MLOAD DUP1 SWAP2 SUB SWAP1 RETURN JUMPDEST PUSH1 0x6 PUSH1 0x2 SWAP1 SLOAD SWAP1 PUSH2 0x100 EXP SWAP1 DIV PUSH1 0xFF AND DUP2 JUMP JUMPDEST PUSH1 0x0 DUP1 ISZERO ISZERO PUSH1 0x3 PUSH1 0x0 DUP5 PUSH20 0xFFFFFFFFFFFFFFFFFFFFFFFFFFFFFFFFFFFFFFFF AND PUSH20 0xFFFFFFFFFFFFFFFFFFFFFFFFFFFFFFFFFFFFFFFF AND DUP2 MSTORE PUSH1 0x20 ADD SWAP1 DUP2 MSTORE PUSH1 0x20 ADD PUSH1 0x0 KECCAK256 PUSH1 0x0 SWAP1 SLOAD SWAP1 PUSH2 0x100 EXP SWAP1 DIV PUSH1 0xFF AND ISZERO ISZERO EQ SWAP1 POP SWAP2 SWAP1 POP JUMP JUMPDEST PUSH1 0x6 PUSH1 0x0 SWAP1 SLOAD SWAP1 PUSH2 0x100 EXP SWAP1 DIV PUSH1 0xFF AND DUP2 JUMP JUMPDEST PUSH1 0x4 PUSH1 0x20 MSTORE DUP1 PUSH1 0x0 MSTORE PUSH1 0x40 PUSH1 0x0 KECCAK256 PUSH1 0x0 SWAP2 POP SWAP1 POP DUP1 PUSH1 0x0 ADD PUSH1 0x0 SWAP1 SLOAD SWAP1 PUSH2 0x100 EXP SWAP1 DIV PUSH20 0xFFFFFFFFFFFFFFFFFFFFFFFFFFFFFFFFFFFFFFFF AND SWAP1 DUP1 PUSH1 0x1 ADD SLOAD SWAP1 DUP1 PUSH1 0x2 ADD SLOAD SWAP1 DUP1 PUSH1 0x3 ADD SLOAD SWAP1 DUP1 PUSH1 0x4 ADD PUSH1 0x0 SWAP1 SLOAD SWAP1 PUSH2 0x100 EXP SWAP1 DIV PUSH1 0xFF AND SWAP1 DUP1 PUSH1 0x4 ADD PUSH1 0x1 SWAP1 SLOAD SWAP1 PUSH2 0x100 EXP SWAP1 DIV PUSH1 0xFF AND SWAP1 POP DUP7 JUMP JUMPDEST PUSH1 0x6 PUSH1 0x3 SWAP1 SLOAD SWAP1 PUSH2 0x100 EXP SWAP1 DIV PUSH1 0xFF AND DUP2 JUMP JUMPDEST PUSH1 0x6 PUSH1 0x1 SWAP1 SLOAD SWAP1 PUSH2 0x100 EXP SWAP1 DIV PUSH1 0xFF AND DUP2 JUMP JUMPDEST PUSH2 0x2DD CALLER PUSH2 0x1C9 JUMP JUMPDEST PUSH2 0x31C JUMPI PUSH1 0x40 MLOAD PUSH32 0x8C379A000000000000000000000000000000000000000000000000000000000 DUP2 MSTORE PUSH1 0x4 ADD PUSH2 0x313 SWAP1 PUSH2 0x1DBA JUMP JUMPDEST PUSH1 0x40 MLOAD DUP1 SWAP2 SUB SWAP1 REVERT JUMPDEST PUSH1 0x6 PUSH1 0x0 SWAP1 SLOAD SWAP1 PUSH2 0x100 EXP SWAP1 DIV PUSH1 0xFF AND PUSH1 0xFF AND PUSH1 0x6 PUSH1 0x1 SWAP1 SLOAD SWAP1 PUSH2 0x100 EXP SWAP1 DIV PUSH1 0xFF AND PUSH1 0xFF AND LT PUSH2 0x382 JUMPI PUSH1 0x40 MLOAD PUSH32 0x8C379A000000000000000000000000000000000000000000000000000000000 DUP2 MSTORE PUSH1 0x4 ADD PUSH2 0x379 SWAP1 PUSH2 0x1D5A JUMP JUMPDEST PUSH1 0x40 MLOAD DUP1 SWAP2 SUB SWAP1 REVERT JUMPDEST PUSH2 0x38B CALLER PUSH2 0x972 JUMP JUMPDEST PUSH1 0x1 PUSH1 0x6 PUSH1 0x1 SWAP1 SLOAD SWAP1 PUSH2 0x100 EXP SWAP1 DIV PUSH1 0xFF AND PUSH2 0x3A7 SWAP2 SWAP1 PUSH2 0x1F7A JUMP JUMPDEST PUSH1 0x6 PUSH1 0x1 PUSH2 0x100 EXP DUP2 SLOAD DUP2 PUSH1 0xFF MUL NOT AND SWAP1 DUP4 PUSH1 0xFF AND MUL OR SWAP1 SSTORE POP PUSH1 0x0 CALLER DUP6 DUP6 DUP6 PUSH1 0x40 MLOAD PUSH1 0x20 ADD PUSH2 0x3DA SWAP5 SWAP4 SWAP3 SWAP2 SWAP1 PUSH2 0x1C50 JUMP JUMPDEST PUSH1 0x40 MLOAD PUSH1 0x20 DUP2 DUP4 SUB SUB DUP2 MSTORE SWAP1 PUSH1 0x40 MSTORE DUP1 MLOAD SWAP1 PUSH1 0x20 ADD KECCAK256 SWAP1 POP CALLER PUSH1 0x4 PUSH1 0x0 DUP4 DUP2 MSTORE PUSH1 0x20 ADD SWAP1 DUP2 MSTORE PUSH1 0x20 ADD PUSH1 0x0 KECCAK256 PUSH1 0x0 ADD PUSH1 0x0 PUSH2 0x100 EXP DUP2 SLOAD DUP2 PUSH20 0xFFFFFFFFFFFFFFFFFFFFFFFFFFFFFFFFFFFFFFFF MUL NOT AND SWAP1 DUP4 PUSH20 0xFFFFFFFFFFFFFFFFFFFFFFFFFFFFFFFFFFFFFFFF AND MUL OR SWAP1 SSTORE POP DUP5 PUSH1 0x4 PUSH1 0x0 DUP4 DUP2 MSTORE PUSH1 0x20 ADD SWAP1 DUP2 MSTORE PUSH1 0x20 ADD PUSH1 0x0 KECCAK256 PUSH1 0x1 ADD DUP2 SWAP1 SSTORE POP DUP4 PUSH1 0x4 PUSH1 0x0 DUP4 DUP2 MSTORE PUSH1 0x20 ADD SWAP1 DUP2 MSTORE PUSH1 0x20 ADD PUSH1 0x0 KECCAK256 PUSH1 0x2 ADD DUP2 SWAP1 SSTORE POP DUP3 PUSH1 0x4 PUSH1 0x0 DUP4 DUP2 MSTORE PUSH1 0x20 ADD SWAP1 DUP2 MSTORE PUSH1 0x20 ADD PUSH1 0x0 KECCAK256 PUSH1 0x3 ADD DUP2 SWAP1 SSTORE POP DUP2 PUSH1 0x4 PUSH1 0x0 DUP4 DUP2 MSTORE PUSH1 0x20 ADD SWAP1 DUP2 MSTORE PUSH1 0x20 ADD PUSH1 0x0 KECCAK256 PUSH1 0x4 ADD PUSH1 0x0 PUSH2 0x100 EXP DUP2 SLOAD DUP2 PUSH1 0xFF MUL NOT AND SWAP1 DUP4 PUSH1 0xFF AND MUL OR SWAP1 SSTORE POP PUSH1 0x1 PUSH1 0x4 PUSH1 0x0 DUP4 DUP2 MSTORE PUSH1 0x20 ADD SWAP1 DUP2 MSTORE PUSH1 0x20 ADD PUSH1 0x0 KECCAK256 PUSH1 0x4 ADD PUSH1 0x1 PUSH2 0x100 EXP DUP2 SLOAD DUP2 PUSH1 0xFF MUL NOT AND SWAP1 DUP4 ISZERO ISZERO MUL OR SWAP1 SSTORE POP PUSH2 0x511 PUSH1 0x4 PUSH1 0x0 DUP4 DUP2 MSTORE PUSH1 0x20 ADD SWAP1 DUP2 MSTORE PUSH1 0x20 ADD PUSH1 0x0 KECCAK256 PUSH2 0x9D8 JUMP JUMPDEST PUSH2 0x51C DUP2 PUSH1 0x5 PUSH2 0xA7C JUMP JUMPDEST PUSH1 0x0 DUP1 PUSH1 0x4 PUSH1 0x0 DUP5 DUP2 MSTORE PUSH1 0x20 ADD SWAP1 DUP2 MSTORE PUSH1 0x20 ADD PUSH1 0x0 KECCAK256 PUSH1 0x4 ADD PUSH1 0x0 SWAP1 SLOAD SWAP1 PUSH2 0x100 EXP SWAP1 DIV PUSH1 0xFF AND PUSH1 0xFF AND PUSH1 0xFF AND DUP2 MSTORE PUSH1 0x20 ADD SWAP1 DUP2 MSTORE PUSH1 0x20 ADD PUSH1 0x0 KECCAK256 PUSH1 0x1 ADD PUSH1 0x4 PUSH1 0x0 DUP4 DUP2 MSTORE PUSH1 0x20 ADD SWAP1 DUP2 MSTORE PUSH1 0x20 ADD PUSH1 0x0 KECCAK256 SWAP1 DUP1 PUSH1 0x1 DUP2 SLOAD ADD DUP1 DUP3 SSTORE DUP1 SWAP2 POP POP PUSH1 0x1 SWAP1 SUB SWAP1 PUSH1 0x0 MSTORE PUSH1 0x20 PUSH1 0x0 KECCAK256 SWAP1 PUSH1 0x5 MUL ADD PUSH1 0x0 SWAP1 SWAP2 SWAP1 SWAP2 SWAP1 SWAP2 POP PUSH1 0x0 DUP3 ADD PUSH1 0x0 SWAP1 SLOAD SWAP1 PUSH2 0x100 EXP SWAP1 DIV PUSH20 0xFFFFFFFFFFFFFFFFFFFFFFFFFFFFFFFFFFFFFFFF AND DUP2 PUSH1 0x0 ADD PUSH1 0x0 PUSH2 0x100 EXP DUP2 SLOAD DUP2 PUSH20 0xFFFFFFFFFFFFFFFFFFFFFFFFFFFFFFFFFFFFFFFF MUL NOT AND SWAP1 DUP4 PUSH20 0xFFFFFFFFFFFFFFFFFFFFFFFFFFFFFFFFFFFFFFFF AND MUL OR SWAP1 SSTORE POP PUSH1 0x1 DUP3 ADD SLOAD DUP2 PUSH1 0x1 ADD SSTORE PUSH1 0x2 DUP3 ADD SLOAD DUP2 PUSH1 0x2 ADD SSTORE PUSH1 0x3 DUP3 ADD SLOAD DUP2 PUSH1 0x3 ADD SSTORE PUSH1 0x4 DUP3 ADD PUSH1 0x0 SWAP1 SLOAD SWAP1 PUSH2 0x100 EXP SWAP1 DIV PUSH1 0xFF AND DUP2 PUSH1 0x4 ADD PUSH1 0x0 PUSH2 0x100 EXP DUP2 SLOAD DUP2 PUSH1 0xFF MUL NOT AND SWAP1 DUP4 PUSH1 0xFF AND MUL OR SWAP1 SSTORE POP PUSH1 0x4 DUP3 ADD PUSH1 0x1 SWAP1 SLOAD SWAP1 PUSH2 0x100 EXP SWAP1 DIV PUSH1 0xFF AND DUP2 PUSH1 0x4 ADD PUSH1 0x1 PUSH2 0x100 EXP DUP2 SLOAD DUP2 PUSH1 0xFF MUL NOT AND SWAP1 DUP4 ISZERO ISZERO MUL OR SWAP1 SSTORE POP POP POP DUP2 PUSH1 0x0 DUP1 PUSH1 0x4 PUSH1 0x0 DUP6 DUP2 MSTORE PUSH1 0x20 ADD SWAP1 DUP2 MSTORE PUSH1 0x20 ADD PUSH1 0x0 KECCAK256 PUSH1 0x4 ADD PUSH1 0x0 SWAP1 SLOAD SWAP1 PUSH2 0x100 EXP SWAP1 DIV PUSH1 0xFF AND PUSH1 0xFF AND PUSH1 0xFF AND DUP2 MSTORE PUSH1 0x20 ADD SWAP1 DUP2 MSTORE PUSH1 0x20 ADD PUSH1 0x0 KECCAK256 PUSH1 0x0 ADD PUSH1 0x0 PUSH2 0x100 EXP DUP2 SLOAD DUP2 PUSH1 0xFF MUL NOT AND SWAP1 DUP4 PUSH1 0xFF AND MUL OR SWAP1 SSTORE POP PUSH2 0x6DA DUP3 PUSH1 0x1 PUSH2 0xB03 JUMP JUMPDEST PUSH1 0x1 PUSH1 0x3 PUSH1 0x0 CALLER PUSH20 0xFFFFFFFFFFFFFFFFFFFFFFFFFFFFFFFFFFFFFFFF AND PUSH20 0xFFFFFFFFFFFFFFFFFFFFFFFFFFFFFFFFFFFFFFFF AND DUP2 MSTORE PUSH1 0x20 ADD SWAP1 DUP2 MSTORE PUSH1 0x20 ADD PUSH1 0x0 KECCAK256 PUSH1 0x0 PUSH2 0x100 EXP DUP2 SLOAD DUP2 PUSH1 0xFF MUL NOT AND SWAP1 DUP4 ISZERO ISZERO MUL OR SWAP1 SSTORE POP PUSH32 0x8D6661E0D5915A0819A638B972E4819397F8B7B61F7474D495387868DB7AE69B PUSH1 0x40 MLOAD PUSH2 0x75F SWAP1 PUSH2 0x1D9A JUMP JUMPDEST PUSH1 0x40 MLOAD DUP1 SWAP2 SUB SWAP1 LOG1 PUSH1 0x6 PUSH1 0x0 SWAP1 SLOAD SWAP1 PUSH2 0x100 EXP SWAP1 DIV PUSH1 0xFF AND PUSH1 0xFF AND PUSH1 0x6 PUSH1 0x1 SWAP1 SLOAD SWAP1 PUSH2 0x100 EXP SWAP1 DIV PUSH1 0xFF AND PUSH1 0xFF AND EQ ISZERO PUSH2 0x94B JUMPI PUSH32 0x8D6661E0D5915A0819A638B972E4819397F8B7B61F7474D495387868DB7AE69B PUSH1 0x40 MLOAD PUSH2 0x7C0 SWAP1 PUSH2 0x1D3A JUMP JUMPDEST PUSH1 0x40 MLOAD DUP1 SWAP2 SUB SWAP1 LOG1 PUSH2 0x7D0 PUSH2 0xBEC JUMP JUMPDEST PUSH1 0x1 PUSH1 0x6 PUSH1 0x2 SWAP1 SLOAD SWAP1 PUSH2 0x100 EXP SWAP1 DIV PUSH1 0xFF AND PUSH2 0x7EC SWAP2 SWAP1 PUSH2 0x1F7A JUMP JUMPDEST PUSH1 0x6 PUSH1 0x2 PUSH2 0x100 EXP DUP2 SLOAD DUP2 PUSH1 0xFF MUL NOT AND SWAP1 DUP4 PUSH1 0xFF AND MUL OR SWAP1 SSTORE POP PUSH1 0x6 PUSH1 0x3 SWAP1 SLOAD SWAP1 PUSH2 0x100 EXP SWAP1 DIV PUSH1 0xFF AND PUSH1 0xFF AND PUSH1 0x6 PUSH1 0x2 SWAP1 SLOAD SWAP1 PUSH2 0x100 EXP SWAP1 DIV PUSH1 0xFF AND PUSH1 0xFF AND EQ ISZERO PUSH2 0x942 JUMPI PUSH1 0x0 PUSH2 0x83C PUSH2 0x1073 JUMP JUMPDEST SWAP1 POP PUSH1 0x1 PUSH1 0x0 DUP1 DUP4 PUSH1 0xFF AND PUSH1 0xFF AND DUP2 MSTORE PUSH1 0x20 ADD SWAP1 DUP2 MSTORE PUSH1 0x20 ADD PUSH1 0x0 KECCAK256 PUSH1 0x1 ADD DUP1 SLOAD SWAP1 POP EQ PUSH2 0x8B7 JUMPI PUSH32 0x86F0B3193E6E024D746F8179B0E69F8E2F9429FF08E174FBC18370BDF9BA8600 PUSH1 0x0 DUP1 DUP4 PUSH1 0xFF AND PUSH1 0xFF AND DUP2 MSTORE PUSH1 0x20 ADD SWAP1 DUP2 MSTORE PUSH1 0x20 ADD PUSH1 0x0 KECCAK256 PUSH1 0x40 MLOAD PUSH2 0x8AA SWAP2 SWAP1 PUSH2 0x1E79 JUMP JUMPDEST PUSH1 0x40 MLOAD DUP1 SWAP2 SUB SWAP1 LOG1 PUSH2 0x924 JUMP JUMPDEST PUSH2 0x8BF PUSH2 0x1587 JUMP JUMPDEST PUSH1 0x0 DUP2 PUSH1 0x40 ADD SWAP1 PUSH4 0xFFFFFFFF AND SWAP1 DUP2 PUSH4 0xFFFFFFFF AND DUP2 MSTORE POP POP PUSH1 0x0 DUP2 PUSH1 0x0 ADD SWAP1 PUSH1 0xFF AND SWAP1 DUP2 PUSH1 0xFF AND DUP2 MSTORE POP POP PUSH32 0x47369145E9251A49F62452CCF793501933D2183B10AE1492318166F709511212 DUP2 PUSH1 0x40 MLOAD PUSH2 0x91A SWAP2 SWAP1 PUSH2 0x1E0F JUMP JUMPDEST PUSH1 0x40 MLOAD DUP1 SWAP2 SUB SWAP1 LOG1 POP JUMPDEST PUSH1 0x0 PUSH1 0x6 PUSH1 0x2 PUSH2 0x100 EXP DUP2 SLOAD DUP2 PUSH1 0xFF MUL NOT AND SWAP1 DUP4 PUSH1 0xFF AND MUL OR SWAP1 SSTORE POP POP JUMPDEST PUSH2 0x94A PUSH2 0x11A3 JUMP JUMPDEST JUMPDEST POP POP POP POP POP JUMP JUMPDEST PUSH1 0x3 PUSH1 0x20 MSTORE DUP1 PUSH1 0x0 MSTORE PUSH1 0x40 PUSH1 0x0 KECCAK256 PUSH1 0x0 SWAP2 POP SLOAD SWAP1 PUSH2 0x100 EXP SWAP1 DIV PUSH1 0xFF AND DUP2 JUMP JUMPDEST PUSH1 0x2 DUP2 SWAP1 DUP1 PUSH1 0x1 DUP2 SLOAD ADD DUP1 DUP3 SSTORE DUP1 SWAP2 POP POP PUSH1 0x1 SWAP1 SUB SWAP1 PUSH1 0x0 MSTORE PUSH1 0x20 PUSH1 0x0 KECCAK256 ADD PUSH1 0x0 SWAP1 SWAP2 SWAP1 SWAP2 SWAP1 SWAP2 PUSH2 0x100 EXP DUP2 SLOAD DUP2 PUSH20 0xFFFFFFFFFFFFFFFFFFFFFFFFFFFFFFFFFFFFFFFF MUL NOT AND SWAP1 DUP4 PUSH20 0xFFFFFFFFFFFFFFFFFFFFFFFFFFFFFFFFFFFFFFFF AND MUL OR SWAP1 SSTORE POP POP JUMP JUMPDEST PUSH3 0x989680 DUP2 PUSH1 0x2 ADD SLOAD LT DUP1 PUSH2 0x9F3 JUMPI POP PUSH3 0x989680 DUP2 PUSH1 0x1 ADD SLOAD LT JUMPDEST DUP1 ISZERO PUSH2 0xA03 JUMPI POP PUSH1 0x1 DUP2 PUSH1 0x3 ADD SLOAD EQ JUMPDEST ISZERO PUSH2 0xA2A JUMPI PUSH1 0x0 DUP2 PUSH1 0x4 ADD PUSH1 0x1 PUSH2 0x100 EXP DUP2 SLOAD DUP2 PUSH1 0xFF MUL NOT AND SWAP1 DUP4 ISZERO ISZERO MUL OR SWAP1 SSTORE POP PUSH2 0xA79 JUMP JUMPDEST PUSH3 0x989680 DUP2 PUSH1 0x2 ADD SLOAD GT DUP1 PUSH2 0xA45 JUMPI POP PUSH3 0x989680 DUP2 PUSH1 0x1 ADD SLOAD GT JUMPDEST DUP1 ISZERO PUSH2 0xA55 JUMPI POP PUSH1 0x0 DUP2 PUSH1 0x3 ADD SLOAD EQ JUMPDEST ISZERO PUSH2 0xA78 JUMPI PUSH1 0x0 DUP2 PUSH1 0x4 ADD PUSH1 0x1 PUSH2 0x100 EXP DUP2 SLOAD DUP2 PUSH1 0xFF MUL NOT AND SWAP1 DUP4 ISZERO ISZERO MUL OR SWAP1 SSTORE POP JUMPDEST JUMPDEST POP JUMP JUMPDEST DUP1 PUSH1 0x0 DUP1 PUSH1 0x0 SHL DUP2 MSTORE PUSH1 0x20 ADD SWAP1 DUP2 MSTORE PUSH1 0x20 ADD PUSH1 0x0 KECCAK256 SLOAD DUP3 EQ DUP1 PUSH2 0xAB4 JUMPI POP PUSH1 0x0 DUP1 SHL DUP2 PUSH1 0x0 DUP5 DUP2 MSTORE PUSH1 0x20 ADD SWAP1 DUP2 MSTORE PUSH1 0x20 ADD PUSH1 0x0 KECCAK256 SLOAD EQ ISZERO JUMPDEST PUSH2 0xAFF JUMPI DUP1 PUSH1 0x0 DUP1 PUSH1 0x0 SHL DUP2 MSTORE PUSH1 0x20 ADD SWAP1 DUP2 MSTORE PUSH1 0x20 ADD PUSH1 0x0 KECCAK256 SLOAD DUP2 PUSH1 0x0 DUP5 DUP2 MSTORE PUSH1 0x20 ADD SWAP1 DUP2 MSTORE PUSH1 0x20 ADD PUSH1 0x0 KECCAK256 DUP2 SWAP1 SSTORE POP DUP2 DUP2 PUSH1 0x0 DUP1 PUSH1 0x0 SHL DUP2 MSTORE PUSH1 0x20 ADD SWAP1 DUP2 MSTORE PUSH1 0x20 ADD PUSH1 0x0 KECCAK256 DUP2 SWAP1 SSTORE POP JUMPDEST POP POP JUMP JUMPDEST DUP1 PUSH1 0x0 DUP1 PUSH1 0xFF AND DUP2 MSTORE PUSH1 0x20 ADD SWAP1 DUP2 MSTORE PUSH1 0x20 ADD PUSH1 0x0 KECCAK256 PUSH1 0x0 SWAP1 SLOAD SWAP1 PUSH2 0x100 EXP SWAP1 DIV PUSH1 0xFF AND PUSH1 0xFF AND DUP3 PUSH1 0xFF AND EQ DUP1 PUSH2 0xB62 JUMPI POP PUSH1 0x0 DUP2 PUSH1 0x0 DUP5 PUSH1 0xFF AND PUSH1 0xFF AND DUP2 MSTORE PUSH1 0x20 ADD SWAP1 DUP2 MSTORE PUSH1 0x20 ADD PUSH1 0x0 KECCAK256 PUSH1 0x0 SWAP1 SLOAD SWAP1 PUSH2 0x100 EXP SWAP1 DIV PUSH1 0xFF AND PUSH1 0xFF AND EQ ISZERO JUMPDEST PUSH2 0xBE8 JUMPI DUP1 PUSH1 0x0 DUP1 PUSH1 0xFF AND DUP2 MSTORE PUSH1 0x20 ADD SWAP1 DUP2 MSTORE PUSH1 0x20 ADD PUSH1 0x0 KECCAK256 PUSH1 0x0 SWAP1 SLOAD SWAP1 PUSH2 0x100 EXP SWAP1 DIV PUSH1 0xFF AND DUP2 PUSH1 0x0 DUP5 PUSH1 0xFF AND PUSH1 0xFF AND DUP2 MSTORE PUSH1 0x20 ADD SWAP1 DUP2 MSTORE PUSH1 0x20 ADD PUSH1 0x0 KECCAK256 PUSH1 0x0 PUSH2 0x100 EXP DUP2 SLOAD DUP2 PUSH1 0xFF MUL NOT AND SWAP1 DUP4 PUSH1 0xFF AND MUL OR SWAP1 SSTORE POP DUP2 DUP2 PUSH1 0x0 DUP1 PUSH1 0xFF AND DUP2 MSTORE PUSH1 0x20 ADD SWAP1 DUP2 MSTORE PUSH1 0x20 ADD PUSH1 0x0 KECCAK256 PUSH1 0x0 PUSH2 0x100 EXP DUP2 SLOAD DUP2 PUSH1 0xFF MUL NOT AND SWAP1 DUP4 PUSH1 0xFF AND MUL OR SWAP1 SSTORE POP JUMPDEST POP POP JUMP JUMPDEST PUSH1 0x0 PUSH1 0x6 PUSH1 0x0 SWAP1 SLOAD SWAP1 PUSH2 0x100 EXP SWAP1 DIV PUSH1 0xFF AND PUSH1 0xFF AND PUSH8 0xFFFFFFFFFFFFFFFF DUP2 GT ISZERO PUSH2 0xC1A JUMPI PUSH2 0xC19 PUSH2 0x21F5 JUMP JUMPDEST JUMPDEST PUSH1 0x40 MLOAD SWAP1 DUP1 DUP3 MSTORE DUP1 PUSH1 0x20 MUL PUSH1 0x20 ADD DUP3 ADD PUSH1 0x40 MSTORE DUP1 ISZERO PUSH2 0xC53 JUMPI DUP2 PUSH1 0x20 ADD JUMPDEST PUSH2 0xC40 PUSH2 0x1587 JUMP JUMPDEST DUP2 MSTORE PUSH1 0x20 ADD SWAP1 PUSH1 0x1 SWAP1 SUB SWAP1 DUP2 PUSH2 0xC38 JUMPI SWAP1 POP JUMPDEST POP SWAP1 POP PUSH1 0x0 DUP1 PUSH1 0x1 PUSH1 0x0 DUP1 PUSH1 0xFF AND DUP2 MSTORE PUSH1 0x20 ADD SWAP1 DUP2 MSTORE PUSH1 0x20 ADD PUSH1 0x0 KECCAK256 PUSH1 0x0 SWAP1 SLOAD SWAP1 PUSH2 0x100 EXP SWAP1 DIV PUSH1 0xFF AND SWAP1 POP JUMPDEST PUSH1 0x0 DUP2 PUSH1 0xFF AND EQ PUSH2 0xE5A JUMPI PUSH1 0x0 DUP1 DUP3 PUSH1 0xFF AND PUSH1 0xFF AND DUP2 MSTORE PUSH1 0x20 ADD SWAP1 DUP2 MSTORE PUSH1 0x20 ADD PUSH1 0x0 KECCAK256 PUSH1 0x40 MLOAD DUP1 PUSH1 0x60 ADD PUSH1 0x40 MSTORE SWAP1 DUP2 PUSH1 0x0 DUP3 ADD PUSH1 0x0 SWAP1 SLOAD SWAP1 PUSH2 0x100 EXP SWAP1 DIV PUSH1 0xFF AND PUSH1 0xFF AND PUSH1 0xFF AND DUP2 MSTORE PUSH1 0x20 ADD PUSH1 0x1 DUP3 ADD DUP1 SLOAD DUP1 PUSH1 0x20 MUL PUSH1 0x20 ADD PUSH1 0x40 MLOAD SWAP1 DUP2 ADD PUSH1 0x40 MSTORE DUP1 SWAP3 SWAP2 SWAP1 DUP2 DUP2 MSTORE PUSH1 0x20 ADD PUSH1 0x0 SWAP1 JUMPDEST DUP3 DUP3 LT ISZERO PUSH2 0xDCE JUMPI DUP4 DUP3 SWAP1 PUSH1 0x0 MSTORE PUSH1 0x20 PUSH1 0x0 KECCAK256 SWAP1 PUSH1 0x5 MUL ADD PUSH1 0x40 MLOAD DUP1 PUSH1 0xC0 ADD PUSH1 0x40 MSTORE SWAP1 DUP2 PUSH1 0x0 DUP3 ADD PUSH1 0x0 SWAP1 SLOAD SWAP1 PUSH2 0x100 EXP SWAP1 DIV PUSH20 0xFFFFFFFFFFFFFFFFFFFFFFFFFFFFFFFFFFFFFFFF AND PUSH20 0xFFFFFFFFFFFFFFFFFFFFFFFFFFFFFFFFFFFFFFFF AND PUSH20 0xFFFFFFFFFFFFFFFFFFFFFFFFFFFFFFFFFFFFFFFF AND DUP2 MSTORE PUSH1 0x20 ADD PUSH1 0x1 DUP3 ADD SLOAD DUP2 MSTORE PUSH1 0x20 ADD PUSH1 0x2 DUP3 ADD SLOAD DUP2 MSTORE PUSH1 0x20 ADD PUSH1 0x3 DUP3 ADD SLOAD DUP2 MSTORE PUSH1 0x20 ADD PUSH1 0x4 DUP3 ADD PUSH1 0x0 SWAP1 SLOAD SWAP1 PUSH2 0x100 EXP SWAP1 DIV PUSH1 0xFF AND PUSH1 0xFF AND PUSH1 0xFF AND DUP2 MSTORE PUSH1 0x20 ADD PUSH1 0x4 DUP3 ADD PUSH1 0x1 SWAP1 SLOAD SWAP1 PUSH2 0x100 EXP SWAP1 DIV PUSH1 0xFF AND ISZERO ISZERO ISZERO ISZERO DUP2 MSTORE POP POP DUP2 MSTORE PUSH1 0x20 ADD SWAP1 PUSH1 0x1 ADD SWAP1 PUSH2 0xCF0 JUMP JUMPDEST POP POP POP POP DUP2 MSTORE PUSH1 0x20 ADD PUSH1 0x2 DUP3 ADD PUSH1 0x0 SWAP1 SLOAD SWAP1 PUSH2 0x100 EXP SWAP1 DIV PUSH4 0xFFFFFFFF AND PUSH4 0xFFFFFFFF AND PUSH4 0xFFFFFFFF AND DUP2 MSTORE POP POP DUP4 DUP4 PUSH1 0xFF AND DUP2 MLOAD DUP2 LT PUSH2 0xE12 JUMPI PUSH2 0xE11 PUSH2 0x21C6 JUMP JUMPDEST JUMPDEST PUSH1 0x20 MUL PUSH1 0x20 ADD ADD DUP2 SWAP1 MSTORE POP PUSH1 0x1 PUSH1 0x0 DUP3 PUSH1 0xFF AND PUSH1 0xFF AND DUP2 MSTORE PUSH1 0x20 ADD SWAP1 DUP2 MSTORE PUSH1 0x20 ADD PUSH1 0x0 KECCAK256 PUSH1 0x0 SWAP1 SLOAD SWAP1 PUSH2 0x100 EXP SWAP1 DIV PUSH1 0xFF AND SWAP1 POP PUSH1 0x1 DUP3 PUSH2 0xE53 SWAP2 SWAP1 PUSH2 0x1F7A JUMP JUMPDEST SWAP2 POP PUSH2 0xC80 JUMP JUMPDEST PUSH32 0x8D6661E0D5915A0819A638B972E4819397F8B7B61F7474D495387868DB7AE69B PUSH1 0x40 MLOAD PUSH2 0xE87 SWAP1 PUSH2 0x1D1A JUMP JUMPDEST PUSH1 0x40 MLOAD DUP1 SWAP2 SUB SWAP1 LOG1 PUSH1 0x0 PUSH2 0xE9A DUP5 PUSH2 0x14A3 JUMP JUMPDEST SWAP1 POP PUSH1 0x1 PUSH1 0x0 DUP1 DUP4 PUSH1 0xFF AND PUSH1 0xFF AND DUP2 MSTORE PUSH1 0x20 ADD SWAP1 DUP2 MSTORE PUSH1 0x20 ADD PUSH1 0x0 KECCAK256 PUSH1 0x1 ADD DUP1 SLOAD SWAP1 POP EQ PUSH2 0x1000 JUMPI PUSH1 0x1 PUSH1 0x0 DUP1 DUP4 PUSH1 0xFF AND PUSH1 0xFF AND DUP2 MSTORE PUSH1 0x20 ADD SWAP1 DUP2 MSTORE PUSH1 0x20 ADD PUSH1 0x0 KECCAK256 PUSH1 0x2 ADD PUSH1 0x0 SWAP1 SLOAD SWAP1 PUSH2 0x100 EXP SWAP1 DIV PUSH4 0xFFFFFFFF AND PUSH4 0xFFFFFFFF AND LT PUSH2 0xF71 JUMPI PUSH1 0x1 PUSH1 0x0 DUP1 DUP4 PUSH1 0xFF AND PUSH1 0xFF AND DUP2 MSTORE PUSH1 0x20 ADD SWAP1 DUP2 MSTORE PUSH1 0x20 ADD PUSH1 0x0 KECCAK256 PUSH1 0x2 ADD PUSH1 0x0 SWAP1 SLOAD SWAP1 PUSH2 0x100 EXP SWAP1 DIV PUSH4 0xFFFFFFFF AND PUSH2 0xF33 SWAP2 SWAP1 PUSH2 0x1F40 JUMP JUMPDEST PUSH1 0x0 DUP1 DUP4 PUSH1 0xFF AND PUSH1 0xFF AND DUP2 MSTORE PUSH1 0x20 ADD SWAP1 DUP2 MSTORE PUSH1 0x20 ADD PUSH1 0x0 KECCAK256 PUSH1 0x2 ADD PUSH1 0x0 PUSH2 0x100 EXP DUP2 SLOAD DUP2 PUSH4 0xFFFFFFFF MUL NOT AND SWAP1 DUP4 PUSH4 0xFFFFFFFF AND MUL OR SWAP1 SSTORE POP PUSH2 0xFAD JUMP JUMPDEST PUSH1 0x1 PUSH1 0x0 DUP1 DUP4 PUSH1 0xFF AND PUSH1 0xFF AND DUP2 MSTORE PUSH1 0x20 ADD SWAP1 DUP2 MSTORE PUSH1 0x20 ADD PUSH1 0x0 KECCAK256 PUSH1 0x2 ADD PUSH1 0x0 PUSH2 0x100 EXP DUP2 SLOAD DUP2 PUSH4 0xFFFFFFFF MUL NOT AND SWAP1 DUP4 PUSH4 0xFFFFFFFF AND MUL OR SWAP1 SSTORE POP JUMPDEST PUSH32 0x47369145E9251A49F62452CCF793501933D2183B10AE1492318166F709511212 PUSH1 0x0 DUP1 DUP4 PUSH1 0xFF AND PUSH1 0xFF AND DUP2 MSTORE PUSH1 0x20 ADD SWAP1 DUP2 MSTORE PUSH1 0x20 ADD PUSH1 0x0 KECCAK256 PUSH1 0x40 MLOAD PUSH2 0xFF3 SWAP2 SWAP1 PUSH2 0x1E44 JUMP JUMPDEST PUSH1 0x40 MLOAD DUP1 SWAP2 SUB SWAP1 LOG1 PUSH2 0x106D JUMP JUMPDEST PUSH2 0x1008 PUSH2 0x1587 JUMP JUMPDEST PUSH1 0x0 DUP2 PUSH1 0x40 ADD SWAP1 PUSH4 0xFFFFFFFF AND SWAP1 DUP2 PUSH4 0xFFFFFFFF AND DUP2 MSTORE POP POP PUSH1 0x0 DUP2 PUSH1 0x0 ADD SWAP1 PUSH1 0xFF AND SWAP1 DUP2 PUSH1 0xFF AND DUP2 MSTORE POP POP PUSH32 0x47369145E9251A49F62452CCF793501933D2183B10AE1492318166F709511212 DUP2 PUSH1 0x40 MLOAD PUSH2 0x1063 SWAP2 SWAP1 PUSH2 0x1DDA JUMP JUMPDEST PUSH1 0x40 MLOAD DUP1 SWAP2 SUB SWAP1 LOG1 POP JUMPDEST POP POP POP POP JUMP JUMPDEST PUSH1 0x0 DUP1 PUSH1 0x1 PUSH1 0x0 DUP1 PUSH1 0xFF AND DUP2 MSTORE PUSH1 0x20 ADD SWAP1 DUP2 MSTORE PUSH1 0x20 ADD PUSH1 0x0 KECCAK256 PUSH1 0x0 SWAP1 SLOAD SWAP1 PUSH2 0x100 EXP SWAP1 DIV PUSH1 0xFF AND SWAP1 POP PUSH1 0x1 PUSH1 0x0 DUP1 PUSH1 0xFF AND DUP2 MSTORE PUSH1 0x20 ADD SWAP1 DUP2 MSTORE PUSH1 0x20 ADD PUSH1 0x0 KECCAK256 PUSH1 0x0 SWAP1 SLOAD SWAP1 PUSH2 0x100 EXP SWAP1 DIV PUSH1 0xFF AND SWAP2 POP JUMPDEST PUSH1 0x0 DUP2 PUSH1 0xFF AND EQ PUSH2 0x116A JUMPI PUSH1 0x0 DUP1 DUP4 PUSH1 0xFF AND PUSH1 0xFF AND DUP2 MSTORE PUSH1 0x20 ADD SWAP1 DUP2 MSTORE PUSH1 0x20 ADD PUSH1 0x0 KECCAK256 PUSH1 0x2 ADD PUSH1 0x0 SWAP1 SLOAD SWAP1 PUSH2 0x100 EXP SWAP1 DIV PUSH4 0xFFFFFFFF AND PUSH4 0xFFFFFFFF AND PUSH1 0x0 DUP1 DUP4 PUSH1 0xFF AND PUSH1 0xFF AND DUP2 MSTORE PUSH1 0x20 ADD SWAP1 DUP2 MSTORE PUSH1 0x20 ADD PUSH1 0x0 KECCAK256 PUSH1 0x2 ADD PUSH1 0x0 SWAP1 SLOAD SWAP1 PUSH2 0x100 EXP SWAP1 DIV PUSH4 0xFFFFFFFF AND PUSH4 0xFFFFFFFF AND GT ISZERO PUSH2 0x113C JUMPI DUP1 SWAP2 POP JUMPDEST PUSH1 0x1 PUSH1 0x0 DUP3 PUSH1 0xFF AND PUSH1 0xFF AND DUP2 MSTORE PUSH1 0x20 ADD SWAP1 DUP2 MSTORE PUSH1 0x20 ADD PUSH1 0x0 KECCAK256 PUSH1 0x0 SWAP1 SLOAD SWAP1 PUSH2 0x100 EXP SWAP1 DIV PUSH1 0xFF AND SWAP1 POP PUSH2 0x10C3 JUMP JUMPDEST PUSH32 0x8D6661E0D5915A0819A638B972E4819397F8B7B61F7474D495387868DB7AE69B PUSH1 0x40 MLOAD PUSH2 0x1197 SWAP1 PUSH2 0x1D7A JUMP JUMPDEST PUSH1 0x40 MLOAD DUP1 SWAP2 SUB SWAP1 LOG1 POP SWAP1 JUMP JUMPDEST PUSH1 0x0 PUSH1 0x6 PUSH1 0x1 PUSH2 0x100 EXP DUP2 SLOAD DUP2 PUSH1 0xFF MUL NOT AND SWAP1 DUP4 PUSH1 0xFF AND MUL OR SWAP1 SSTORE POP PUSH1 0x0 JUMPDEST PUSH1 0x2 DUP1 SLOAD SWAP1 POP DUP2 LT ISZERO PUSH2 0x1278 JUMPI PUSH1 0x0 PUSH1 0x3 PUSH1 0x0 PUSH1 0x2 DUP5 DUP2 SLOAD DUP2 LT PUSH2 0x11E9 JUMPI PUSH2 0x11E8 PUSH2 0x21C6 JUMP JUMPDEST JUMPDEST SWAP1 PUSH1 0x0 MSTORE PUSH1 0x20 PUSH1 0x0 KECCAK256 ADD PUSH1 0x0 SWAP1 SLOAD SWAP1 PUSH2 0x100 EXP SWAP1 DIV PUSH20 0xFFFFFFFFFFFFFFFFFFFFFFFFFFFFFFFFFFFFFFFF AND PUSH20 0xFFFFFFFFFFFFFFFFFFFFFFFFFFFFFFFFFFFFFFFF AND PUSH20 0xFFFFFFFFFFFFFFFFFFFFFFFFFFFFFFFFFFFFFFFF AND DUP2 MSTORE PUSH1 0x20 ADD SWAP1 DUP2 MSTORE PUSH1 0x20 ADD PUSH1 0x0 KECCAK256 PUSH1 0x0 PUSH2 0x100 EXP DUP2 SLOAD DUP2 PUSH1 0xFF MUL NOT AND SWAP1 DUP4 ISZERO ISZERO MUL OR SWAP1 SSTORE POP DUP1 DUP1 PUSH2 0x1270 SWAP1 PUSH2 0x20F6 JUMP JUMPDEST SWAP2 POP POP PUSH2 0x11C2 JUMP JUMPDEST POP PUSH1 0x0 PUSH1 0x5 PUSH1 0x0 DUP1 PUSH1 0x0 SHL DUP2 MSTORE PUSH1 0x20 ADD SWAP1 DUP2 MSTORE PUSH1 0x20 ADD PUSH1 0x0 KECCAK256 SLOAD SWAP1 POP JUMPDEST PUSH1 0x0 DUP1 SHL DUP2 EQ PUSH2 0x1337 JUMPI PUSH1 0x4 PUSH1 0x0 DUP3 DUP2 MSTORE PUSH1 0x20 ADD SWAP1 DUP2 MSTORE PUSH1 0x20 ADD PUSH1 0x0 KECCAK256 PUSH1 0x0 DUP1 DUP3 ADD PUSH1 0x0 PUSH2 0x100 EXP DUP2 SLOAD SWAP1 PUSH20 0xFFFFFFFFFFFFFFFFFFFFFFFFFFFFFFFFFFFFFFFF MUL NOT AND SWAP1 SSTORE PUSH1 0x1 DUP3 ADD PUSH1 0x0 SWAP1 SSTORE PUSH1 0x2 DUP3 ADD PUSH1 0x0 SWAP1 SSTORE PUSH1 0x3 DUP3 ADD PUSH1 0x0 SWAP1 SSTORE PUSH1 0x4 DUP3 ADD PUSH1 0x0 PUSH2 0x100 EXP DUP2 SLOAD SWAP1 PUSH1 0xFF MUL NOT AND SWAP1 SSTORE PUSH1 0x4 DUP3 ADD PUSH1 0x1 PUSH2 0x100 EXP DUP2 SLOAD SWAP1 PUSH1 0xFF MUL NOT AND SWAP1 SSTORE POP POP PUSH1 0x5 PUSH1 0x0 DUP3 DUP2 MSTORE PUSH1 0x20 ADD SWAP1 DUP2 MSTORE PUSH1 0x20 ADD PUSH1 0x0 KECCAK256 SLOAD SWAP1 POP PUSH2 0x1295 JUMP JUMPDEST PUSH1 0x5 PUSH1 0x0 DUP1 PUSH1 0x0 SHL DUP2 MSTORE PUSH1 0x20 ADD SWAP1 DUP2 MSTORE PUSH1 0x20 ADD PUSH1 0x0 KECCAK256 SLOAD SWAP1 POP JUMPDEST PUSH1 0x0 DUP1 SHL DUP2 EQ PUSH2 0x138D JUMPI PUSH1 0x5 PUSH1 0x0 DUP3 DUP2 MSTORE PUSH1 0x20 ADD SWAP1 DUP2 MSTORE PUSH1 0x20 ADD PUSH1 0x0 KECCAK256 PUSH1 0x0 SWAP1 SSTORE PUSH1 0x5 PUSH1 0x0 DUP3 DUP2 MSTORE PUSH1 0x20 ADD SWAP1 DUP2 MSTORE PUSH1 0x20 ADD PUSH1 0x0 KECCAK256 SLOAD SWAP1 POP PUSH2 0x1351 JUMP JUMPDEST PUSH1 0x0 PUSH1 0x1 PUSH1 0x0 DUP1 PUSH1 0xFF AND DUP2 MSTORE PUSH1 0x20 ADD SWAP1 DUP2 MSTORE PUSH1 0x20 ADD PUSH1 0x0 KECCAK256 PUSH1 0x0 SWAP1 SLOAD SWAP1 PUSH2 0x100 EXP SWAP1 DIV PUSH1 0xFF AND SWAP1 POP JUMPDEST PUSH1 0x0 DUP2 PUSH1 0xFF AND EQ PUSH2 0x1416 JUMPI PUSH1 0x0 DUP1 DUP3 PUSH1 0xFF AND PUSH1 0xFF AND DUP2 MSTORE PUSH1 0x20 ADD SWAP1 DUP2 MSTORE PUSH1 0x20 ADD PUSH1 0x0 KECCAK256 PUSH1 0x1 ADD PUSH1 0x0 PUSH2 0x13E8 SWAP2 SWAP1 PUSH2 0x15B1 JUMP JUMPDEST PUSH1 0x1 PUSH1 0x0 DUP3 PUSH1 0xFF AND PUSH1 0xFF AND DUP2 MSTORE PUSH1 0x20 ADD SWAP1 DUP2 MSTORE PUSH1 0x20 ADD PUSH1 0x0 KECCAK256 PUSH1 0x0 SWAP1 SLOAD SWAP1 PUSH2 0x100 EXP SWAP1 DIV PUSH1 0xFF AND SWAP1 POP PUSH2 0x13B6 JUMP JUMPDEST PUSH1 0x1 PUSH1 0x0 DUP1 PUSH1 0xFF AND DUP2 MSTORE PUSH1 0x20 ADD SWAP1 DUP2 MSTORE PUSH1 0x20 ADD PUSH1 0x0 KECCAK256 PUSH1 0x0 SWAP1 SLOAD SWAP1 PUSH2 0x100 EXP SWAP1 DIV PUSH1 0xFF AND SWAP1 POP JUMPDEST PUSH1 0x0 DUP2 PUSH1 0xFF AND EQ PUSH2 0x149F JUMPI PUSH1 0x1 PUSH1 0x0 DUP3 PUSH1 0xFF AND PUSH1 0xFF AND DUP2 MSTORE PUSH1 0x20 ADD SWAP1 DUP2 MSTORE PUSH1 0x20 ADD PUSH1 0x0 KECCAK256 PUSH1 0x0 PUSH2 0x100 EXP DUP2 SLOAD SWAP1 PUSH1 0xFF MUL NOT AND SWAP1 SSTORE PUSH1 0x1 PUSH1 0x0 DUP3 PUSH1 0xFF AND PUSH1 0xFF AND DUP2 MSTORE PUSH1 0x20 ADD SWAP1 DUP2 MSTORE PUSH1 0x20 ADD PUSH1 0x0 KECCAK256 PUSH1 0x0 SWAP1 SLOAD SWAP1 PUSH2 0x100 EXP SWAP1 DIV PUSH1 0xFF AND SWAP1 POP PUSH2 0x143D JUMP JUMPDEST POP POP JUMP JUMPDEST PUSH1 0x0 DUP1 JUMPDEST DUP3 MLOAD DUP2 PUSH1 0xFF AND LT ISZERO PUSH2 0x155D JUMPI DUP3 DUP3 PUSH1 0xFF AND DUP2 MLOAD DUP2 LT PUSH2 0x14C9 JUMPI PUSH2 0x14C8 PUSH2 0x21C6 JUMP JUMPDEST JUMPDEST PUSH1 0x20 MUL PUSH1 0x20 ADD ADD MLOAD PUSH1 0x20 ADD MLOAD MLOAD DUP4 DUP3 PUSH1 0xFF AND DUP2 MLOAD DUP2 LT PUSH2 0x14EC JUMPI PUSH2 0x14EB PUSH2 0x21C6 JUMP JUMPDEST JUMPDEST PUSH1 0x20 MUL PUSH1 0x20 ADD ADD MLOAD PUSH1 0x20 ADD MLOAD MLOAD GT ISZERO PUSH2 0x154A JUMPI DUP3 DUP2 PUSH1 0xFF AND DUP2 MLOAD DUP2 LT PUSH2 0x1515 JUMPI PUSH2 0x1514 PUSH2 0x21C6 JUMP JUMPDEST JUMPDEST PUSH1 0x20 MUL PUSH1 0x20 ADD ADD MLOAD PUSH1 0x20 ADD MLOAD PUSH1 0x0 DUP2 MLOAD DUP2 LT PUSH2 0x1534 JUMPI PUSH2 0x1533 PUSH2 0x21C6 JUMP JUMPDEST JUMPDEST PUSH1 0x20 MUL PUSH1 0x20 ADD ADD MLOAD PUSH1 0xA0 ADD MLOAD ISZERO PUSH2 0x1549 JUMPI DUP1 SWAP2 POP JUMPDEST JUMPDEST DUP1 DUP1 PUSH2 0x1555 SWAP1 PUSH2 0x213F JUMP JUMPDEST SWAP2 POP POP PUSH2 0x14A7 JUMP JUMPDEST POP DUP2 DUP2 PUSH1 0xFF AND DUP2 MLOAD DUP2 LT PUSH2 0x1574 JUMPI PUSH2 0x1573 PUSH2 0x21C6 JUMP JUMPDEST JUMPDEST PUSH1 0x20 MUL PUSH1 0x20 ADD ADD MLOAD PUSH1 0x0 ADD MLOAD SWAP1 POP SWAP2 SWAP1 POP JUMP JUMPDEST PUSH1 0x40 MLOAD DUP1 PUSH1 0x60 ADD PUSH1 0x40 MSTORE DUP1 PUSH1 0x0 PUSH1 0xFF AND DUP2 MSTORE PUSH1 0x20 ADD PUSH1 0x60 DUP2 MSTORE PUSH1 0x20 ADD PUSH1 0x0 PUSH4 0xFFFFFFFF AND DUP2 MSTORE POP SWAP1 JUMP JUMPDEST POP DUP1 SLOAD PUSH1 0x0 DUP3 SSTORE PUSH1 0x5 MUL SWAP1 PUSH1 0x0 MSTORE PUSH1 0x20 PUSH1 0x0 KECCAK256 SWAP1 DUP2 ADD SWAP1 PUSH2 0x15D2 SWAP2 SWAP1 PUSH2 0x15D5 JUMP JUMPDEST POP JUMP JUMPDEST JUMPDEST DUP1 DUP3 GT ISZERO PUSH2 0x164F JUMPI PUSH1 0x0 DUP1 DUP3 ADD PUSH1 0x0 PUSH2 0x100 EXP DUP2 SLOAD SWAP1 PUSH20 0xFFFFFFFFFFFFFFFFFFFFFFFFFFFFFFFFFFFFFFFF MUL NOT AND SWAP1 SSTORE PUSH1 0x1 DUP3 ADD PUSH1 0x0 SWAP1 SSTORE PUSH1 0x2 DUP3 ADD PUSH1 0x0 SWAP1 SSTORE PUSH1 0x3 DUP3 ADD PUSH1 0x0 SWAP1 SSTORE PUSH1 0x4 DUP3 ADD PUSH1 0x0 PUSH2 0x100 EXP DUP2 SLOAD SWAP1 PUSH1 0xFF MUL NOT AND SWAP1 SSTORE PUSH1 0x4 DUP3 ADD PUSH1 0x1 PUSH2 0x100 EXP DUP2 SLOAD SWAP1 PUSH1 0xFF MUL NOT AND SWAP1 SSTORE POP PUSH1 0x5 ADD PUSH2 0x15D6 JUMP JUMPDEST POP SWAP1 JUMP JUMPDEST PUSH1 0x0 DUP2 CALLDATALOAD SWAP1 POP PUSH2 0x1662 DUP2 PUSH2 0x245C JUMP JUMPDEST SWAP3 SWAP2 POP POP JUMP JUMPDEST PUSH1 0x0 DUP2 CALLDATALOAD SWAP1 POP PUSH2 0x1677 DUP2 PUSH2 0x2473 JUMP JUMPDEST SWAP3 SWAP2 POP POP JUMP JUMPDEST PUSH1 0x0 DUP2 CALLDATALOAD SWAP1 POP PUSH2 0x168C DUP2 PUSH2 0x248A JUMP JUMPDEST SWAP3 SWAP2 POP POP JUMP JUMPDEST PUSH1 0x0 DUP2 CALLDATALOAD SWAP1 POP PUSH2 0x16A1 DUP2 PUSH2 0x24A1 JUMP JUMPDEST SWAP3 SWAP2 POP POP JUMP JUMPDEST PUSH1 0x0 PUSH1 0x20 DUP3 DUP5 SUB SLT ISZERO PUSH2 0x16BD JUMPI PUSH2 0x16BC PUSH2 0x2224 JUMP JUMPDEST JUMPDEST PUSH1 0x0 PUSH2 0x16CB DUP5 DUP3 DUP6 ADD PUSH2 0x1653 JUMP JUMPDEST SWAP2 POP POP SWAP3 SWAP2 POP POP JUMP JUMPDEST PUSH1 0x0 PUSH1 0x20 DUP3 DUP5 SUB SLT ISZERO PUSH2 0x16EA JUMPI PUSH2 0x16E9 PUSH2 0x2224 JUMP JUMPDEST JUMPDEST PUSH1 0x0 PUSH2 0x16F8 DUP5 DUP3 DUP6 ADD PUSH2 0x1668 JUMP JUMPDEST SWAP2 POP POP SWAP3 SWAP2 POP POP JUMP JUMPDEST PUSH1 0x0 DUP1 PUSH1 0x0 DUP1 PUSH1 0x80 DUP6 DUP8 SUB SLT ISZERO PUSH2 0x171B JUMPI PUSH2 0x171A PUSH2 0x2224 JUMP JUMPDEST JUMPDEST PUSH1 0x0 PUSH2 0x1729 DUP8 DUP3 DUP9 ADD PUSH2 0x167D JUMP JUMPDEST SWAP5 POP POP PUSH1 0x20 PUSH2 0x173A DUP8 DUP3 DUP9 ADD PUSH2 0x167D JUMP JUMPDEST SWAP4 POP POP PUSH1 0x40 PUSH2 0x174B DUP8 DUP3 DUP9 ADD PUSH2 0x167D JUMP JUMPDEST SWAP3 POP POP PUSH1 0x60 PUSH2 0x175C DUP8 DUP3 DUP9 ADD PUSH2 0x1692 JUMP JUMPDEST SWAP2 POP POP SWAP3 SWAP6 SWAP2 SWAP5 POP SWAP3 POP JUMP JUMPDEST PUSH1 0x0 PUSH2 0x1774 DUP4 DUP4 PUSH2 0x1ABB JUMP JUMPDEST PUSH1 0xC0 DUP4 ADD SWAP1 POP SWAP3 SWAP2 POP POP JUMP JUMPDEST PUSH1 0x0 PUSH2 0x178C DUP4 DUP4 PUSH2 0x1B36 JUMP JUMPDEST PUSH1 0xC0 DUP4 ADD SWAP1 POP SWAP3 SWAP2 POP POP JUMP JUMPDEST PUSH2 0x17A1 DUP2 PUSH2 0x2005 JUMP JUMPDEST DUP3 MSTORE POP POP JUMP JUMPDEST PUSH2 0x17B0 DUP2 PUSH2 0x2005 JUMP JUMPDEST DUP3 MSTORE POP POP JUMP JUMPDEST PUSH2 0x17C7 PUSH2 0x17C2 DUP3 PUSH2 0x2005 JUMP JUMPDEST PUSH2 0x2169 JUMP JUMPDEST DUP3 MSTORE POP POP JUMP JUMPDEST PUSH1 0x0 PUSH2 0x17D8 DUP3 PUSH2 0x1EEE JUMP JUMPDEST PUSH2 0x17E2 DUP2 DUP6 PUSH2 0x1F1E JUMP JUMPDEST SWAP4 POP PUSH2 0x17ED DUP4 PUSH2 0x1EC9 JUMP JUMPDEST DUP1 PUSH1 0x0 JUMPDEST DUP4 DUP2 LT ISZERO PUSH2 0x181E JUMPI DUP2 MLOAD PUSH2 0x1805 DUP9 DUP3 PUSH2 0x1768 JUMP JUMPDEST SWAP8 POP PUSH2 0x1810 DUP4 PUSH2 0x1F04 JUMP JUMPDEST SWAP3 POP POP PUSH1 0x1 DUP2 ADD SWAP1 POP PUSH2 0x17F1 JUMP JUMPDEST POP DUP6 SWAP4 POP POP POP POP SWAP3 SWAP2 POP POP JUMP JUMPDEST PUSH1 0x0 PUSH2 0x1836 DUP3 PUSH2 0x1EF9 JUMP JUMPDEST PUSH2 0x1840 DUP2 DUP6 PUSH2 0x1F1E JUMP JUMPDEST SWAP4 POP PUSH2 0x184B DUP4 PUSH2 0x1ED9 JUMP JUMPDEST DUP1 PUSH1 0x0 JUMPDEST DUP4 DUP2 LT ISZERO PUSH2 0x187B JUMPI DUP2 PUSH2 0x1862 DUP9 DUP3 PUSH2 0x1780 JUMP JUMPDEST SWAP8 POP PUSH2 0x186D DUP4 PUSH2 0x1F11 JUMP JUMPDEST SWAP3 POP POP PUSH1 0x1 DUP2 ADD SWAP1 POP PUSH2 0x184F JUMP JUMPDEST POP DUP6 SWAP4 POP POP POP POP SWAP3 SWAP2 POP POP JUMP JUMPDEST PUSH2 0x1891 DUP2 PUSH2 0x2017 JUMP JUMPDEST DUP3 MSTORE POP POP JUMP JUMPDEST PUSH2 0x18A0 DUP2 PUSH2 0x2017 JUMP JUMPDEST DUP3 MSTORE POP POP JUMP JUMPDEST PUSH1 0x0 PUSH2 0x18B3 PUSH1 0x1D DUP4 PUSH2 0x1F2F JUMP JUMPDEST SWAP2 POP PUSH2 0x18BE DUP3 PUSH2 0x2250 JUMP JUMPDEST PUSH1 0x20 DUP3 ADD SWAP1 POP SWAP2 SWAP1 POP JUMP JUMPDEST PUSH1 0x0 PUSH2 0x18D6 PUSH1 0x16 DUP4 PUSH2 0x1F2F JUMP JUMPDEST SWAP2 POP PUSH2 0x18E1 DUP3 PUSH2 0x2279 JUMP JUMPDEST PUSH1 0x20 DUP3 ADD SWAP1 POP SWAP2 SWAP1 POP JUMP JUMPDEST PUSH1 0x0 PUSH2 0x18F9 PUSH1 0x15 DUP4 PUSH2 0x1F2F JUMP JUMPDEST SWAP2 POP PUSH2 0x1904 DUP3 PUSH2 0x22A2 JUMP JUMPDEST PUSH1 0x20 DUP3 ADD SWAP1 POP SWAP2 SWAP1 POP JUMP JUMPDEST PUSH1 0x0 PUSH2 0x191C PUSH1 0x18 DUP4 PUSH2 0x1F2F JUMP JUMPDEST SWAP2 POP PUSH2 0x1927 DUP3 PUSH2 0x22CB JUMP JUMPDEST PUSH1 0x20 DUP3 ADD SWAP1 POP SWAP2 SWAP1 POP JUMP JUMPDEST PUSH1 0x0 PUSH2 0x193F PUSH1 0x39 DUP4 PUSH2 0x1F2F JUMP JUMPDEST SWAP2 POP PUSH2 0x194A DUP3 PUSH2 0x22F4 JUMP JUMPDEST PUSH1 0x40 DUP3 ADD SWAP1 POP SWAP2 SWAP1 POP JUMP JUMPDEST PUSH1 0x0 PUSH2 0x1962 PUSH1 0x1C DUP4 PUSH2 0x1F2F JUMP JUMPDEST SWAP2 POP PUSH2 0x196D DUP3 PUSH2 0x2343 JUMP JUMPDEST PUSH1 0x20 DUP3 ADD SWAP1 POP SWAP2 SWAP1 POP JUMP JUMPDEST PUSH1 0x0 PUSH2 0x1985 PUSH1 0xE DUP4 PUSH2 0x1F2F JUMP JUMPDEST SWAP2 POP PUSH2 0x1990 DUP3 PUSH2 0x236C JUMP JUMPDEST PUSH1 0x20 DUP3 ADD SWAP1 POP SWAP2 SWAP1 POP JUMP JUMPDEST PUSH1 0x0 PUSH2 0x19A8 PUSH1 0x3C DUP4 PUSH2 0x1F2F JUMP JUMPDEST SWAP2 POP PUSH2 0x19B3 DUP3 PUSH2 0x2395 JUMP JUMPDEST PUSH1 0x40 DUP3 ADD SWAP1 POP SWAP2 SWAP1 POP JUMP JUMPDEST PUSH1 0x0 PUSH2 0x19CB PUSH1 0x23 DUP4 PUSH2 0x1F2F JUMP JUMPDEST SWAP2 POP PUSH2 0x19D6 DUP3 PUSH2 0x23E4 JUMP JUMPDEST PUSH1 0x40 DUP3 ADD SWAP1 POP SWAP2 SWAP1 POP JUMP JUMPDEST PUSH1 0x0 PUSH2 0x19EE PUSH1 0x3 DUP4 PUSH2 0x1F2F JUMP JUMPDEST SWAP2 POP PUSH2 0x19F9 DUP3 PUSH2 0x2433 JUMP JUMPDEST PUSH1 0x20 DUP3 ADD SWAP1 POP SWAP2 SWAP1 POP JUMP JUMPDEST PUSH1 0x0 PUSH1 0x60 DUP4 ADD PUSH1 0x0 DUP4 ADD MLOAD PUSH2 0x1A1C PUSH1 0x0 DUP7 ADD DUP3 PUSH2 0x1C32 JUMP JUMPDEST POP PUSH1 0x20 DUP4 ADD MLOAD DUP5 DUP3 SUB PUSH1 0x20 DUP7 ADD MSTORE PUSH2 0x1A34 DUP3 DUP3 PUSH2 0x17CD JUMP JUMPDEST SWAP2 POP POP PUSH1 0x40 DUP4 ADD MLOAD PUSH2 0x1A49 PUSH1 0x40 DUP7 ADD DUP3 PUSH2 0x1C23 JUMP JUMPDEST POP DUP1 SWAP2 POP POP SWAP3 SWAP2 POP POP JUMP JUMPDEST PUSH1 0x0 PUSH1 0x60 DUP4 ADD PUSH1 0x0 DUP1 DUP5 ADD SLOAD SWAP1 POP PUSH2 0x1A6B DUP2 PUSH2 0x20C2 JUMP JUMPDEST PUSH2 0x1A78 PUSH1 0x0 DUP8 ADD DUP3 PUSH2 0x1C32 JUMP JUMPDEST POP PUSH1 0x1 DUP5 ADD DUP6 DUP4 SUB PUSH1 0x20 DUP8 ADD MSTORE PUSH2 0x1A8F DUP4 DUP3 PUSH2 0x182B JUMP JUMPDEST SWAP3 POP POP PUSH1 0x2 DUP5 ADD SLOAD SWAP1 POP PUSH2 0x1AA2 DUP2 PUSH2 0x20A8 JUMP JUMPDEST PUSH2 0x1AAF PUSH1 0x40 DUP8 ADD DUP3 PUSH2 0x1C23 JUMP JUMPDEST POP DUP2 SWAP3 POP POP POP SWAP3 SWAP2 POP POP JUMP JUMPDEST PUSH1 0xC0 DUP3 ADD PUSH1 0x0 DUP3 ADD MLOAD PUSH2 0x1AD1 PUSH1 0x0 DUP6 ADD DUP3 PUSH2 0x1798 JUMP JUMPDEST POP PUSH1 0x20 DUP3 ADD MLOAD PUSH2 0x1AE4 PUSH1 0x20 DUP6 ADD DUP3 PUSH2 0x1BEE JUMP JUMPDEST POP PUSH1 0x40 DUP3 ADD MLOAD PUSH2 0x1AF7 PUSH1 0x40 DUP6 ADD DUP3 PUSH2 0x1BEE JUMP JUMPDEST POP PUSH1 0x60 DUP3 ADD MLOAD PUSH2 0x1B0A PUSH1 0x60 DUP6 ADD DUP3 PUSH2 0x1BEE JUMP JUMPDEST POP PUSH1 0x80 DUP3 ADD MLOAD PUSH2 0x1B1D PUSH1 0x80 DUP6 ADD DUP3 PUSH2 0x1C32 JUMP JUMPDEST POP PUSH1 0xA0 DUP3 ADD MLOAD PUSH2 0x1B30 PUSH1 0xA0 DUP6 ADD DUP3 PUSH2 0x1888 JUMP JUMPDEST POP POP POP POP JUMP JUMPDEST PUSH1 0xC0 DUP3 ADD PUSH1 0x0 DUP1 DUP4 ADD SLOAD SWAP1 POP PUSH2 0x1B4B DUP2 PUSH2 0x2074 JUMP JUMPDEST PUSH2 0x1B58 PUSH1 0x0 DUP7 ADD DUP3 PUSH2 0x1798 JUMP JUMPDEST POP PUSH1 0x1 DUP4 ADD SLOAD SWAP1 POP PUSH2 0x1B69 DUP2 PUSH2 0x208E JUMP JUMPDEST PUSH2 0x1B76 PUSH1 0x20 DUP7 ADD DUP3 PUSH2 0x1BEE JUMP JUMPDEST POP PUSH1 0x2 DUP4 ADD SLOAD SWAP1 POP PUSH2 0x1B87 DUP2 PUSH2 0x208E JUMP JUMPDEST PUSH2 0x1B94 PUSH1 0x40 DUP7 ADD DUP3 PUSH2 0x1BEE JUMP JUMPDEST POP PUSH1 0x3 DUP4 ADD SLOAD SWAP1 POP PUSH2 0x1BA5 DUP2 PUSH2 0x208E JUMP JUMPDEST PUSH2 0x1BB2 PUSH1 0x60 DUP7 ADD DUP3 PUSH2 0x1BEE JUMP JUMPDEST POP PUSH1 0x4 DUP4 ADD SLOAD SWAP1 POP PUSH2 0x1BC3 DUP2 PUSH2 0x20C2 JUMP JUMPDEST PUSH2 0x1BD0 PUSH1 0x80 DUP7 ADD DUP3 PUSH2 0x1C32 JUMP JUMPDEST POP PUSH2 0x1BDA DUP2 PUSH2 0x20DC JUMP JUMPDEST PUSH2 0x1BE7 PUSH1 0xA0 DUP7 ADD DUP3 PUSH2 0x1888 JUMP JUMPDEST POP POP POP POP POP JUMP JUMPDEST PUSH2 0x1BF7 DUP2 PUSH2 0x204D JUMP JUMPDEST DUP3 MSTORE POP POP JUMP JUMPDEST PUSH2 0x1C06 DUP2 PUSH2 0x204D JUMP JUMPDEST DUP3 MSTORE POP POP JUMP JUMPDEST PUSH2 0x1C1D PUSH2 0x1C18 DUP3 PUSH2 0x204D JUMP JUMPDEST PUSH2 0x218D JUMP JUMPDEST DUP3 MSTORE POP POP JUMP JUMPDEST PUSH2 0x1C2C DUP2 PUSH2 0x2057 JUMP JUMPDEST DUP3 MSTORE POP POP JUMP JUMPDEST PUSH2 0x1C3B DUP2 PUSH2 0x2067 JUMP JUMPDEST DUP3 MSTORE POP POP JUMP JUMPDEST PUSH2 0x1C4A DUP2 PUSH2 0x2067 JUMP JUMPDEST DUP3 MSTORE POP POP JUMP JUMPDEST PUSH1 0x0 PUSH2 0x1C5C DUP3 DUP8 PUSH2 0x17B6 JUMP JUMPDEST PUSH1 0x14 DUP3 ADD SWAP2 POP PUSH2 0x1C6C DUP3 DUP7 PUSH2 0x1C0C JUMP JUMPDEST PUSH1 0x20 DUP3 ADD SWAP2 POP PUSH2 0x1C7C DUP3 DUP6 PUSH2 0x1C0C JUMP JUMPDEST PUSH1 0x20 DUP3 ADD SWAP2 POP PUSH2 0x1C8C DUP3 DUP5 PUSH2 0x1C0C JUMP JUMPDEST PUSH1 0x20 DUP3 ADD SWAP2 POP DUP2 SWAP1 POP SWAP6 SWAP5 POP POP POP POP POP JUMP JUMPDEST PUSH1 0x0 PUSH1 0xC0 DUP3 ADD SWAP1 POP PUSH2 0x1CB3 PUSH1 0x0 DUP4 ADD DUP10 PUSH2 0x17A7 JUMP JUMPDEST PUSH2 0x1CC0 PUSH1 0x20 DUP4 ADD DUP9 PUSH2 0x1BFD JUMP JUMPDEST PUSH2 0x1CCD PUSH1 0x40 DUP4 ADD DUP8 PUSH2 0x1BFD JUMP JUMPDEST PUSH2 0x1CDA PUSH1 0x60 DUP4 ADD DUP7 PUSH2 0x1BFD JUMP JUMPDEST PUSH2 0x1CE7 PUSH1 0x80 DUP4 ADD DUP6 PUSH2 0x1C41 JUMP JUMPDEST PUSH2 0x1CF4 PUSH1 0xA0 DUP4 ADD DUP5 PUSH2 0x1897 JUMP JUMPDEST SWAP8 SWAP7 POP POP POP POP POP POP POP JUMP JUMPDEST PUSH1 0x0 PUSH1 0x20 DUP3 ADD SWAP1 POP PUSH2 0x1D14 PUSH1 0x0 DUP4 ADD DUP5 PUSH2 0x1897 JUMP JUMPDEST SWAP3 SWAP2 POP POP JUMP JUMPDEST PUSH1 0x0 PUSH1 0x20 DUP3 ADD SWAP1 POP DUP2 DUP2 SUB PUSH1 0x0 DUP4 ADD MSTORE PUSH2 0x1D33 DUP2 PUSH2 0x18C9 JUMP JUMPDEST SWAP1 POP SWAP2 SWAP1 POP JUMP JUMPDEST PUSH1 0x0 PUSH1 0x20 DUP3 ADD SWAP1 POP DUP2 DUP2 SUB PUSH1 0x0 DUP4 ADD MSTORE PUSH2 0x1D53 DUP2 PUSH2 0x18EC JUMP JUMPDEST SWAP1 POP SWAP2 SWAP1 POP JUMP JUMPDEST PUSH1 0x0 PUSH1 0x20 DUP3 ADD SWAP1 POP DUP2 DUP2 SUB PUSH1 0x0 DUP4 ADD MSTORE PUSH2 0x1D73 DUP2 PUSH2 0x1932 JUMP JUMPDEST SWAP1 POP SWAP2 SWAP1 POP JUMP JUMPDEST PUSH1 0x0 PUSH1 0x20 DUP3 ADD SWAP1 POP DUP2 DUP2 SUB PUSH1 0x0 DUP4 ADD MSTORE PUSH2 0x1D93 DUP2 PUSH2 0x1955 JUMP JUMPDEST SWAP1 POP SWAP2 SWAP1 POP JUMP JUMPDEST PUSH1 0x0 PUSH1 0x20 DUP3 ADD SWAP1 POP DUP2 DUP2 SUB PUSH1 0x0 DUP4 ADD MSTORE PUSH2 0x1DB3 DUP2 PUSH2 0x1978 JUMP JUMPDEST SWAP1 POP SWAP2 SWAP1 POP JUMP JUMPDEST PUSH1 0x0 PUSH1 0x20 DUP3 ADD SWAP1 POP DUP2 DUP2 SUB PUSH1 0x0 DUP4 ADD MSTORE PUSH2 0x1DD3 DUP2 PUSH2 0x199B JUMP JUMPDEST SWAP1 POP SWAP2 SWAP1 POP JUMP JUMPDEST PUSH1 0x0 PUSH1 0x40 DUP3 ADD SWAP1 POP DUP2 DUP2 SUB PUSH1 0x0 DUP4 ADD MSTORE PUSH2 0x1DF4 DUP2 DUP5 PUSH2 0x1A04 JUMP JUMPDEST SWAP1 POP DUP2 DUP2 SUB PUSH1 0x20 DUP4 ADD MSTORE PUSH2 0x1E07 DUP2 PUSH2 0x190F JUMP JUMPDEST SWAP1 POP SWAP3 SWAP2 POP POP JUMP JUMPDEST PUSH1 0x0 PUSH1 0x40 DUP3 ADD SWAP1 POP DUP2 DUP2 SUB PUSH1 0x0 DUP4 ADD MSTORE PUSH2 0x1E29 DUP2 DUP5 PUSH2 0x1A04 JUMP JUMPDEST SWAP1 POP DUP2 DUP2 SUB PUSH1 0x20 DUP4 ADD MSTORE PUSH2 0x1E3C DUP2 PUSH2 0x19E1 JUMP JUMPDEST SWAP1 POP SWAP3 SWAP2 POP POP JUMP JUMPDEST PUSH1 0x0 PUSH1 0x40 DUP3 ADD SWAP1 POP DUP2 DUP2 SUB PUSH1 0x0 DUP4 ADD MSTORE PUSH2 0x1E5E DUP2 DUP5 PUSH2 0x1A54 JUMP JUMPDEST SWAP1 POP DUP2 DUP2 SUB PUSH1 0x20 DUP4 ADD MSTORE PUSH2 0x1E71 DUP2 PUSH2 0x18A6 JUMP JUMPDEST SWAP1 POP SWAP3 SWAP2 POP POP JUMP JUMPDEST PUSH1 0x0 PUSH1 0x40 DUP3 ADD SWAP1 POP DUP2 DUP2 SUB PUSH1 0x0 DUP4 ADD MSTORE PUSH2 0x1E93 DUP2 DUP5 PUSH2 0x1A54 JUMP JUMPDEST SWAP1 POP DUP2 DUP2 SUB PUSH1 0x20 DUP4 ADD MSTORE PUSH2 0x1EA6 DUP2 PUSH2 0x19BE JUMP JUMPDEST SWAP1 POP SWAP3 SWAP2 POP POP JUMP JUMPDEST PUSH1 0x0 PUSH1 0x20 DUP3 ADD SWAP1 POP PUSH2 0x1EC3 PUSH1 0x0 DUP4 ADD DUP5 PUSH2 0x1C41 JUMP JUMPDEST SWAP3 SWAP2 POP POP JUMP JUMPDEST PUSH1 0x0 DUP2 SWAP1 POP PUSH1 0x20 DUP3 ADD SWAP1 POP SWAP2 SWAP1 POP JUMP JUMPDEST PUSH1 0x0 DUP2 SWAP1 POP DUP2 PUSH1 0x0 MSTORE PUSH1 0x20 PUSH1 0x0 KECCAK256 SWAP1 POP SWAP2 SWAP1 POP JUMP JUMPDEST PUSH1 0x0 DUP2 MLOAD SWAP1 POP SWAP2 SWAP1 POP JUMP JUMPDEST PUSH1 0x0 DUP2 SLOAD SWAP1 POP SWAP2 SWAP1 POP JUMP JUMPDEST PUSH1 0x0 PUSH1 0x20 DUP3 ADD SWAP1 POP SWAP2 SWAP1 POP JUMP JUMPDEST PUSH1 0x0 PUSH1 0x5 DUP3 ADD SWAP1 POP SWAP2 SWAP1 POP JUMP JUMPDEST PUSH1 0x0 DUP3 DUP3 MSTORE PUSH1 0x20 DUP3 ADD SWAP1 POP SWAP3 SWAP2 POP POP JUMP JUMPDEST PUSH1 0x0 DUP3 DUP3 MSTORE PUSH1 0x20 DUP3 ADD SWAP1 POP SWAP3 SWAP2 POP POP JUMP JUMPDEST PUSH1 0x0 PUSH2 0x1F4B DUP3 PUSH2 0x2057 JUMP JUMPDEST SWAP2 POP PUSH2 0x1F56 DUP4 PUSH2 0x2057 JUMP JUMPDEST SWAP3 POP DUP3 PUSH4 0xFFFFFFFF SUB DUP3 GT ISZERO PUSH2 0x1F6F JUMPI PUSH2 0x1F6E PUSH2 0x2197 JUMP JUMPDEST JUMPDEST DUP3 DUP3 ADD SWAP1 POP SWAP3 SWAP2 POP POP JUMP JUMPDEST PUSH1 0x0 PUSH2 0x1F85 DUP3 PUSH2 0x2067 JUMP JUMPDEST SWAP2 POP PUSH2 0x1F90 DUP4 PUSH2 0x2067 JUMP JUMPDEST SWAP3 POP DUP3 PUSH1 0xFF SUB DUP3 GT ISZERO PUSH2 0x1FA6 JUMPI PUSH2 0x1FA5 PUSH2 0x2197 JUMP JUMPDEST JUMPDEST DUP3 DUP3 ADD SWAP1 POP SWAP3 SWAP2 POP POP JUMP JUMPDEST PUSH1 0x0 PUSH20 0xFFFFFFFFFFFFFFFFFFFFFFFFFFFFFFFFFFFFFFFF DUP3 AND SWAP1 POP SWAP2 SWAP1 POP JUMP JUMPDEST PUSH1 0x0 PUSH1 0xFF DUP3 AND SWAP1 POP SWAP2 SWAP1 POP JUMP JUMPDEST PUSH1 0x0 DUP2 SWAP1 POP SWAP2 SWAP1 POP JUMP JUMPDEST PUSH1 0x0 PUSH4 0xFFFFFFFF DUP3 AND SWAP1 POP SWAP2 SWAP1 POP JUMP JUMPDEST PUSH1 0x0 PUSH1 0xFF DUP3 AND SWAP1 POP SWAP2 SWAP1 POP JUMP JUMPDEST PUSH1 0x0 PUSH2 0x2010 DUP3 PUSH2 0x202D JUMP JUMPDEST SWAP1 POP SWAP2 SWAP1 POP JUMP JUMPDEST PUSH1 0x0 DUP2 ISZERO ISZERO SWAP1 POP SWAP2 SWAP1 POP JUMP JUMPDEST PUSH1 0x0 DUP2 SWAP1 POP SWAP2 SWAP1 POP JUMP JUMPDEST PUSH1 0x0 PUSH20 0xFFFFFFFFFFFFFFFFFFFFFFFFFFFFFFFFFFFFFFFF DUP3 AND SWAP1 POP SWAP2 SWAP1 POP JUMP JUMPDEST PUSH1 0x0 DUP2 SWAP1 POP SWAP2 SWAP1 POP JUMP JUMPDEST PUSH1 0x0 PUSH4 0xFFFFFFFF DUP3 AND SWAP1 POP SWAP2 SWAP1 POP JUMP JUMPDEST PUSH1 0x0 PUSH1 0xFF DUP3 AND SWAP1 POP SWAP2 SWAP1 POP JUMP JUMPDEST PUSH1 0x0 PUSH2 0x2087 PUSH2 0x2082 DUP4 PUSH2 0x2236 JUMP JUMPDEST PUSH2 0x1FB1 JUMP JUMPDEST SWAP1 POP SWAP2 SWAP1 POP JUMP JUMPDEST PUSH1 0x0 PUSH2 0x20A1 PUSH2 0x209C DUP4 PUSH2 0x2236 JUMP JUMPDEST PUSH2 0x1FDE JUMP JUMPDEST SWAP1 POP SWAP2 SWAP1 POP JUMP JUMPDEST PUSH1 0x0 PUSH2 0x20BB PUSH2 0x20B6 DUP4 PUSH2 0x2236 JUMP JUMPDEST PUSH2 0x1FE8 JUMP JUMPDEST SWAP1 POP SWAP2 SWAP1 POP JUMP JUMPDEST PUSH1 0x0 PUSH2 0x20D5 PUSH2 0x20D0 DUP4 PUSH2 0x2236 JUMP JUMPDEST PUSH2 0x1FF8 JUMP JUMPDEST SWAP1 POP SWAP2 SWAP1 POP JUMP JUMPDEST PUSH1 0x0 PUSH2 0x20EF PUSH2 0x20EA DUP4 PUSH2 0x2243 JUMP JUMPDEST PUSH2 0x1FD1 JUMP JUMPDEST SWAP1 POP SWAP2 SWAP1 POP JUMP JUMPDEST PUSH1 0x0 PUSH2 0x2101 DUP3 PUSH2 0x204D JUMP JUMPDEST SWAP2 POP PUSH32 0xFFFFFFFFFFFFFFFFFFFFFFFFFFFFFFFFFFFFFFFFFFFFFFFFFFFFFFFFFFFFFFFF DUP3 EQ ISZERO PUSH2 0x2134 JUMPI PUSH2 0x2133 PUSH2 0x2197 JUMP JUMPDEST JUMPDEST PUSH1 0x1 DUP3 ADD SWAP1 POP SWAP2 SWAP1 POP JUMP JUMPDEST PUSH1 0x0 PUSH2 0x214A DUP3 PUSH2 0x2067 JUMP JUMPDEST SWAP2 POP PUSH1 0xFF DUP3 EQ ISZERO PUSH2 0x215E JUMPI PUSH2 0x215D PUSH2 0x2197 JUMP JUMPDEST JUMPDEST PUSH1 0x1 DUP3 ADD SWAP1 POP SWAP2 SWAP1 POP JUMP JUMPDEST PUSH1 0x0 PUSH2 0x2174 DUP3 PUSH2 0x217B JUMP JUMPDEST SWAP1 POP SWAP2 SWAP1 POP JUMP JUMPDEST PUSH1 0x0 PUSH2 0x2186 DUP3 PUSH2 0x2229 JUMP JUMPDEST SWAP1 POP SWAP2 SWAP1 POP JUMP JUMPDEST PUSH1 0x0 DUP2 SWAP1 POP SWAP2 SWAP1 POP JUMP JUMPDEST PUSH32 0x4E487B7100000000000000000000000000000000000000000000000000000000 PUSH1 0x0 MSTORE PUSH1 0x11 PUSH1 0x4 MSTORE PUSH1 0x24 PUSH1 0x0 REVERT JUMPDEST PUSH32 0x4E487B7100000000000000000000000000000000000000000000000000000000 PUSH1 0x0 MSTORE PUSH1 0x32 PUSH1 0x4 MSTORE PUSH1 0x24 PUSH1 0x0 REVERT JUMPDEST PUSH32 0x4E487B7100000000000000000000000000000000000000000000000000000000 PUSH1 0x0 MSTORE PUSH1 0x41 PUSH1 0x4 MSTORE PUSH1 0x24 PUSH1 0x0 REVERT JUMPDEST PUSH1 0x0 DUP1 REVERT JUMPDEST PUSH1 0x0 DUP2 PUSH1 0x60 SHL SWAP1 POP SWAP2 SWAP1 POP JUMP JUMPDEST PUSH1 0x0 DUP2 PUSH1 0x0 SHR SWAP1 POP SWAP2 SWAP1 POP JUMP JUMPDEST PUSH1 0x0 DUP2 PUSH1 0x8 SHR SWAP1 POP SWAP2 SWAP1 POP JUMP JUMPDEST PUSH32 0x4465636973696F6E206D616B696E672077617320612073756363657373000000 PUSH1 0x0 DUP3 ADD MSTORE POP JUMP JUMPDEST PUSH32 0x617267756D656E746174696F6E2066696E697368656400000000000000000000 PUSH1 0x0 DUP3 ADD MSTORE POP JUMP JUMPDEST PUSH32 0x63616C6C696E6720617267756D656E746174696F6E0000000000000000000000 PUSH1 0x0 DUP3 ADD MSTORE POP JUMP JUMPDEST PUSH32 0x4E6F2077696E6E657220666F72207468697320726F756E640000000000000000 PUSH1 0x0 DUP3 ADD MSTORE POP JUMP JUMPDEST PUSH32 0x546865206E756D626572206F6620617267756D656E74732063616E6E6F742065 PUSH1 0x0 DUP3 ADD MSTORE PUSH32 0x786365656420746865206669786564207468726573686F6C6400000000000000 PUSH1 0x20 DUP3 ADD MSTORE POP JUMP JUMPDEST PUSH32 0x66696E616C20617267756D656E746174696F6E2066696E697368656400000000 PUSH1 0x0 DUP3 ADD MSTORE POP JUMP JUMPDEST PUSH32 0x417267756D656E74206164646564000000000000000000000000000000000000 PUSH1 0x0 DUP3 ADD MSTORE POP JUMP JUMPDEST PUSH32 0x4F6E6C792061206E6F6465207468617420686173206E6F7420617267756D656E PUSH1 0x0 DUP3 ADD MSTORE PUSH32 0x746564207965742C2063616E2061646420616E20617267756D656E7400000000 PUSH1 0x20 DUP3 ADD MSTORE POP JUMP JUMPDEST PUSH32 0x66696E616C204465636973696F6E206D616B696E672077617320612073756363 PUSH1 0x0 DUP3 ADD MSTORE PUSH32 0x6573730000000000000000000000000000000000000000000000000000000000 PUSH1 0x20 DUP3 ADD MSTORE POP JUMP JUMPDEST PUSH32 0x4E2F410000000000000000000000000000000000000000000000000000000000 PUSH1 0x0 DUP3 ADD MSTORE POP JUMP JUMPDEST PUSH2 0x2465 DUP2 PUSH2 0x2005 JUMP JUMPDEST DUP2 EQ PUSH2 0x2470 JUMPI PUSH1 0x0 DUP1 REVERT JUMPDEST POP JUMP JUMPDEST PUSH2 0x247C DUP2 PUSH2 0x2023 JUMP JUMPDEST DUP2 EQ PUSH2 0x2487 JUMPI PUSH1 0x0 DUP1 REVERT JUMPDEST POP JUMP JUMPDEST PUSH2 0x2493 DUP2 PUSH2 0x204D JUMP JUMPDEST DUP2 EQ PUSH2 0x249E JUMPI PUSH1 0x0 DUP1 REVERT JUMPDEST POP JUMP JUMPDEST PUSH2 0x24AA DUP2 PUSH2 0x2067 JUMP JUMPDEST DUP2 EQ PUSH2 0x24B5 JUMPI PUSH1 0x0 DUP1 REVERT JUMPDEST POP JUMP INVALID LOG2 PUSH5 0x6970667358 0x22 SLT KECCAK256 SWAP14 0xE5 EXTCODEHASH EXTCODESIZE DUP9 0xAD 0x2C 0xB2 0xC4 DELEGATECALL SWAP13 PUSH26 0x283184D163CC3D48491C1BF3704C4776454B18FD64736F6C6343 STOP ADDMOD SMOD STOP CALLER "
		},
		"gasEstimates": {
			"creation": {
				"codeDepositCost": "1890800",
				"executionCost": "infinite",
				"totalCost": "infinite"
			},
			"external": {
				"IDS_current_nbr()": "2543",
				"IDS_threshold()": "2516",
				"addArgument(uint256,uint256,uint256,uint8)": "infinite",
				"arg_indexing_alert(bytes32)": "infinite",
				"args_final_nbr()": "2521",
				"argumentor_adresses(address)": "2911",
				"current_arg_calls_nbr()": "2522",
				"newArgumentor(address)": "2924"
			},
			"internal": {
				"addArgumentor(address)": "48593",
				"addToAlertIDLlIndex(bytes32,mapping(bytes32 => bytes32))": "51015",
				"addToClusteringLlIndex(uint8,mapping(uint8 => uint8))": "55465",
				"computeFinalWinner()": "infinite",
				"computeWinner(struct Argumentation.ArgumentSet memory[] memory)": "infinite",
				"doArgumentation()": "infinite",
				"resetArgumentationParams()": "infinite",
				"validateArgument(struct Argumentation.Argument storage pointer)": "37141"
			}
		},
		"methodIdentifiers": {
			"IDS_current_nbr()": "7464a92d",
			"IDS_threshold()": "1ef3409e",
			"addArgument(uint256,uint256,uint256,uint8)": "ebacfed4",
			"arg_indexing_alert(bytes32)": "62213a82",
			"args_final_nbr()": "6b5d7f03",
			"argumentor_adresses(address)": "f84dabb7",
			"current_arg_calls_nbr()": "0671f57d",
			"newArgumentor(address)": "1194d603"
		}
	},
	"abi": [
		{
			"inputs": [
				{
					"internalType": "uint8",
					"name": "IDS_number",
					"type": "uint8"
				},
				{
					"internalType": "uint8",
					"name": "args_threshold",
					"type": "uint8"
				}
			],
			"stateMutability": "nonpayable",
			"type": "constructor"
		},
		{
			"anonymous": false,
			"inputs": [
				{
					"components": [
						{
							"internalType": "uint8",
							"name": "_cluster_id",
							"type": "uint8"
						},
						{
							"components": [
								{
									"internalType": "address",
									"name": "argumentor",
									"type": "address"
								},
								{
									"internalType": "uint256",
									"name": "_flowDuration",
									"type": "uint256"
								},
								{
									"internalType": "uint256",
									"name": "_idleMean",
									"type": "uint256"
								},
								{
									"internalType": "uint256",
									"name": "_label",
									"type": "uint256"
								},
								{
									"internalType": "uint8",
									"name": "_cluster_id",
									"type": "uint8"
								},
								{
									"internalType": "bool",
									"name": "valid",
									"type": "bool"
								}
							],
							"internalType": "struct Argumentation.Argument[]",
							"name": "arguments",
							"type": "tuple[]"
						},
						{
							"internalType": "uint32",
							"name": "weight",
							"type": "uint32"
						}
					],
					"indexed": false,
					"internalType": "struct Argumentation.ArgumentSet",
					"name": "argumentSet",
					"type": "tuple"
				},
				{
					"indexed": false,
					"internalType": "string",
					"name": "message",
					"type": "string"
				}
			],
			"name": "decision_result",
			"type": "event"
		},
		{
			"anonymous": false,
			"inputs": [
				{
					"components": [
						{
							"internalType": "uint8",
							"name": "_cluster_id",
							"type": "uint8"
						},
						{
							"components": [
								{
									"internalType": "address",
									"name": "argumentor",
									"type": "address"
								},
								{
									"internalType": "uint256",
									"name": "_flowDuration",
									"type": "uint256"
								},
								{
									"internalType": "uint256",
									"name": "_idleMean",
									"type": "uint256"
								},
								{
									"internalType": "uint256",
									"name": "_label",
									"type": "uint256"
								},
								{
									"internalType": "uint8",
									"name": "_cluster_id",
									"type": "uint8"
								},
								{
									"internalType": "bool",
									"name": "valid",
									"type": "bool"
								}
							],
							"internalType": "struct Argumentation.Argument[]",
							"name": "arguments",
							"type": "tuple[]"
						},
						{
							"internalType": "uint32",
							"name": "weight",
							"type": "uint32"
						}
					],
					"indexed": false,
					"internalType": "struct Argumentation.ArgumentSet",
					"name": "argumentSet",
					"type": "tuple"
				},
				{
					"indexed": false,
					"internalType": "string",
					"name": "message",
					"type": "string"
				}
			],
			"name": "final_decision_result",
			"type": "event"
		},
		{
			"anonymous": false,
			"inputs": [
				{
					"indexed": false,
					"internalType": "string",
					"name": "message",
					"type": "string"
				}
			],
			"name": "logging",
			"type": "event"
		},
		{
			"inputs": [],
			"name": "IDS_current_nbr",
			"outputs": [
				{
					"internalType": "uint8",
					"name": "",
					"type": "uint8"
				}
			],
			"stateMutability": "view",
			"type": "function"
		},
		{
			"inputs": [],
			"name": "IDS_threshold",
			"outputs": [
				{
					"internalType": "uint8",
					"name": "",
					"type": "uint8"
				}
			],
			"stateMutability": "view",
			"type": "function"
		},
		{
			"inputs": [
				{
					"internalType": "uint256",
					"name": "flowDuration",
					"type": "uint256"
				},
				{
					"internalType": "uint256",
					"name": "idleMean",
					"type": "uint256"
				},
				{
					"internalType": "uint256",
					"name": "label",
					"type": "uint256"
				},
				{
					"internalType": "uint8",
					"name": "cluster_id",
					"type": "uint8"
				}
			],
			"name": "addArgument",
			"outputs": [],
			"stateMutability": "nonpayable",
			"type": "function"
		},
		{
			"inputs": [
				{
					"internalType": "bytes32",
					"name": "",
					"type": "bytes32"
				}
			],
			"name": "arg_indexing_alert",
			"outputs": [
				{
					"internalType": "address",
					"name": "argumentor",
					"type": "address"
				},
				{
					"internalType": "uint256",
					"name": "_flowDuration",
					"type": "uint256"
				},
				{
					"internalType": "uint256",
					"name": "_idleMean",
					"type": "uint256"
				},
				{
					"internalType": "uint256",
					"name": "_label",
					"type": "uint256"
				},
				{
					"internalType": "uint8",
					"name": "_cluster_id",
					"type": "uint8"
				},
				{
					"internalType": "bool",
					"name": "valid",
					"type": "bool"
				}
			],
			"stateMutability": "view",
			"type": "function"
		},
		{
			"inputs": [],
			"name": "args_final_nbr",
			"outputs": [
				{
					"internalType": "uint8",
					"name": "",
					"type": "uint8"
				}
			],
			"stateMutability": "view",
			"type": "function"
		},
		{
			"inputs": [
				{
					"internalType": "address",
					"name": "",
					"type": "address"
				}
			],
			"name": "argumentor_adresses",
			"outputs": [
				{
					"internalType": "bool",
					"name": "",
					"type": "bool"
				}
			],
			"stateMutability": "view",
			"type": "function"
		},
		{
			"inputs": [],
			"name": "current_arg_calls_nbr",
			"outputs": [
				{
					"internalType": "uint8",
					"name": "",
					"type": "uint8"
				}
			],
			"stateMutability": "view",
			"type": "function"
		},
		{
			"inputs": [
				{
					"internalType": "address",
					"name": "sender",
					"type": "address"
				}
			],
			"name": "newArgumentor",
			"outputs": [
				{
					"internalType": "bool",
					"name": "newArgumentor_",
					"type": "bool"
				}
			],
			"stateMutability": "view",
			"type": "function"
		}
	]
}