{
	"data": {
		"bytecode": {
			"linkReferences": {},
			"object": "60806040523480156200001157600080fd5b506040516200201b3803806200201b8339818101604052810190620000379190620000c4565b80600460036101000a81548160ff021916908360ff16021790555081600460006101000a81548160ff021916908360ff1602179055506000600460026101000a81548160ff021916908360ff1602179055506000600460016101000a81548160ff021916908360ff160217905550505062000137565b600081519050620000be816200011d565b92915050565b60008060408385031215620000de57620000dd62000118565b5b6000620000ee85828601620000ad565b92505060206200010185828601620000ad565b9150509250929050565b600060ff82169050919050565b600080fd5b62000128816200010b565b81146200013457600080fd5b50565b611ed480620001476000396000f3fe608060405234801561001057600080fd5b50600436106100885760003560e01c80637464a92d1161005b5780637464a92d14610117578063ad318f4d14610135578063ebacfed414610166578063f84dabb71461018257610088565b80630671f57d1461008d5780631194d603146100ab5780631ef3409e146100db5780636b5d7f03146100f9575b600080fd5b6100956101b2565b6040516100a2919061192d565b60405180910390f35b6100c560048036038101906100c0919061123d565b6101c5565b6040516100d291906117bc565b60405180910390f35b6100e3610221565b6040516100f0919061192d565b60405180910390f35b610101610234565b60405161010e919061192d565b60405180910390f35b61011f610247565b60405161012c919061192d565b60405180910390f35b61014f600480360381019061014a91906112d1565b61025a565b60405161015d929190611948565b60405180910390f35b610180600480360381019061017b919061126a565b61029b565b005b61019c6004803603810190610197919061123d565b6107cb565b6040516101a991906117bc565b60405180910390f35b600460029054906101000a900460ff1681565b6000801515600360008473ffffffffffffffffffffffffffffffffffffffff1673ffffffffffffffffffffffffffffffffffffffff16815260200190815260200160002060009054906101000a900460ff161515149050919050565b600460009054906101000a900460ff1681565b600460039054906101000a900460ff1681565b600460019054906101000a900460ff1681565b60056020528060005260406000206000915090508060000160009054906101000a900460ff16908060020160009054906101000a900463ffffffff16905082565b6102a4336101c5565b6102e3576040517f08c379a00000000000000000000000000000000000000000000000000000000081526004016102da90611839565b60405180910390fd5b600460009054906101000a900460ff1660ff16600460019054906101000a900460ff1660ff1610610349576040517f08c379a0000000000000000000000000000000000000000000000000000000008152600401610340906117f9565b60405180910390fd5b610352336107eb565b6001600460019054906101000a900460ff1661036e9190611a2d565b600460016101000a81548160ff021916908360ff160217905550610390611183565b33816000019073ffffffffffffffffffffffffffffffffffffffff16908173ffffffffffffffffffffffffffffffffffffffff168152505084816020018181525050838160400181815250508281606001818152505081816080019060ff16908160ff168152505060018160a001901515908115158152505061041281610851565b6000600460029054906101000a900460ff16826080015160405160200161043a929190611790565b60405160208183030381529060405280519060200120905060008082815260200190815260200160002060010182908060018154018082558091505060019003906000526020600020906005020160009091909190915060008201518160000160006101000a81548173ffffffffffffffffffffffffffffffffffffffff021916908373ffffffffffffffffffffffffffffffffffffffff16021790555060208201518160010155604082015181600201556060820151816003015560808201518160040160006101000a81548160ff021916908360ff16021790555060a08201518160040160016101000a81548160ff02191690831515021790555050508260008083815260200190815260200160002060000160006101000a81548160ff021916908360ff1602179055506105728160016108dd565b6001600360003373ffffffffffffffffffffffffffffffffffffffff1673ffffffffffffffffffffffffffffffffffffffff16815260200190815260200160002060006101000a81548160ff0219169083151502179055507f8d6661e0d5915a0819a638b972e4819397f8b7b61f7474d495387868db7ae69b6040516105f790611819565b60405180910390a1600460009054906101000a900460ff1660ff16600460019054906101000a900460ff1660ff1614156107c357610633610964565b6001600460029054906101000a900460ff1661064f9190611a2d565b600460026101000a81548160ff021916908360ff160217905550600460039054906101000a900460ff1660ff16600460029054906101000a900460ff1660ff1614156107ba57600061069f610d6c565b90506001600560008360ff1660ff16815260200190815260200160002060020160009054906101000a900463ffffffff1663ffffffff161461072f577f86f0b3193e6e024d746f8179b0e69f8e2f9429ff08e174fbc18370bdf9ba8600600560008360ff1660ff16815260200190815260200160002060405161072291906118f8565b60405180910390a161079c565b6107376111d4565b6000816040019063ffffffff16908163ffffffff16815250506000816000019060ff16908160ff16815250507f86f0b3193e6e024d746f8179b0e69f8e2f9429ff08e174fbc18370bdf9ba860081604051610792919061188e565b60405180910390a1505b6000600460026101000a81548160ff021916908360ff160217905550505b6107c2610ea7565b5b505050505050565b60036020528060005260406000206000915054906101000a900460ff1681565b6002819080600181540180825580915050600190039060005260206000200160009091909190916101000a81548173ffffffffffffffffffffffffffffffffffffffff021916908373ffffffffffffffffffffffffffffffffffffffff16021790555050565b629896808160400151108061086c5750629896808160200151105b801561087c575060018160600151145b156108975760008160a00190151590811515815250506108da565b62989680816040015111806108b25750629896808160200151115b80156108c2575060008160600151145b156108d95760008160a00190151590811515815250505b5b50565b8060008060001b81526020019081526020016000205482148061091557506000801b8160008481526020019081526020016000205414155b610960578060008060001b81526020019081526020016000205481600084815260200190815260200160002081905550818160008060001b8152602001908152602001600020819055505b5050565b6000600160008060001b815260200190815260200160002054905060008190505b6000801b8214610a335760008082815260200190815260200160002060010180549050600080848152602001908152602001600020600101805490501115610a18576000808381526020019081526020016000206001016000815481106109ef576109ee611c5c565b5b906000526020600020906005020160040160019054906101000a900460ff1615610a17578190505b5b60016000838152602001908152602001600020549150610985565b610a716040518060400160405280601681526020017f617267756d656e746174696f6e2066696e697368656400000000000000000000815250610fd8565b60016000808381526020019081526020016000206001018054905014610cfb5760016005600080600085815260200190815260200160002060000160009054906101000a900460ff1660ff1660ff16815260200190815260200160002060020160009054906101000a900463ffffffff1663ffffffff1610610ba95760016005600080600085815260200190815260200160002060000160009054906101000a900460ff1660ff1660ff16815260200190815260200160002060020160009054906101000a900463ffffffff16610b4891906119f3565b6005600080600085815260200190815260200160002060000160009054906101000a900460ff1660ff1660ff16815260200190815260200160002060020160006101000a81548163ffffffff021916908363ffffffff160217905550610cae565b60016005600080600085815260200190815260200160002060000160009054906101000a900460ff1660ff1660ff16815260200190815260200160002060020160006101000a81548163ffffffff021916908363ffffffff160217905550610c3460008083815260200190815260200160002060000160009054906101000a900460ff166006611071565b60008082815260200190815260200160002060000160009054906101000a900460ff166005600080600085815260200190815260200160002060000160009054906101000a900460ff1660ff1660ff16815260200190815260200160002060000160006101000a81548160ff021916908360ff1602179055505b7f47369145e9251a49f62452ccf793501933d2183b10ae1492318166f709511212600080838152602001908152602001600020604051610cee91906118c3565b60405180910390a1610d68565b610d036111d4565b6000816040019063ffffffff16908163ffffffff16815250506000816000019060ff16908160ff16815250507f47369145e9251a49f62452ccf793501933d2183b10ae1492318166f70951121281604051610d5e9190611859565b60405180910390a1505b5050565b600080600660008060ff16815260200190815260200160002060009054906101000a900460ff169050600660008060ff16815260200190815260200160002060009054906101000a900460ff1691505b60008160ff1614610e6557600560008360ff1660ff16815260200190815260200160002060020160009054906101000a900463ffffffff1663ffffffff16600560008360ff1660ff16815260200190815260200160002060020160009054906101000a900463ffffffff1663ffffffff161115610e37578091505b600660008260ff1660ff16815260200190815260200160002060009054906101000a900460ff169050610dbc565b610ea36040518060400160405280601681526020017f617267756d656e746174696f6e2066696e697368656400000000000000000000815250610fd8565b5090565b6000600460016101000a81548160ff021916908360ff16021790555060005b600280549050811015610f7c5760006003600060028481548110610eed57610eec611c5c565b5b9060005260206000200160009054906101000a900473ffffffffffffffffffffffffffffffffffffffff1673ffffffffffffffffffffffffffffffffffffffff1673ffffffffffffffffffffffffffffffffffffffff16815260200190815260200160002060006101000a81548160ff0219169083151502179055508080610f7490611bd2565b915050610ec6565b506000600160008060001b81526020019081526020016000205490505b6000801b8114610fd557600160008281526020019081526020016000206000905560016000828152602001908152602001600020549050610f99565b50565b61106e81604051602401610fec91906117d7565b6040516020818303038152906040527f41304fac000000000000000000000000000000000000000000000000000000007bffffffffffffffffffffffffffffffffffffffffffffffffffffffff19166020820180517bffffffffffffffffffffffffffffffffffffffffffffffffffffffff838183161783525050505061115a565b50565b8060008060ff16815260200190815260200160002060009054906101000a900460ff1660ff168260ff1614806110d0575060008160008460ff1660ff16815260200190815260200160002060009054906101000a900460ff1660ff1614155b611156578060008060ff16815260200190815260200160002060009054906101000a900460ff168160008460ff1660ff16815260200190815260200160002060006101000a81548160ff021916908360ff160217905550818160008060ff16815260200190815260200160002060006101000a81548160ff021916908360ff1602179055505b5050565b60008151905060006a636f6e736f6c652e6c6f679050602083016000808483855afa5050505050565b6040518060c00160405280600073ffffffffffffffffffffffffffffffffffffffff168152602001600081526020016000815260200160008152602001600060ff1681526020016000151581525090565b6040518060600160405280600060ff16815260200160608152602001600063ffffffff1681525090565b60008135905061120d81611e59565b92915050565b60008135905061122281611e70565b92915050565b60008135905061123781611e87565b92915050565b60006020828403121561125357611252611c8b565b5b6000611261848285016111fe565b91505092915050565b6000806000806080858703121561128457611283611c8b565b5b600061129287828801611213565b94505060206112a387828801611213565b93505060406112b487828801611213565b92505060606112c587828801611228565b91505092959194509250565b6000602082840312156112e7576112e6611c8b565b5b60006112f584828501611228565b91505092915050565b600061130a83836115fb565b60c08301905092915050565b60006113228383611676565b60c08301905092915050565b61133781611ab8565b82525050565b600061134882611996565b61135281856119d1565b935061135d83611971565b8060005b8381101561138e57815161137588826112fe565b9750611380836119b7565b925050600181019050611361565b5085935050505092915050565b60006113a6826119a1565b6113b081856119d1565b93506113bb83611981565b8060005b838110156113eb57816113d28882611316565b97506113dd836119c4565b9250506001810190506113bf565b5085935050505092915050565b61140181611aca565b82525050565b61141081611aca565b82525050565b6000611421826119ac565b61142b81856119e2565b935061143b818560208601611b1d565b61144481611c90565b840191505092915050565b600061145c601d836119e2565b915061146782611cc8565b602082019050919050565b600061147f6018836119e2565b915061148a82611cf1565b602082019050919050565b60006114a26039836119e2565b91506114ad82611d1a565b604082019050919050565b60006114c5600e836119e2565b91506114d082611d69565b602082019050919050565b60006114e8603c836119e2565b91506114f382611d92565b604082019050919050565b600061150b6023836119e2565b915061151682611de1565b604082019050919050565b600061152e6003836119e2565b915061153982611e30565b602082019050919050565b600060608301600083015161155c600086018261175b565b5060208301518482036020860152611574828261133d565b9150506040830151611589604086018261173d565b508091505092915050565b60006060830160008084015490506115ab81611b9e565b6115b8600087018261175b565b506001840185830360208701526115cf838261139b565b925050600284015490506115e281611b84565b6115ef604087018261173d565b50819250505092915050565b60c082016000820151611611600085018261132e565b506020820151611624602085018261172e565b506040820151611637604085018261172e565b50606082015161164a606085018261172e565b50608082015161165d608085018261175b565b5060a082015161167060a08501826113f8565b50505050565b60c08201600080830154905061168b81611b50565b611698600086018261132e565b50600183015490506116a981611b6a565b6116b6602086018261172e565b50600283015490506116c781611b6a565b6116d4604086018261172e565b50600383015490506116e581611b6a565b6116f2606086018261172e565b506004830154905061170381611b9e565b611710608086018261175b565b5061171a81611bb8565b61172760a08601826113f8565b5050505050565b61173781611af6565b82525050565b61174681611b00565b82525050565b61175581611b00565b82525050565b61176481611b10565b82525050565b61177381611b10565b82525050565b61178a61178582611b10565b611c1b565b82525050565b600061179c8285611779565b6001820191506117ac8284611779565b6001820191508190509392505050565b60006020820190506117d16000830184611407565b92915050565b600060208201905081810360008301526117f18184611416565b905092915050565b6000602082019050818103600083015261181281611495565b9050919050565b60006020820190508181036000830152611832816114b8565b9050919050565b60006020820190508181036000830152611852816114db565b9050919050565b600060408201905081810360008301526118738184611544565b9050818103602083015261188681611472565b905092915050565b600060408201905081810360008301526118a88184611544565b905081810360208301526118bb81611521565b905092915050565b600060408201905081810360008301526118dd8184611594565b905081810360208301526118f08161144f565b905092915050565b600060408201905081810360008301526119128184611594565b90508181036020830152611925816114fe565b905092915050565b6000602082019050611942600083018461176a565b92915050565b600060408201905061195d600083018561176a565b61196a602083018461174c565b9392505050565b6000819050602082019050919050565b60008190508160005260206000209050919050565b600081519050919050565b600081549050919050565b600081519050919050565b6000602082019050919050565b6000600582019050919050565b600082825260208201905092915050565b600082825260208201905092915050565b60006119fe82611b00565b9150611a0983611b00565b92508263ffffffff03821115611a2257611a21611c2d565b5b828201905092915050565b6000611a3882611b10565b9150611a4383611b10565b92508260ff03821115611a5957611a58611c2d565b5b828201905092915050565b600073ffffffffffffffffffffffffffffffffffffffff82169050919050565b600060ff82169050919050565b6000819050919050565b600063ffffffff82169050919050565b600060ff82169050919050565b6000611ac382611ad6565b9050919050565b60008115159050919050565b600073ffffffffffffffffffffffffffffffffffffffff82169050919050565b6000819050919050565b600063ffffffff82169050919050565b600060ff82169050919050565b60005b83811015611b3b578082015181840152602081019050611b20565b83811115611b4a576000848401525b50505050565b6000611b63611b5e83611cae565b611a64565b9050919050565b6000611b7d611b7883611cae565b611a91565b9050919050565b6000611b97611b9283611cae565b611a9b565b9050919050565b6000611bb1611bac83611cae565b611aab565b9050919050565b6000611bcb611bc683611cbb565b611a84565b9050919050565b6000611bdd82611af6565b91507fffffffffffffffffffffffffffffffffffffffffffffffffffffffffffffffff821415611c1057611c0f611c2d565b5b600182019050919050565b6000611c2682611ca1565b9050919050565b7f4e487b7100000000000000000000000000000000000000000000000000000000600052601160045260246000fd5b7f4e487b7100000000000000000000000000000000000000000000000000000000600052603260045260246000fd5b600080fd5b6000601f19601f8301169050919050565b60008160f81b9050919050565b60008160001c9050919050565b60008160081c9050919050565b7f4465636973696f6e206d616b696e672077617320612073756363657373000000600082015250565b7f4e6f2077696e6e657220666f72207468697320726f756e640000000000000000600082015250565b7f546865206e756d626572206f6620617267756d656e74732063616e6e6f74206560008201527f786365656420746865206669786564207468726573686f6c6400000000000000602082015250565b7f417267756d656e74206164646564000000000000000000000000000000000000600082015250565b7f4f6e6c792061206e6f6465207468617420686173206e6f7420617267756d656e60008201527f746564207965742c2063616e2061646420616e20617267756d656e7400000000602082015250565b7f66696e616c204465636973696f6e206d616b696e67207761732061207375636360008201527f6573730000000000000000000000000000000000000000000000000000000000602082015250565b7f4e2f410000000000000000000000000000000000000000000000000000000000600082015250565b611e6281611ab8565b8114611e6d57600080fd5b50565b611e7981611af6565b8114611e8457600080fd5b50565b611e9081611b10565b8114611e9b57600080fd5b5056fea2646970667358221220c7d09a07eb56f4fbbfd1c073ae099cc2ee5caaa03b885770543089a2724ba50e64736f6c63430008070033",
			"opcodes": "PUSH1 0x80 PUSH1 0x40 MSTORE CALLVALUE DUP1 ISZERO PUSH3 0x11 JUMPI PUSH1 0x0 DUP1 REVERT JUMPDEST POP PUSH1 0x40 MLOAD PUSH3 0x201B CODESIZE SUB DUP1 PUSH3 0x201B DUP4 CODECOPY DUP2 DUP2 ADD PUSH1 0x40 MSTORE DUP2 ADD SWAP1 PUSH3 0x37 SWAP2 SWAP1 PUSH3 0xC4 JUMP JUMPDEST DUP1 PUSH1 0x4 PUSH1 0x3 PUSH2 0x100 EXP DUP2 SLOAD DUP2 PUSH1 0xFF MUL NOT AND SWAP1 DUP4 PUSH1 0xFF AND MUL OR SWAP1 SSTORE POP DUP2 PUSH1 0x4 PUSH1 0x0 PUSH2 0x100 EXP DUP2 SLOAD DUP2 PUSH1 0xFF MUL NOT AND SWAP1 DUP4 PUSH1 0xFF AND MUL OR SWAP1 SSTORE POP PUSH1 0x0 PUSH1 0x4 PUSH1 0x2 PUSH2 0x100 EXP DUP2 SLOAD DUP2 PUSH1 0xFF MUL NOT AND SWAP1 DUP4 PUSH1 0xFF AND MUL OR SWAP1 SSTORE POP PUSH1 0x0 PUSH1 0x4 PUSH1 0x1 PUSH2 0x100 EXP DUP2 SLOAD DUP2 PUSH1 0xFF MUL NOT AND SWAP1 DUP4 PUSH1 0xFF AND MUL OR SWAP1 SSTORE POP POP POP PUSH3 0x137 JUMP JUMPDEST PUSH1 0x0 DUP2 MLOAD SWAP1 POP PUSH3 0xBE DUP2 PUSH3 0x11D JUMP JUMPDEST SWAP3 SWAP2 POP POP JUMP JUMPDEST PUSH1 0x0 DUP1 PUSH1 0x40 DUP4 DUP6 SUB SLT ISZERO PUSH3 0xDE JUMPI PUSH3 0xDD PUSH3 0x118 JUMP JUMPDEST JUMPDEST PUSH1 0x0 PUSH3 0xEE DUP6 DUP3 DUP7 ADD PUSH3 0xAD JUMP JUMPDEST SWAP3 POP POP PUSH1 0x20 PUSH3 0x101 DUP6 DUP3 DUP7 ADD PUSH3 0xAD JUMP JUMPDEST SWAP2 POP POP SWAP3 POP SWAP3 SWAP1 POP JUMP JUMPDEST PUSH1 0x0 PUSH1 0xFF DUP3 AND SWAP1 POP SWAP2 SWAP1 POP JUMP JUMPDEST PUSH1 0x0 DUP1 REVERT JUMPDEST PUSH3 0x128 DUP2 PUSH3 0x10B JUMP JUMPDEST DUP2 EQ PUSH3 0x134 JUMPI PUSH1 0x0 DUP1 REVERT JUMPDEST POP JUMP JUMPDEST PUSH2 0x1ED4 DUP1 PUSH3 0x147 PUSH1 0x0 CODECOPY PUSH1 0x0 RETURN INVALID PUSH1 0x80 PUSH1 0x40 MSTORE CALLVALUE DUP1 ISZERO PUSH2 0x10 JUMPI PUSH1 0x0 DUP1 REVERT JUMPDEST POP PUSH1 0x4 CALLDATASIZE LT PUSH2 0x88 JUMPI PUSH1 0x0 CALLDATALOAD PUSH1 0xE0 SHR DUP1 PUSH4 0x7464A92D GT PUSH2 0x5B JUMPI DUP1 PUSH4 0x7464A92D EQ PUSH2 0x117 JUMPI DUP1 PUSH4 0xAD318F4D EQ PUSH2 0x135 JUMPI DUP1 PUSH4 0xEBACFED4 EQ PUSH2 0x166 JUMPI DUP1 PUSH4 0xF84DABB7 EQ PUSH2 0x182 JUMPI PUSH2 0x88 JUMP JUMPDEST DUP1 PUSH4 0x671F57D EQ PUSH2 0x8D JUMPI DUP1 PUSH4 0x1194D603 EQ PUSH2 0xAB JUMPI DUP1 PUSH4 0x1EF3409E EQ PUSH2 0xDB JUMPI DUP1 PUSH4 0x6B5D7F03 EQ PUSH2 0xF9 JUMPI JUMPDEST PUSH1 0x0 DUP1 REVERT JUMPDEST PUSH2 0x95 PUSH2 0x1B2 JUMP JUMPDEST PUSH1 0x40 MLOAD PUSH2 0xA2 SWAP2 SWAP1 PUSH2 0x192D JUMP JUMPDEST PUSH1 0x40 MLOAD DUP1 SWAP2 SUB SWAP1 RETURN JUMPDEST PUSH2 0xC5 PUSH1 0x4 DUP1 CALLDATASIZE SUB DUP2 ADD SWAP1 PUSH2 0xC0 SWAP2 SWAP1 PUSH2 0x123D JUMP JUMPDEST PUSH2 0x1C5 JUMP JUMPDEST PUSH1 0x40 MLOAD PUSH2 0xD2 SWAP2 SWAP1 PUSH2 0x17BC JUMP JUMPDEST PUSH1 0x40 MLOAD DUP1 SWAP2 SUB SWAP1 RETURN JUMPDEST PUSH2 0xE3 PUSH2 0x221 JUMP JUMPDEST PUSH1 0x40 MLOAD PUSH2 0xF0 SWAP2 SWAP1 PUSH2 0x192D JUMP JUMPDEST PUSH1 0x40 MLOAD DUP1 SWAP2 SUB SWAP1 RETURN JUMPDEST PUSH2 0x101 PUSH2 0x234 JUMP JUMPDEST PUSH1 0x40 MLOAD PUSH2 0x10E SWAP2 SWAP1 PUSH2 0x192D JUMP JUMPDEST PUSH1 0x40 MLOAD DUP1 SWAP2 SUB SWAP1 RETURN JUMPDEST PUSH2 0x11F PUSH2 0x247 JUMP JUMPDEST PUSH1 0x40 MLOAD PUSH2 0x12C SWAP2 SWAP1 PUSH2 0x192D JUMP JUMPDEST PUSH1 0x40 MLOAD DUP1 SWAP2 SUB SWAP1 RETURN JUMPDEST PUSH2 0x14F PUSH1 0x4 DUP1 CALLDATASIZE SUB DUP2 ADD SWAP1 PUSH2 0x14A SWAP2 SWAP1 PUSH2 0x12D1 JUMP JUMPDEST PUSH2 0x25A JUMP JUMPDEST PUSH1 0x40 MLOAD PUSH2 0x15D SWAP3 SWAP2 SWAP1 PUSH2 0x1948 JUMP JUMPDEST PUSH1 0x40 MLOAD DUP1 SWAP2 SUB SWAP1 RETURN JUMPDEST PUSH2 0x180 PUSH1 0x4 DUP1 CALLDATASIZE SUB DUP2 ADD SWAP1 PUSH2 0x17B SWAP2 SWAP1 PUSH2 0x126A JUMP JUMPDEST PUSH2 0x29B JUMP JUMPDEST STOP JUMPDEST PUSH2 0x19C PUSH1 0x4 DUP1 CALLDATASIZE SUB DUP2 ADD SWAP1 PUSH2 0x197 SWAP2 SWAP1 PUSH2 0x123D JUMP JUMPDEST PUSH2 0x7CB JUMP JUMPDEST PUSH1 0x40 MLOAD PUSH2 0x1A9 SWAP2 SWAP1 PUSH2 0x17BC JUMP JUMPDEST PUSH1 0x40 MLOAD DUP1 SWAP2 SUB SWAP1 RETURN JUMPDEST PUSH1 0x4 PUSH1 0x2 SWAP1 SLOAD SWAP1 PUSH2 0x100 EXP SWAP1 DIV PUSH1 0xFF AND DUP2 JUMP JUMPDEST PUSH1 0x0 DUP1 ISZERO ISZERO PUSH1 0x3 PUSH1 0x0 DUP5 PUSH20 0xFFFFFFFFFFFFFFFFFFFFFFFFFFFFFFFFFFFFFFFF AND PUSH20 0xFFFFFFFFFFFFFFFFFFFFFFFFFFFFFFFFFFFFFFFF AND DUP2 MSTORE PUSH1 0x20 ADD SWAP1 DUP2 MSTORE PUSH1 0x20 ADD PUSH1 0x0 KECCAK256 PUSH1 0x0 SWAP1 SLOAD SWAP1 PUSH2 0x100 EXP SWAP1 DIV PUSH1 0xFF AND ISZERO ISZERO EQ SWAP1 POP SWAP2 SWAP1 POP JUMP JUMPDEST PUSH1 0x4 PUSH1 0x0 SWAP1 SLOAD SWAP1 PUSH2 0x100 EXP SWAP1 DIV PUSH1 0xFF AND DUP2 JUMP JUMPDEST PUSH1 0x4 PUSH1 0x3 SWAP1 SLOAD SWAP1 PUSH2 0x100 EXP SWAP1 DIV PUSH1 0xFF AND DUP2 JUMP JUMPDEST PUSH1 0x4 PUSH1 0x1 SWAP1 SLOAD SWAP1 PUSH2 0x100 EXP SWAP1 DIV PUSH1 0xFF AND DUP2 JUMP JUMPDEST PUSH1 0x5 PUSH1 0x20 MSTORE DUP1 PUSH1 0x0 MSTORE PUSH1 0x40 PUSH1 0x0 KECCAK256 PUSH1 0x0 SWAP2 POP SWAP1 POP DUP1 PUSH1 0x0 ADD PUSH1 0x0 SWAP1 SLOAD SWAP1 PUSH2 0x100 EXP SWAP1 DIV PUSH1 0xFF AND SWAP1 DUP1 PUSH1 0x2 ADD PUSH1 0x0 SWAP1 SLOAD SWAP1 PUSH2 0x100 EXP SWAP1 DIV PUSH4 0xFFFFFFFF AND SWAP1 POP DUP3 JUMP JUMPDEST PUSH2 0x2A4 CALLER PUSH2 0x1C5 JUMP JUMPDEST PUSH2 0x2E3 JUMPI PUSH1 0x40 MLOAD PUSH32 0x8C379A000000000000000000000000000000000000000000000000000000000 DUP2 MSTORE PUSH1 0x4 ADD PUSH2 0x2DA SWAP1 PUSH2 0x1839 JUMP JUMPDEST PUSH1 0x40 MLOAD DUP1 SWAP2 SUB SWAP1 REVERT JUMPDEST PUSH1 0x4 PUSH1 0x0 SWAP1 SLOAD SWAP1 PUSH2 0x100 EXP SWAP1 DIV PUSH1 0xFF AND PUSH1 0xFF AND PUSH1 0x4 PUSH1 0x1 SWAP1 SLOAD SWAP1 PUSH2 0x100 EXP SWAP1 DIV PUSH1 0xFF AND PUSH1 0xFF AND LT PUSH2 0x349 JUMPI PUSH1 0x40 MLOAD PUSH32 0x8C379A000000000000000000000000000000000000000000000000000000000 DUP2 MSTORE PUSH1 0x4 ADD PUSH2 0x340 SWAP1 PUSH2 0x17F9 JUMP JUMPDEST PUSH1 0x40 MLOAD DUP1 SWAP2 SUB SWAP1 REVERT JUMPDEST PUSH2 0x352 CALLER PUSH2 0x7EB JUMP JUMPDEST PUSH1 0x1 PUSH1 0x4 PUSH1 0x1 SWAP1 SLOAD SWAP1 PUSH2 0x100 EXP SWAP1 DIV PUSH1 0xFF AND PUSH2 0x36E SWAP2 SWAP1 PUSH2 0x1A2D JUMP JUMPDEST PUSH1 0x4 PUSH1 0x1 PUSH2 0x100 EXP DUP2 SLOAD DUP2 PUSH1 0xFF MUL NOT AND SWAP1 DUP4 PUSH1 0xFF AND MUL OR SWAP1 SSTORE POP PUSH2 0x390 PUSH2 0x1183 JUMP JUMPDEST CALLER DUP2 PUSH1 0x0 ADD SWAP1 PUSH20 0xFFFFFFFFFFFFFFFFFFFFFFFFFFFFFFFFFFFFFFFF AND SWAP1 DUP2 PUSH20 0xFFFFFFFFFFFFFFFFFFFFFFFFFFFFFFFFFFFFFFFF AND DUP2 MSTORE POP POP DUP5 DUP2 PUSH1 0x20 ADD DUP2 DUP2 MSTORE POP POP DUP4 DUP2 PUSH1 0x40 ADD DUP2 DUP2 MSTORE POP POP DUP3 DUP2 PUSH1 0x60 ADD DUP2 DUP2 MSTORE POP POP DUP2 DUP2 PUSH1 0x80 ADD SWAP1 PUSH1 0xFF AND SWAP1 DUP2 PUSH1 0xFF AND DUP2 MSTORE POP POP PUSH1 0x1 DUP2 PUSH1 0xA0 ADD SWAP1 ISZERO ISZERO SWAP1 DUP2 ISZERO ISZERO DUP2 MSTORE POP POP PUSH2 0x412 DUP2 PUSH2 0x851 JUMP JUMPDEST PUSH1 0x0 PUSH1 0x4 PUSH1 0x2 SWAP1 SLOAD SWAP1 PUSH2 0x100 EXP SWAP1 DIV PUSH1 0xFF AND DUP3 PUSH1 0x80 ADD MLOAD PUSH1 0x40 MLOAD PUSH1 0x20 ADD PUSH2 0x43A SWAP3 SWAP2 SWAP1 PUSH2 0x1790 JUMP JUMPDEST PUSH1 0x40 MLOAD PUSH1 0x20 DUP2 DUP4 SUB SUB DUP2 MSTORE SWAP1 PUSH1 0x40 MSTORE DUP1 MLOAD SWAP1 PUSH1 0x20 ADD KECCAK256 SWAP1 POP PUSH1 0x0 DUP1 DUP3 DUP2 MSTORE PUSH1 0x20 ADD SWAP1 DUP2 MSTORE PUSH1 0x20 ADD PUSH1 0x0 KECCAK256 PUSH1 0x1 ADD DUP3 SWAP1 DUP1 PUSH1 0x1 DUP2 SLOAD ADD DUP1 DUP3 SSTORE DUP1 SWAP2 POP POP PUSH1 0x1 SWAP1 SUB SWAP1 PUSH1 0x0 MSTORE PUSH1 0x20 PUSH1 0x0 KECCAK256 SWAP1 PUSH1 0x5 MUL ADD PUSH1 0x0 SWAP1 SWAP2 SWAP1 SWAP2 SWAP1 SWAP2 POP PUSH1 0x0 DUP3 ADD MLOAD DUP2 PUSH1 0x0 ADD PUSH1 0x0 PUSH2 0x100 EXP DUP2 SLOAD DUP2 PUSH20 0xFFFFFFFFFFFFFFFFFFFFFFFFFFFFFFFFFFFFFFFF MUL NOT AND SWAP1 DUP4 PUSH20 0xFFFFFFFFFFFFFFFFFFFFFFFFFFFFFFFFFFFFFFFF AND MUL OR SWAP1 SSTORE POP PUSH1 0x20 DUP3 ADD MLOAD DUP2 PUSH1 0x1 ADD SSTORE PUSH1 0x40 DUP3 ADD MLOAD DUP2 PUSH1 0x2 ADD SSTORE PUSH1 0x60 DUP3 ADD MLOAD DUP2 PUSH1 0x3 ADD SSTORE PUSH1 0x80 DUP3 ADD MLOAD DUP2 PUSH1 0x4 ADD PUSH1 0x0 PUSH2 0x100 EXP DUP2 SLOAD DUP2 PUSH1 0xFF MUL NOT AND SWAP1 DUP4 PUSH1 0xFF AND MUL OR SWAP1 SSTORE POP PUSH1 0xA0 DUP3 ADD MLOAD DUP2 PUSH1 0x4 ADD PUSH1 0x1 PUSH2 0x100 EXP DUP2 SLOAD DUP2 PUSH1 0xFF MUL NOT AND SWAP1 DUP4 ISZERO ISZERO MUL OR SWAP1 SSTORE POP POP POP DUP3 PUSH1 0x0 DUP1 DUP4 DUP2 MSTORE PUSH1 0x20 ADD SWAP1 DUP2 MSTORE PUSH1 0x20 ADD PUSH1 0x0 KECCAK256 PUSH1 0x0 ADD PUSH1 0x0 PUSH2 0x100 EXP DUP2 SLOAD DUP2 PUSH1 0xFF MUL NOT AND SWAP1 DUP4 PUSH1 0xFF AND MUL OR SWAP1 SSTORE POP PUSH2 0x572 DUP2 PUSH1 0x1 PUSH2 0x8DD JUMP JUMPDEST PUSH1 0x1 PUSH1 0x3 PUSH1 0x0 CALLER PUSH20 0xFFFFFFFFFFFFFFFFFFFFFFFFFFFFFFFFFFFFFFFF AND PUSH20 0xFFFFFFFFFFFFFFFFFFFFFFFFFFFFFFFFFFFFFFFF AND DUP2 MSTORE PUSH1 0x20 ADD SWAP1 DUP2 MSTORE PUSH1 0x20 ADD PUSH1 0x0 KECCAK256 PUSH1 0x0 PUSH2 0x100 EXP DUP2 SLOAD DUP2 PUSH1 0xFF MUL NOT AND SWAP1 DUP4 ISZERO ISZERO MUL OR SWAP1 SSTORE POP PUSH32 0x8D6661E0D5915A0819A638B972E4819397F8B7B61F7474D495387868DB7AE69B PUSH1 0x40 MLOAD PUSH2 0x5F7 SWAP1 PUSH2 0x1819 JUMP JUMPDEST PUSH1 0x40 MLOAD DUP1 SWAP2 SUB SWAP1 LOG1 PUSH1 0x4 PUSH1 0x0 SWAP1 SLOAD SWAP1 PUSH2 0x100 EXP SWAP1 DIV PUSH1 0xFF AND PUSH1 0xFF AND PUSH1 0x4 PUSH1 0x1 SWAP1 SLOAD SWAP1 PUSH2 0x100 EXP SWAP1 DIV PUSH1 0xFF AND PUSH1 0xFF AND EQ ISZERO PUSH2 0x7C3 JUMPI PUSH2 0x633 PUSH2 0x964 JUMP JUMPDEST PUSH1 0x1 PUSH1 0x4 PUSH1 0x2 SWAP1 SLOAD SWAP1 PUSH2 0x100 EXP SWAP1 DIV PUSH1 0xFF AND PUSH2 0x64F SWAP2 SWAP1 PUSH2 0x1A2D JUMP JUMPDEST PUSH1 0x4 PUSH1 0x2 PUSH2 0x100 EXP DUP2 SLOAD DUP2 PUSH1 0xFF MUL NOT AND SWAP1 DUP4 PUSH1 0xFF AND MUL OR SWAP1 SSTORE POP PUSH1 0x4 PUSH1 0x3 SWAP1 SLOAD SWAP1 PUSH2 0x100 EXP SWAP1 DIV PUSH1 0xFF AND PUSH1 0xFF AND PUSH1 0x4 PUSH1 0x2 SWAP1 SLOAD SWAP1 PUSH2 0x100 EXP SWAP1 DIV PUSH1 0xFF AND PUSH1 0xFF AND EQ ISZERO PUSH2 0x7BA JUMPI PUSH1 0x0 PUSH2 0x69F PUSH2 0xD6C JUMP JUMPDEST SWAP1 POP PUSH1 0x1 PUSH1 0x5 PUSH1 0x0 DUP4 PUSH1 0xFF AND PUSH1 0xFF AND DUP2 MSTORE PUSH1 0x20 ADD SWAP1 DUP2 MSTORE PUSH1 0x20 ADD PUSH1 0x0 KECCAK256 PUSH1 0x2 ADD PUSH1 0x0 SWAP1 SLOAD SWAP1 PUSH2 0x100 EXP SWAP1 DIV PUSH4 0xFFFFFFFF AND PUSH4 0xFFFFFFFF AND EQ PUSH2 0x72F JUMPI PUSH32 0x86F0B3193E6E024D746F8179B0E69F8E2F9429FF08E174FBC18370BDF9BA8600 PUSH1 0x5 PUSH1 0x0 DUP4 PUSH1 0xFF AND PUSH1 0xFF AND DUP2 MSTORE PUSH1 0x20 ADD SWAP1 DUP2 MSTORE PUSH1 0x20 ADD PUSH1 0x0 KECCAK256 PUSH1 0x40 MLOAD PUSH2 0x722 SWAP2 SWAP1 PUSH2 0x18F8 JUMP JUMPDEST PUSH1 0x40 MLOAD DUP1 SWAP2 SUB SWAP1 LOG1 PUSH2 0x79C JUMP JUMPDEST PUSH2 0x737 PUSH2 0x11D4 JUMP JUMPDEST PUSH1 0x0 DUP2 PUSH1 0x40 ADD SWAP1 PUSH4 0xFFFFFFFF AND SWAP1 DUP2 PUSH4 0xFFFFFFFF AND DUP2 MSTORE POP POP PUSH1 0x0 DUP2 PUSH1 0x0 ADD SWAP1 PUSH1 0xFF AND SWAP1 DUP2 PUSH1 0xFF AND DUP2 MSTORE POP POP PUSH32 0x86F0B3193E6E024D746F8179B0E69F8E2F9429FF08E174FBC18370BDF9BA8600 DUP2 PUSH1 0x40 MLOAD PUSH2 0x792 SWAP2 SWAP1 PUSH2 0x188E JUMP JUMPDEST PUSH1 0x40 MLOAD DUP1 SWAP2 SUB SWAP1 LOG1 POP JUMPDEST PUSH1 0x0 PUSH1 0x4 PUSH1 0x2 PUSH2 0x100 EXP DUP2 SLOAD DUP2 PUSH1 0xFF MUL NOT AND SWAP1 DUP4 PUSH1 0xFF AND MUL OR SWAP1 SSTORE POP POP JUMPDEST PUSH2 0x7C2 PUSH2 0xEA7 JUMP JUMPDEST JUMPDEST POP POP POP POP POP POP JUMP JUMPDEST PUSH1 0x3 PUSH1 0x20 MSTORE DUP1 PUSH1 0x0 MSTORE PUSH1 0x40 PUSH1 0x0 KECCAK256 PUSH1 0x0 SWAP2 POP SLOAD SWAP1 PUSH2 0x100 EXP SWAP1 DIV PUSH1 0xFF AND DUP2 JUMP JUMPDEST PUSH1 0x2 DUP2 SWAP1 DUP1 PUSH1 0x1 DUP2 SLOAD ADD DUP1 DUP3 SSTORE DUP1 SWAP2 POP POP PUSH1 0x1 SWAP1 SUB SWAP1 PUSH1 0x0 MSTORE PUSH1 0x20 PUSH1 0x0 KECCAK256 ADD PUSH1 0x0 SWAP1 SWAP2 SWAP1 SWAP2 SWAP1 SWAP2 PUSH2 0x100 EXP DUP2 SLOAD DUP2 PUSH20 0xFFFFFFFFFFFFFFFFFFFFFFFFFFFFFFFFFFFFFFFF MUL NOT AND SWAP1 DUP4 PUSH20 0xFFFFFFFFFFFFFFFFFFFFFFFFFFFFFFFFFFFFFFFF AND MUL OR SWAP1 SSTORE POP POP JUMP JUMPDEST PUSH3 0x989680 DUP2 PUSH1 0x40 ADD MLOAD LT DUP1 PUSH2 0x86C JUMPI POP PUSH3 0x989680 DUP2 PUSH1 0x20 ADD MLOAD LT JUMPDEST DUP1 ISZERO PUSH2 0x87C JUMPI POP PUSH1 0x1 DUP2 PUSH1 0x60 ADD MLOAD EQ JUMPDEST ISZERO PUSH2 0x897 JUMPI PUSH1 0x0 DUP2 PUSH1 0xA0 ADD SWAP1 ISZERO ISZERO SWAP1 DUP2 ISZERO ISZERO DUP2 MSTORE POP POP PUSH2 0x8DA JUMP JUMPDEST PUSH3 0x989680 DUP2 PUSH1 0x40 ADD MLOAD GT DUP1 PUSH2 0x8B2 JUMPI POP PUSH3 0x989680 DUP2 PUSH1 0x20 ADD MLOAD GT JUMPDEST DUP1 ISZERO PUSH2 0x8C2 JUMPI POP PUSH1 0x0 DUP2 PUSH1 0x60 ADD MLOAD EQ JUMPDEST ISZERO PUSH2 0x8D9 JUMPI PUSH1 0x0 DUP2 PUSH1 0xA0 ADD SWAP1 ISZERO ISZERO SWAP1 DUP2 ISZERO ISZERO DUP2 MSTORE POP POP JUMPDEST JUMPDEST POP JUMP JUMPDEST DUP1 PUSH1 0x0 DUP1 PUSH1 0x0 SHL DUP2 MSTORE PUSH1 0x20 ADD SWAP1 DUP2 MSTORE PUSH1 0x20 ADD PUSH1 0x0 KECCAK256 SLOAD DUP3 EQ DUP1 PUSH2 0x915 JUMPI POP PUSH1 0x0 DUP1 SHL DUP2 PUSH1 0x0 DUP5 DUP2 MSTORE PUSH1 0x20 ADD SWAP1 DUP2 MSTORE PUSH1 0x20 ADD PUSH1 0x0 KECCAK256 SLOAD EQ ISZERO JUMPDEST PUSH2 0x960 JUMPI DUP1 PUSH1 0x0 DUP1 PUSH1 0x0 SHL DUP2 MSTORE PUSH1 0x20 ADD SWAP1 DUP2 MSTORE PUSH1 0x20 ADD PUSH1 0x0 KECCAK256 SLOAD DUP2 PUSH1 0x0 DUP5 DUP2 MSTORE PUSH1 0x20 ADD SWAP1 DUP2 MSTORE PUSH1 0x20 ADD PUSH1 0x0 KECCAK256 DUP2 SWAP1 SSTORE POP DUP2 DUP2 PUSH1 0x0 DUP1 PUSH1 0x0 SHL DUP2 MSTORE PUSH1 0x20 ADD SWAP1 DUP2 MSTORE PUSH1 0x20 ADD PUSH1 0x0 KECCAK256 DUP2 SWAP1 SSTORE POP JUMPDEST POP POP JUMP JUMPDEST PUSH1 0x0 PUSH1 0x1 PUSH1 0x0 DUP1 PUSH1 0x0 SHL DUP2 MSTORE PUSH1 0x20 ADD SWAP1 DUP2 MSTORE PUSH1 0x20 ADD PUSH1 0x0 KECCAK256 SLOAD SWAP1 POP PUSH1 0x0 DUP2 SWAP1 POP JUMPDEST PUSH1 0x0 DUP1 SHL DUP3 EQ PUSH2 0xA33 JUMPI PUSH1 0x0 DUP1 DUP3 DUP2 MSTORE PUSH1 0x20 ADD SWAP1 DUP2 MSTORE PUSH1 0x20 ADD PUSH1 0x0 KECCAK256 PUSH1 0x1 ADD DUP1 SLOAD SWAP1 POP PUSH1 0x0 DUP1 DUP5 DUP2 MSTORE PUSH1 0x20 ADD SWAP1 DUP2 MSTORE PUSH1 0x20 ADD PUSH1 0x0 KECCAK256 PUSH1 0x1 ADD DUP1 SLOAD SWAP1 POP GT ISZERO PUSH2 0xA18 JUMPI PUSH1 0x0 DUP1 DUP4 DUP2 MSTORE PUSH1 0x20 ADD SWAP1 DUP2 MSTORE PUSH1 0x20 ADD PUSH1 0x0 KECCAK256 PUSH1 0x1 ADD PUSH1 0x0 DUP2 SLOAD DUP2 LT PUSH2 0x9EF JUMPI PUSH2 0x9EE PUSH2 0x1C5C JUMP JUMPDEST JUMPDEST SWAP1 PUSH1 0x0 MSTORE PUSH1 0x20 PUSH1 0x0 KECCAK256 SWAP1 PUSH1 0x5 MUL ADD PUSH1 0x4 ADD PUSH1 0x1 SWAP1 SLOAD SWAP1 PUSH2 0x100 EXP SWAP1 DIV PUSH1 0xFF AND ISZERO PUSH2 0xA17 JUMPI DUP2 SWAP1 POP JUMPDEST JUMPDEST PUSH1 0x1 PUSH1 0x0 DUP4 DUP2 MSTORE PUSH1 0x20 ADD SWAP1 DUP2 MSTORE PUSH1 0x20 ADD PUSH1 0x0 KECCAK256 SLOAD SWAP2 POP PUSH2 0x985 JUMP JUMPDEST PUSH2 0xA71 PUSH1 0x40 MLOAD DUP1 PUSH1 0x40 ADD PUSH1 0x40 MSTORE DUP1 PUSH1 0x16 DUP2 MSTORE PUSH1 0x20 ADD PUSH32 0x617267756D656E746174696F6E2066696E697368656400000000000000000000 DUP2 MSTORE POP PUSH2 0xFD8 JUMP JUMPDEST PUSH1 0x1 PUSH1 0x0 DUP1 DUP4 DUP2 MSTORE PUSH1 0x20 ADD SWAP1 DUP2 MSTORE PUSH1 0x20 ADD PUSH1 0x0 KECCAK256 PUSH1 0x1 ADD DUP1 SLOAD SWAP1 POP EQ PUSH2 0xCFB JUMPI PUSH1 0x1 PUSH1 0x5 PUSH1 0x0 DUP1 PUSH1 0x0 DUP6 DUP2 MSTORE PUSH1 0x20 ADD SWAP1 DUP2 MSTORE PUSH1 0x20 ADD PUSH1 0x0 KECCAK256 PUSH1 0x0 ADD PUSH1 0x0 SWAP1 SLOAD SWAP1 PUSH2 0x100 EXP SWAP1 DIV PUSH1 0xFF AND PUSH1 0xFF AND PUSH1 0xFF AND DUP2 MSTORE PUSH1 0x20 ADD SWAP1 DUP2 MSTORE PUSH1 0x20 ADD PUSH1 0x0 KECCAK256 PUSH1 0x2 ADD PUSH1 0x0 SWAP1 SLOAD SWAP1 PUSH2 0x100 EXP SWAP1 DIV PUSH4 0xFFFFFFFF AND PUSH4 0xFFFFFFFF AND LT PUSH2 0xBA9 JUMPI PUSH1 0x1 PUSH1 0x5 PUSH1 0x0 DUP1 PUSH1 0x0 DUP6 DUP2 MSTORE PUSH1 0x20 ADD SWAP1 DUP2 MSTORE PUSH1 0x20 ADD PUSH1 0x0 KECCAK256 PUSH1 0x0 ADD PUSH1 0x0 SWAP1 SLOAD SWAP1 PUSH2 0x100 EXP SWAP1 DIV PUSH1 0xFF AND PUSH1 0xFF AND PUSH1 0xFF AND DUP2 MSTORE PUSH1 0x20 ADD SWAP1 DUP2 MSTORE PUSH1 0x20 ADD PUSH1 0x0 KECCAK256 PUSH1 0x2 ADD PUSH1 0x0 SWAP1 SLOAD SWAP1 PUSH2 0x100 EXP SWAP1 DIV PUSH4 0xFFFFFFFF AND PUSH2 0xB48 SWAP2 SWAP1 PUSH2 0x19F3 JUMP JUMPDEST PUSH1 0x5 PUSH1 0x0 DUP1 PUSH1 0x0 DUP6 DUP2 MSTORE PUSH1 0x20 ADD SWAP1 DUP2 MSTORE PUSH1 0x20 ADD PUSH1 0x0 KECCAK256 PUSH1 0x0 ADD PUSH1 0x0 SWAP1 SLOAD SWAP1 PUSH2 0x100 EXP SWAP1 DIV PUSH1 0xFF AND PUSH1 0xFF AND PUSH1 0xFF AND DUP2 MSTORE PUSH1 0x20 ADD SWAP1 DUP2 MSTORE PUSH1 0x20 ADD PUSH1 0x0 KECCAK256 PUSH1 0x2 ADD PUSH1 0x0 PUSH2 0x100 EXP DUP2 SLOAD DUP2 PUSH4 0xFFFFFFFF MUL NOT AND SWAP1 DUP4 PUSH4 0xFFFFFFFF AND MUL OR SWAP1 SSTORE POP PUSH2 0xCAE JUMP JUMPDEST PUSH1 0x1 PUSH1 0x5 PUSH1 0x0 DUP1 PUSH1 0x0 DUP6 DUP2 MSTORE PUSH1 0x20 ADD SWAP1 DUP2 MSTORE PUSH1 0x20 ADD PUSH1 0x0 KECCAK256 PUSH1 0x0 ADD PUSH1 0x0 SWAP1 SLOAD SWAP1 PUSH2 0x100 EXP SWAP1 DIV PUSH1 0xFF AND PUSH1 0xFF AND PUSH1 0xFF AND DUP2 MSTORE PUSH1 0x20 ADD SWAP1 DUP2 MSTORE PUSH1 0x20 ADD PUSH1 0x0 KECCAK256 PUSH1 0x2 ADD PUSH1 0x0 PUSH2 0x100 EXP DUP2 SLOAD DUP2 PUSH4 0xFFFFFFFF MUL NOT AND SWAP1 DUP4 PUSH4 0xFFFFFFFF AND MUL OR SWAP1 SSTORE POP PUSH2 0xC34 PUSH1 0x0 DUP1 DUP4 DUP2 MSTORE PUSH1 0x20 ADD SWAP1 DUP2 MSTORE PUSH1 0x20 ADD PUSH1 0x0 KECCAK256 PUSH1 0x0 ADD PUSH1 0x0 SWAP1 SLOAD SWAP1 PUSH2 0x100 EXP SWAP1 DIV PUSH1 0xFF AND PUSH1 0x6 PUSH2 0x1071 JUMP JUMPDEST PUSH1 0x0 DUP1 DUP3 DUP2 MSTORE PUSH1 0x20 ADD SWAP1 DUP2 MSTORE PUSH1 0x20 ADD PUSH1 0x0 KECCAK256 PUSH1 0x0 ADD PUSH1 0x0 SWAP1 SLOAD SWAP1 PUSH2 0x100 EXP SWAP1 DIV PUSH1 0xFF AND PUSH1 0x5 PUSH1 0x0 DUP1 PUSH1 0x0 DUP6 DUP2 MSTORE PUSH1 0x20 ADD SWAP1 DUP2 MSTORE PUSH1 0x20 ADD PUSH1 0x0 KECCAK256 PUSH1 0x0 ADD PUSH1 0x0 SWAP1 SLOAD SWAP1 PUSH2 0x100 EXP SWAP1 DIV PUSH1 0xFF AND PUSH1 0xFF AND PUSH1 0xFF AND DUP2 MSTORE PUSH1 0x20 ADD SWAP1 DUP2 MSTORE PUSH1 0x20 ADD PUSH1 0x0 KECCAK256 PUSH1 0x0 ADD PUSH1 0x0 PUSH2 0x100 EXP DUP2 SLOAD DUP2 PUSH1 0xFF MUL NOT AND SWAP1 DUP4 PUSH1 0xFF AND MUL OR SWAP1 SSTORE POP JUMPDEST PUSH32 0x47369145E9251A49F62452CCF793501933D2183B10AE1492318166F709511212 PUSH1 0x0 DUP1 DUP4 DUP2 MSTORE PUSH1 0x20 ADD SWAP1 DUP2 MSTORE PUSH1 0x20 ADD PUSH1 0x0 KECCAK256 PUSH1 0x40 MLOAD PUSH2 0xCEE SWAP2 SWAP1 PUSH2 0x18C3 JUMP JUMPDEST PUSH1 0x40 MLOAD DUP1 SWAP2 SUB SWAP1 LOG1 PUSH2 0xD68 JUMP JUMPDEST PUSH2 0xD03 PUSH2 0x11D4 JUMP JUMPDEST PUSH1 0x0 DUP2 PUSH1 0x40 ADD SWAP1 PUSH4 0xFFFFFFFF AND SWAP1 DUP2 PUSH4 0xFFFFFFFF AND DUP2 MSTORE POP POP PUSH1 0x0 DUP2 PUSH1 0x0 ADD SWAP1 PUSH1 0xFF AND SWAP1 DUP2 PUSH1 0xFF AND DUP2 MSTORE POP POP PUSH32 0x47369145E9251A49F62452CCF793501933D2183B10AE1492318166F709511212 DUP2 PUSH1 0x40 MLOAD PUSH2 0xD5E SWAP2 SWAP1 PUSH2 0x1859 JUMP JUMPDEST PUSH1 0x40 MLOAD DUP1 SWAP2 SUB SWAP1 LOG1 POP JUMPDEST POP POP JUMP JUMPDEST PUSH1 0x0 DUP1 PUSH1 0x6 PUSH1 0x0 DUP1 PUSH1 0xFF AND DUP2 MSTORE PUSH1 0x20 ADD SWAP1 DUP2 MSTORE PUSH1 0x20 ADD PUSH1 0x0 KECCAK256 PUSH1 0x0 SWAP1 SLOAD SWAP1 PUSH2 0x100 EXP SWAP1 DIV PUSH1 0xFF AND SWAP1 POP PUSH1 0x6 PUSH1 0x0 DUP1 PUSH1 0xFF AND DUP2 MSTORE PUSH1 0x20 ADD SWAP1 DUP2 MSTORE PUSH1 0x20 ADD PUSH1 0x0 KECCAK256 PUSH1 0x0 SWAP1 SLOAD SWAP1 PUSH2 0x100 EXP SWAP1 DIV PUSH1 0xFF AND SWAP2 POP JUMPDEST PUSH1 0x0 DUP2 PUSH1 0xFF AND EQ PUSH2 0xE65 JUMPI PUSH1 0x5 PUSH1 0x0 DUP4 PUSH1 0xFF AND PUSH1 0xFF AND DUP2 MSTORE PUSH1 0x20 ADD SWAP1 DUP2 MSTORE PUSH1 0x20 ADD PUSH1 0x0 KECCAK256 PUSH1 0x2 ADD PUSH1 0x0 SWAP1 SLOAD SWAP1 PUSH2 0x100 EXP SWAP1 DIV PUSH4 0xFFFFFFFF AND PUSH4 0xFFFFFFFF AND PUSH1 0x5 PUSH1 0x0 DUP4 PUSH1 0xFF AND PUSH1 0xFF AND DUP2 MSTORE PUSH1 0x20 ADD SWAP1 DUP2 MSTORE PUSH1 0x20 ADD PUSH1 0x0 KECCAK256 PUSH1 0x2 ADD PUSH1 0x0 SWAP1 SLOAD SWAP1 PUSH2 0x100 EXP SWAP1 DIV PUSH4 0xFFFFFFFF AND PUSH4 0xFFFFFFFF AND GT ISZERO PUSH2 0xE37 JUMPI DUP1 SWAP2 POP JUMPDEST PUSH1 0x6 PUSH1 0x0 DUP3 PUSH1 0xFF AND PUSH1 0xFF AND DUP2 MSTORE PUSH1 0x20 ADD SWAP1 DUP2 MSTORE PUSH1 0x20 ADD PUSH1 0x0 KECCAK256 PUSH1 0x0 SWAP1 SLOAD SWAP1 PUSH2 0x100 EXP SWAP1 DIV PUSH1 0xFF AND SWAP1 POP PUSH2 0xDBC JUMP JUMPDEST PUSH2 0xEA3 PUSH1 0x40 MLOAD DUP1 PUSH1 0x40 ADD PUSH1 0x40 MSTORE DUP1 PUSH1 0x16 DUP2 MSTORE PUSH1 0x20 ADD PUSH32 0x617267756D656E746174696F6E2066696E697368656400000000000000000000 DUP2 MSTORE POP PUSH2 0xFD8 JUMP JUMPDEST POP SWAP1 JUMP JUMPDEST PUSH1 0x0 PUSH1 0x4 PUSH1 0x1 PUSH2 0x100 EXP DUP2 SLOAD DUP2 PUSH1 0xFF MUL NOT AND SWAP1 DUP4 PUSH1 0xFF AND MUL OR SWAP1 SSTORE POP PUSH1 0x0 JUMPDEST PUSH1 0x2 DUP1 SLOAD SWAP1 POP DUP2 LT ISZERO PUSH2 0xF7C JUMPI PUSH1 0x0 PUSH1 0x3 PUSH1 0x0 PUSH1 0x2 DUP5 DUP2 SLOAD DUP2 LT PUSH2 0xEED JUMPI PUSH2 0xEEC PUSH2 0x1C5C JUMP JUMPDEST JUMPDEST SWAP1 PUSH1 0x0 MSTORE PUSH1 0x20 PUSH1 0x0 KECCAK256 ADD PUSH1 0x0 SWAP1 SLOAD SWAP1 PUSH2 0x100 EXP SWAP1 DIV PUSH20 0xFFFFFFFFFFFFFFFFFFFFFFFFFFFFFFFFFFFFFFFF AND PUSH20 0xFFFFFFFFFFFFFFFFFFFFFFFFFFFFFFFFFFFFFFFF AND PUSH20 0xFFFFFFFFFFFFFFFFFFFFFFFFFFFFFFFFFFFFFFFF AND DUP2 MSTORE PUSH1 0x20 ADD SWAP1 DUP2 MSTORE PUSH1 0x20 ADD PUSH1 0x0 KECCAK256 PUSH1 0x0 PUSH2 0x100 EXP DUP2 SLOAD DUP2 PUSH1 0xFF MUL NOT AND SWAP1 DUP4 ISZERO ISZERO MUL OR SWAP1 SSTORE POP DUP1 DUP1 PUSH2 0xF74 SWAP1 PUSH2 0x1BD2 JUMP JUMPDEST SWAP2 POP POP PUSH2 0xEC6 JUMP JUMPDEST POP PUSH1 0x0 PUSH1 0x1 PUSH1 0x0 DUP1 PUSH1 0x0 SHL DUP2 MSTORE PUSH1 0x20 ADD SWAP1 DUP2 MSTORE PUSH1 0x20 ADD PUSH1 0x0 KECCAK256 SLOAD SWAP1 POP JUMPDEST PUSH1 0x0 DUP1 SHL DUP2 EQ PUSH2 0xFD5 JUMPI PUSH1 0x1 PUSH1 0x0 DUP3 DUP2 MSTORE PUSH1 0x20 ADD SWAP1 DUP2 MSTORE PUSH1 0x20 ADD PUSH1 0x0 KECCAK256 PUSH1 0x0 SWAP1 SSTORE PUSH1 0x1 PUSH1 0x0 DUP3 DUP2 MSTORE PUSH1 0x20 ADD SWAP1 DUP2 MSTORE PUSH1 0x20 ADD PUSH1 0x0 KECCAK256 SLOAD SWAP1 POP PUSH2 0xF99 JUMP JUMPDEST POP JUMP JUMPDEST PUSH2 0x106E DUP2 PUSH1 0x40 MLOAD PUSH1 0x24 ADD PUSH2 0xFEC SWAP2 SWAP1 PUSH2 0x17D7 JUMP JUMPDEST PUSH1 0x40 MLOAD PUSH1 0x20 DUP2 DUP4 SUB SUB DUP2 MSTORE SWAP1 PUSH1 0x40 MSTORE PUSH32 0x41304FAC00000000000000000000000000000000000000000000000000000000 PUSH28 0xFFFFFFFFFFFFFFFFFFFFFFFFFFFFFFFFFFFFFFFFFFFFFFFFFFFFFFFF NOT AND PUSH1 0x20 DUP3 ADD DUP1 MLOAD PUSH28 0xFFFFFFFFFFFFFFFFFFFFFFFFFFFFFFFFFFFFFFFFFFFFFFFFFFFFFFFF DUP4 DUP2 DUP4 AND OR DUP4 MSTORE POP POP POP POP PUSH2 0x115A JUMP JUMPDEST POP JUMP JUMPDEST DUP1 PUSH1 0x0 DUP1 PUSH1 0xFF AND DUP2 MSTORE PUSH1 0x20 ADD SWAP1 DUP2 MSTORE PUSH1 0x20 ADD PUSH1 0x0 KECCAK256 PUSH1 0x0 SWAP1 SLOAD SWAP1 PUSH2 0x100 EXP SWAP1 DIV PUSH1 0xFF AND PUSH1 0xFF AND DUP3 PUSH1 0xFF AND EQ DUP1 PUSH2 0x10D0 JUMPI POP PUSH1 0x0 DUP2 PUSH1 0x0 DUP5 PUSH1 0xFF AND PUSH1 0xFF AND DUP2 MSTORE PUSH1 0x20 ADD SWAP1 DUP2 MSTORE PUSH1 0x20 ADD PUSH1 0x0 KECCAK256 PUSH1 0x0 SWAP1 SLOAD SWAP1 PUSH2 0x100 EXP SWAP1 DIV PUSH1 0xFF AND PUSH1 0xFF AND EQ ISZERO JUMPDEST PUSH2 0x1156 JUMPI DUP1 PUSH1 0x0 DUP1 PUSH1 0xFF AND DUP2 MSTORE PUSH1 0x20 ADD SWAP1 DUP2 MSTORE PUSH1 0x20 ADD PUSH1 0x0 KECCAK256 PUSH1 0x0 SWAP1 SLOAD SWAP1 PUSH2 0x100 EXP SWAP1 DIV PUSH1 0xFF AND DUP2 PUSH1 0x0 DUP5 PUSH1 0xFF AND PUSH1 0xFF AND DUP2 MSTORE PUSH1 0x20 ADD SWAP1 DUP2 MSTORE PUSH1 0x20 ADD PUSH1 0x0 KECCAK256 PUSH1 0x0 PUSH2 0x100 EXP DUP2 SLOAD DUP2 PUSH1 0xFF MUL NOT AND SWAP1 DUP4 PUSH1 0xFF AND MUL OR SWAP1 SSTORE POP DUP2 DUP2 PUSH1 0x0 DUP1 PUSH1 0xFF AND DUP2 MSTORE PUSH1 0x20 ADD SWAP1 DUP2 MSTORE PUSH1 0x20 ADD PUSH1 0x0 KECCAK256 PUSH1 0x0 PUSH2 0x100 EXP DUP2 SLOAD DUP2 PUSH1 0xFF MUL NOT AND SWAP1 DUP4 PUSH1 0xFF AND MUL OR SWAP1 SSTORE POP JUMPDEST POP POP JUMP JUMPDEST PUSH1 0x0 DUP2 MLOAD SWAP1 POP PUSH1 0x0 PUSH11 0x636F6E736F6C652E6C6F67 SWAP1 POP PUSH1 0x20 DUP4 ADD PUSH1 0x0 DUP1 DUP5 DUP4 DUP6 GAS STATICCALL POP POP POP POP POP JUMP JUMPDEST PUSH1 0x40 MLOAD DUP1 PUSH1 0xC0 ADD PUSH1 0x40 MSTORE DUP1 PUSH1 0x0 PUSH20 0xFFFFFFFFFFFFFFFFFFFFFFFFFFFFFFFFFFFFFFFF AND DUP2 MSTORE PUSH1 0x20 ADD PUSH1 0x0 DUP2 MSTORE PUSH1 0x20 ADD PUSH1 0x0 DUP2 MSTORE PUSH1 0x20 ADD PUSH1 0x0 DUP2 MSTORE PUSH1 0x20 ADD PUSH1 0x0 PUSH1 0xFF AND DUP2 MSTORE PUSH1 0x20 ADD PUSH1 0x0 ISZERO ISZERO DUP2 MSTORE POP SWAP1 JUMP JUMPDEST PUSH1 0x40 MLOAD DUP1 PUSH1 0x60 ADD PUSH1 0x40 MSTORE DUP1 PUSH1 0x0 PUSH1 0xFF AND DUP2 MSTORE PUSH1 0x20 ADD PUSH1 0x60 DUP2 MSTORE PUSH1 0x20 ADD PUSH1 0x0 PUSH4 0xFFFFFFFF AND DUP2 MSTORE POP SWAP1 JUMP JUMPDEST PUSH1 0x0 DUP2 CALLDATALOAD SWAP1 POP PUSH2 0x120D DUP2 PUSH2 0x1E59 JUMP JUMPDEST SWAP3 SWAP2 POP POP JUMP JUMPDEST PUSH1 0x0 DUP2 CALLDATALOAD SWAP1 POP PUSH2 0x1222 DUP2 PUSH2 0x1E70 JUMP JUMPDEST SWAP3 SWAP2 POP POP JUMP JUMPDEST PUSH1 0x0 DUP2 CALLDATALOAD SWAP1 POP PUSH2 0x1237 DUP2 PUSH2 0x1E87 JUMP JUMPDEST SWAP3 SWAP2 POP POP JUMP JUMPDEST PUSH1 0x0 PUSH1 0x20 DUP3 DUP5 SUB SLT ISZERO PUSH2 0x1253 JUMPI PUSH2 0x1252 PUSH2 0x1C8B JUMP JUMPDEST JUMPDEST PUSH1 0x0 PUSH2 0x1261 DUP5 DUP3 DUP6 ADD PUSH2 0x11FE JUMP JUMPDEST SWAP2 POP POP SWAP3 SWAP2 POP POP JUMP JUMPDEST PUSH1 0x0 DUP1 PUSH1 0x0 DUP1 PUSH1 0x80 DUP6 DUP8 SUB SLT ISZERO PUSH2 0x1284 JUMPI PUSH2 0x1283 PUSH2 0x1C8B JUMP JUMPDEST JUMPDEST PUSH1 0x0 PUSH2 0x1292 DUP8 DUP3 DUP9 ADD PUSH2 0x1213 JUMP JUMPDEST SWAP5 POP POP PUSH1 0x20 PUSH2 0x12A3 DUP8 DUP3 DUP9 ADD PUSH2 0x1213 JUMP JUMPDEST SWAP4 POP POP PUSH1 0x40 PUSH2 0x12B4 DUP8 DUP3 DUP9 ADD PUSH2 0x1213 JUMP JUMPDEST SWAP3 POP POP PUSH1 0x60 PUSH2 0x12C5 DUP8 DUP3 DUP9 ADD PUSH2 0x1228 JUMP JUMPDEST SWAP2 POP POP SWAP3 SWAP6 SWAP2 SWAP5 POP SWAP3 POP JUMP JUMPDEST PUSH1 0x0 PUSH1 0x20 DUP3 DUP5 SUB SLT ISZERO PUSH2 0x12E7 JUMPI PUSH2 0x12E6 PUSH2 0x1C8B JUMP JUMPDEST JUMPDEST PUSH1 0x0 PUSH2 0x12F5 DUP5 DUP3 DUP6 ADD PUSH2 0x1228 JUMP JUMPDEST SWAP2 POP POP SWAP3 SWAP2 POP POP JUMP JUMPDEST PUSH1 0x0 PUSH2 0x130A DUP4 DUP4 PUSH2 0x15FB JUMP JUMPDEST PUSH1 0xC0 DUP4 ADD SWAP1 POP SWAP3 SWAP2 POP POP JUMP JUMPDEST PUSH1 0x0 PUSH2 0x1322 DUP4 DUP4 PUSH2 0x1676 JUMP JUMPDEST PUSH1 0xC0 DUP4 ADD SWAP1 POP SWAP3 SWAP2 POP POP JUMP JUMPDEST PUSH2 0x1337 DUP2 PUSH2 0x1AB8 JUMP JUMPDEST DUP3 MSTORE POP POP JUMP JUMPDEST PUSH1 0x0 PUSH2 0x1348 DUP3 PUSH2 0x1996 JUMP JUMPDEST PUSH2 0x1352 DUP2 DUP6 PUSH2 0x19D1 JUMP JUMPDEST SWAP4 POP PUSH2 0x135D DUP4 PUSH2 0x1971 JUMP JUMPDEST DUP1 PUSH1 0x0 JUMPDEST DUP4 DUP2 LT ISZERO PUSH2 0x138E JUMPI DUP2 MLOAD PUSH2 0x1375 DUP9 DUP3 PUSH2 0x12FE JUMP JUMPDEST SWAP8 POP PUSH2 0x1380 DUP4 PUSH2 0x19B7 JUMP JUMPDEST SWAP3 POP POP PUSH1 0x1 DUP2 ADD SWAP1 POP PUSH2 0x1361 JUMP JUMPDEST POP DUP6 SWAP4 POP POP POP POP SWAP3 SWAP2 POP POP JUMP JUMPDEST PUSH1 0x0 PUSH2 0x13A6 DUP3 PUSH2 0x19A1 JUMP JUMPDEST PUSH2 0x13B0 DUP2 DUP6 PUSH2 0x19D1 JUMP JUMPDEST SWAP4 POP PUSH2 0x13BB DUP4 PUSH2 0x1981 JUMP JUMPDEST DUP1 PUSH1 0x0 JUMPDEST DUP4 DUP2 LT ISZERO PUSH2 0x13EB JUMPI DUP2 PUSH2 0x13D2 DUP9 DUP3 PUSH2 0x1316 JUMP JUMPDEST SWAP8 POP PUSH2 0x13DD DUP4 PUSH2 0x19C4 JUMP JUMPDEST SWAP3 POP POP PUSH1 0x1 DUP2 ADD SWAP1 POP PUSH2 0x13BF JUMP JUMPDEST POP DUP6 SWAP4 POP POP POP POP SWAP3 SWAP2 POP POP JUMP JUMPDEST PUSH2 0x1401 DUP2 PUSH2 0x1ACA JUMP JUMPDEST DUP3 MSTORE POP POP JUMP JUMPDEST PUSH2 0x1410 DUP2 PUSH2 0x1ACA JUMP JUMPDEST DUP3 MSTORE POP POP JUMP JUMPDEST PUSH1 0x0 PUSH2 0x1421 DUP3 PUSH2 0x19AC JUMP JUMPDEST PUSH2 0x142B DUP2 DUP6 PUSH2 0x19E2 JUMP JUMPDEST SWAP4 POP PUSH2 0x143B DUP2 DUP6 PUSH1 0x20 DUP7 ADD PUSH2 0x1B1D JUMP JUMPDEST PUSH2 0x1444 DUP2 PUSH2 0x1C90 JUMP JUMPDEST DUP5 ADD SWAP2 POP POP SWAP3 SWAP2 POP POP JUMP JUMPDEST PUSH1 0x0 PUSH2 0x145C PUSH1 0x1D DUP4 PUSH2 0x19E2 JUMP JUMPDEST SWAP2 POP PUSH2 0x1467 DUP3 PUSH2 0x1CC8 JUMP JUMPDEST PUSH1 0x20 DUP3 ADD SWAP1 POP SWAP2 SWAP1 POP JUMP JUMPDEST PUSH1 0x0 PUSH2 0x147F PUSH1 0x18 DUP4 PUSH2 0x19E2 JUMP JUMPDEST SWAP2 POP PUSH2 0x148A DUP3 PUSH2 0x1CF1 JUMP JUMPDEST PUSH1 0x20 DUP3 ADD SWAP1 POP SWAP2 SWAP1 POP JUMP JUMPDEST PUSH1 0x0 PUSH2 0x14A2 PUSH1 0x39 DUP4 PUSH2 0x19E2 JUMP JUMPDEST SWAP2 POP PUSH2 0x14AD DUP3 PUSH2 0x1D1A JUMP JUMPDEST PUSH1 0x40 DUP3 ADD SWAP1 POP SWAP2 SWAP1 POP JUMP JUMPDEST PUSH1 0x0 PUSH2 0x14C5 PUSH1 0xE DUP4 PUSH2 0x19E2 JUMP JUMPDEST SWAP2 POP PUSH2 0x14D0 DUP3 PUSH2 0x1D69 JUMP JUMPDEST PUSH1 0x20 DUP3 ADD SWAP1 POP SWAP2 SWAP1 POP JUMP JUMPDEST PUSH1 0x0 PUSH2 0x14E8 PUSH1 0x3C DUP4 PUSH2 0x19E2 JUMP JUMPDEST SWAP2 POP PUSH2 0x14F3 DUP3 PUSH2 0x1D92 JUMP JUMPDEST PUSH1 0x40 DUP3 ADD SWAP1 POP SWAP2 SWAP1 POP JUMP JUMPDEST PUSH1 0x0 PUSH2 0x150B PUSH1 0x23 DUP4 PUSH2 0x19E2 JUMP JUMPDEST SWAP2 POP PUSH2 0x1516 DUP3 PUSH2 0x1DE1 JUMP JUMPDEST PUSH1 0x40 DUP3 ADD SWAP1 POP SWAP2 SWAP1 POP JUMP JUMPDEST PUSH1 0x0 PUSH2 0x152E PUSH1 0x3 DUP4 PUSH2 0x19E2 JUMP JUMPDEST SWAP2 POP PUSH2 0x1539 DUP3 PUSH2 0x1E30 JUMP JUMPDEST PUSH1 0x20 DUP3 ADD SWAP1 POP SWAP2 SWAP1 POP JUMP JUMPDEST PUSH1 0x0 PUSH1 0x60 DUP4 ADD PUSH1 0x0 DUP4 ADD MLOAD PUSH2 0x155C PUSH1 0x0 DUP7 ADD DUP3 PUSH2 0x175B JUMP JUMPDEST POP PUSH1 0x20 DUP4 ADD MLOAD DUP5 DUP3 SUB PUSH1 0x20 DUP7 ADD MSTORE PUSH2 0x1574 DUP3 DUP3 PUSH2 0x133D JUMP JUMPDEST SWAP2 POP POP PUSH1 0x40 DUP4 ADD MLOAD PUSH2 0x1589 PUSH1 0x40 DUP7 ADD DUP3 PUSH2 0x173D JUMP JUMPDEST POP DUP1 SWAP2 POP POP SWAP3 SWAP2 POP POP JUMP JUMPDEST PUSH1 0x0 PUSH1 0x60 DUP4 ADD PUSH1 0x0 DUP1 DUP5 ADD SLOAD SWAP1 POP PUSH2 0x15AB DUP2 PUSH2 0x1B9E JUMP JUMPDEST PUSH2 0x15B8 PUSH1 0x0 DUP8 ADD DUP3 PUSH2 0x175B JUMP JUMPDEST POP PUSH1 0x1 DUP5 ADD DUP6 DUP4 SUB PUSH1 0x20 DUP8 ADD MSTORE PUSH2 0x15CF DUP4 DUP3 PUSH2 0x139B JUMP JUMPDEST SWAP3 POP POP PUSH1 0x2 DUP5 ADD SLOAD SWAP1 POP PUSH2 0x15E2 DUP2 PUSH2 0x1B84 JUMP JUMPDEST PUSH2 0x15EF PUSH1 0x40 DUP8 ADD DUP3 PUSH2 0x173D JUMP JUMPDEST POP DUP2 SWAP3 POP POP POP SWAP3 SWAP2 POP POP JUMP JUMPDEST PUSH1 0xC0 DUP3 ADD PUSH1 0x0 DUP3 ADD MLOAD PUSH2 0x1611 PUSH1 0x0 DUP6 ADD DUP3 PUSH2 0x132E JUMP JUMPDEST POP PUSH1 0x20 DUP3 ADD MLOAD PUSH2 0x1624 PUSH1 0x20 DUP6 ADD DUP3 PUSH2 0x172E JUMP JUMPDEST POP PUSH1 0x40 DUP3 ADD MLOAD PUSH2 0x1637 PUSH1 0x40 DUP6 ADD DUP3 PUSH2 0x172E JUMP JUMPDEST POP PUSH1 0x60 DUP3 ADD MLOAD PUSH2 0x164A PUSH1 0x60 DUP6 ADD DUP3 PUSH2 0x172E JUMP JUMPDEST POP PUSH1 0x80 DUP3 ADD MLOAD PUSH2 0x165D PUSH1 0x80 DUP6 ADD DUP3 PUSH2 0x175B JUMP JUMPDEST POP PUSH1 0xA0 DUP3 ADD MLOAD PUSH2 0x1670 PUSH1 0xA0 DUP6 ADD DUP3 PUSH2 0x13F8 JUMP JUMPDEST POP POP POP POP JUMP JUMPDEST PUSH1 0xC0 DUP3 ADD PUSH1 0x0 DUP1 DUP4 ADD SLOAD SWAP1 POP PUSH2 0x168B DUP2 PUSH2 0x1B50 JUMP JUMPDEST PUSH2 0x1698 PUSH1 0x0 DUP7 ADD DUP3 PUSH2 0x132E JUMP JUMPDEST POP PUSH1 0x1 DUP4 ADD SLOAD SWAP1 POP PUSH2 0x16A9 DUP2 PUSH2 0x1B6A JUMP JUMPDEST PUSH2 0x16B6 PUSH1 0x20 DUP7 ADD DUP3 PUSH2 0x172E JUMP JUMPDEST POP PUSH1 0x2 DUP4 ADD SLOAD SWAP1 POP PUSH2 0x16C7 DUP2 PUSH2 0x1B6A JUMP JUMPDEST PUSH2 0x16D4 PUSH1 0x40 DUP7 ADD DUP3 PUSH2 0x172E JUMP JUMPDEST POP PUSH1 0x3 DUP4 ADD SLOAD SWAP1 POP PUSH2 0x16E5 DUP2 PUSH2 0x1B6A JUMP JUMPDEST PUSH2 0x16F2 PUSH1 0x60 DUP7 ADD DUP3 PUSH2 0x172E JUMP JUMPDEST POP PUSH1 0x4 DUP4 ADD SLOAD SWAP1 POP PUSH2 0x1703 DUP2 PUSH2 0x1B9E JUMP JUMPDEST PUSH2 0x1710 PUSH1 0x80 DUP7 ADD DUP3 PUSH2 0x175B JUMP JUMPDEST POP PUSH2 0x171A DUP2 PUSH2 0x1BB8 JUMP JUMPDEST PUSH2 0x1727 PUSH1 0xA0 DUP7 ADD DUP3 PUSH2 0x13F8 JUMP JUMPDEST POP POP POP POP POP JUMP JUMPDEST PUSH2 0x1737 DUP2 PUSH2 0x1AF6 JUMP JUMPDEST DUP3 MSTORE POP POP JUMP JUMPDEST PUSH2 0x1746 DUP2 PUSH2 0x1B00 JUMP JUMPDEST DUP3 MSTORE POP POP JUMP JUMPDEST PUSH2 0x1755 DUP2 PUSH2 0x1B00 JUMP JUMPDEST DUP3 MSTORE POP POP JUMP JUMPDEST PUSH2 0x1764 DUP2 PUSH2 0x1B10 JUMP JUMPDEST DUP3 MSTORE POP POP JUMP JUMPDEST PUSH2 0x1773 DUP2 PUSH2 0x1B10 JUMP JUMPDEST DUP3 MSTORE POP POP JUMP JUMPDEST PUSH2 0x178A PUSH2 0x1785 DUP3 PUSH2 0x1B10 JUMP JUMPDEST PUSH2 0x1C1B JUMP JUMPDEST DUP3 MSTORE POP POP JUMP JUMPDEST PUSH1 0x0 PUSH2 0x179C DUP3 DUP6 PUSH2 0x1779 JUMP JUMPDEST PUSH1 0x1 DUP3 ADD SWAP2 POP PUSH2 0x17AC DUP3 DUP5 PUSH2 0x1779 JUMP JUMPDEST PUSH1 0x1 DUP3 ADD SWAP2 POP DUP2 SWAP1 POP SWAP4 SWAP3 POP POP POP JUMP JUMPDEST PUSH1 0x0 PUSH1 0x20 DUP3 ADD SWAP1 POP PUSH2 0x17D1 PUSH1 0x0 DUP4 ADD DUP5 PUSH2 0x1407 JUMP JUMPDEST SWAP3 SWAP2 POP POP JUMP JUMPDEST PUSH1 0x0 PUSH1 0x20 DUP3 ADD SWAP1 POP DUP2 DUP2 SUB PUSH1 0x0 DUP4 ADD MSTORE PUSH2 0x17F1 DUP2 DUP5 PUSH2 0x1416 JUMP JUMPDEST SWAP1 POP SWAP3 SWAP2 POP POP JUMP JUMPDEST PUSH1 0x0 PUSH1 0x20 DUP3 ADD SWAP1 POP DUP2 DUP2 SUB PUSH1 0x0 DUP4 ADD MSTORE PUSH2 0x1812 DUP2 PUSH2 0x1495 JUMP JUMPDEST SWAP1 POP SWAP2 SWAP1 POP JUMP JUMPDEST PUSH1 0x0 PUSH1 0x20 DUP3 ADD SWAP1 POP DUP2 DUP2 SUB PUSH1 0x0 DUP4 ADD MSTORE PUSH2 0x1832 DUP2 PUSH2 0x14B8 JUMP JUMPDEST SWAP1 POP SWAP2 SWAP1 POP JUMP JUMPDEST PUSH1 0x0 PUSH1 0x20 DUP3 ADD SWAP1 POP DUP2 DUP2 SUB PUSH1 0x0 DUP4 ADD MSTORE PUSH2 0x1852 DUP2 PUSH2 0x14DB JUMP JUMPDEST SWAP1 POP SWAP2 SWAP1 POP JUMP JUMPDEST PUSH1 0x0 PUSH1 0x40 DUP3 ADD SWAP1 POP DUP2 DUP2 SUB PUSH1 0x0 DUP4 ADD MSTORE PUSH2 0x1873 DUP2 DUP5 PUSH2 0x1544 JUMP JUMPDEST SWAP1 POP DUP2 DUP2 SUB PUSH1 0x20 DUP4 ADD MSTORE PUSH2 0x1886 DUP2 PUSH2 0x1472 JUMP JUMPDEST SWAP1 POP SWAP3 SWAP2 POP POP JUMP JUMPDEST PUSH1 0x0 PUSH1 0x40 DUP3 ADD SWAP1 POP DUP2 DUP2 SUB PUSH1 0x0 DUP4 ADD MSTORE PUSH2 0x18A8 DUP2 DUP5 PUSH2 0x1544 JUMP JUMPDEST SWAP1 POP DUP2 DUP2 SUB PUSH1 0x20 DUP4 ADD MSTORE PUSH2 0x18BB DUP2 PUSH2 0x1521 JUMP JUMPDEST SWAP1 POP SWAP3 SWAP2 POP POP JUMP JUMPDEST PUSH1 0x0 PUSH1 0x40 DUP3 ADD SWAP1 POP DUP2 DUP2 SUB PUSH1 0x0 DUP4 ADD MSTORE PUSH2 0x18DD DUP2 DUP5 PUSH2 0x1594 JUMP JUMPDEST SWAP1 POP DUP2 DUP2 SUB PUSH1 0x20 DUP4 ADD MSTORE PUSH2 0x18F0 DUP2 PUSH2 0x144F JUMP JUMPDEST SWAP1 POP SWAP3 SWAP2 POP POP JUMP JUMPDEST PUSH1 0x0 PUSH1 0x40 DUP3 ADD SWAP1 POP DUP2 DUP2 SUB PUSH1 0x0 DUP4 ADD MSTORE PUSH2 0x1912 DUP2 DUP5 PUSH2 0x1594 JUMP JUMPDEST SWAP1 POP DUP2 DUP2 SUB PUSH1 0x20 DUP4 ADD MSTORE PUSH2 0x1925 DUP2 PUSH2 0x14FE JUMP JUMPDEST SWAP1 POP SWAP3 SWAP2 POP POP JUMP JUMPDEST PUSH1 0x0 PUSH1 0x20 DUP3 ADD SWAP1 POP PUSH2 0x1942 PUSH1 0x0 DUP4 ADD DUP5 PUSH2 0x176A JUMP JUMPDEST SWAP3 SWAP2 POP POP JUMP JUMPDEST PUSH1 0x0 PUSH1 0x40 DUP3 ADD SWAP1 POP PUSH2 0x195D PUSH1 0x0 DUP4 ADD DUP6 PUSH2 0x176A JUMP JUMPDEST PUSH2 0x196A PUSH1 0x20 DUP4 ADD DUP5 PUSH2 0x174C JUMP JUMPDEST SWAP4 SWAP3 POP POP POP JUMP JUMPDEST PUSH1 0x0 DUP2 SWAP1 POP PUSH1 0x20 DUP3 ADD SWAP1 POP SWAP2 SWAP1 POP JUMP JUMPDEST PUSH1 0x0 DUP2 SWAP1 POP DUP2 PUSH1 0x0 MSTORE PUSH1 0x20 PUSH1 0x0 KECCAK256 SWAP1 POP SWAP2 SWAP1 POP JUMP JUMPDEST PUSH1 0x0 DUP2 MLOAD SWAP1 POP SWAP2 SWAP1 POP JUMP JUMPDEST PUSH1 0x0 DUP2 SLOAD SWAP1 POP SWAP2 SWAP1 POP JUMP JUMPDEST PUSH1 0x0 DUP2 MLOAD SWAP1 POP SWAP2 SWAP1 POP JUMP JUMPDEST PUSH1 0x0 PUSH1 0x20 DUP3 ADD SWAP1 POP SWAP2 SWAP1 POP JUMP JUMPDEST PUSH1 0x0 PUSH1 0x5 DUP3 ADD SWAP1 POP SWAP2 SWAP1 POP JUMP JUMPDEST PUSH1 0x0 DUP3 DUP3 MSTORE PUSH1 0x20 DUP3 ADD SWAP1 POP SWAP3 SWAP2 POP POP JUMP JUMPDEST PUSH1 0x0 DUP3 DUP3 MSTORE PUSH1 0x20 DUP3 ADD SWAP1 POP SWAP3 SWAP2 POP POP JUMP JUMPDEST PUSH1 0x0 PUSH2 0x19FE DUP3 PUSH2 0x1B00 JUMP JUMPDEST SWAP2 POP PUSH2 0x1A09 DUP4 PUSH2 0x1B00 JUMP JUMPDEST SWAP3 POP DUP3 PUSH4 0xFFFFFFFF SUB DUP3 GT ISZERO PUSH2 0x1A22 JUMPI PUSH2 0x1A21 PUSH2 0x1C2D JUMP JUMPDEST JUMPDEST DUP3 DUP3 ADD SWAP1 POP SWAP3 SWAP2 POP POP JUMP JUMPDEST PUSH1 0x0 PUSH2 0x1A38 DUP3 PUSH2 0x1B10 JUMP JUMPDEST SWAP2 POP PUSH2 0x1A43 DUP4 PUSH2 0x1B10 JUMP JUMPDEST SWAP3 POP DUP3 PUSH1 0xFF SUB DUP3 GT ISZERO PUSH2 0x1A59 JUMPI PUSH2 0x1A58 PUSH2 0x1C2D JUMP JUMPDEST JUMPDEST DUP3 DUP3 ADD SWAP1 POP SWAP3 SWAP2 POP POP JUMP JUMPDEST PUSH1 0x0 PUSH20 0xFFFFFFFFFFFFFFFFFFFFFFFFFFFFFFFFFFFFFFFF DUP3 AND SWAP1 POP SWAP2 SWAP1 POP JUMP JUMPDEST PUSH1 0x0 PUSH1 0xFF DUP3 AND SWAP1 POP SWAP2 SWAP1 POP JUMP JUMPDEST PUSH1 0x0 DUP2 SWAP1 POP SWAP2 SWAP1 POP JUMP JUMPDEST PUSH1 0x0 PUSH4 0xFFFFFFFF DUP3 AND SWAP1 POP SWAP2 SWAP1 POP JUMP JUMPDEST PUSH1 0x0 PUSH1 0xFF DUP3 AND SWAP1 POP SWAP2 SWAP1 POP JUMP JUMPDEST PUSH1 0x0 PUSH2 0x1AC3 DUP3 PUSH2 0x1AD6 JUMP JUMPDEST SWAP1 POP SWAP2 SWAP1 POP JUMP JUMPDEST PUSH1 0x0 DUP2 ISZERO ISZERO SWAP1 POP SWAP2 SWAP1 POP JUMP JUMPDEST PUSH1 0x0 PUSH20 0xFFFFFFFFFFFFFFFFFFFFFFFFFFFFFFFFFFFFFFFF DUP3 AND SWAP1 POP SWAP2 SWAP1 POP JUMP JUMPDEST PUSH1 0x0 DUP2 SWAP1 POP SWAP2 SWAP1 POP JUMP JUMPDEST PUSH1 0x0 PUSH4 0xFFFFFFFF DUP3 AND SWAP1 POP SWAP2 SWAP1 POP JUMP JUMPDEST PUSH1 0x0 PUSH1 0xFF DUP3 AND SWAP1 POP SWAP2 SWAP1 POP JUMP JUMPDEST PUSH1 0x0 JUMPDEST DUP4 DUP2 LT ISZERO PUSH2 0x1B3B JUMPI DUP1 DUP3 ADD MLOAD DUP2 DUP5 ADD MSTORE PUSH1 0x20 DUP2 ADD SWAP1 POP PUSH2 0x1B20 JUMP JUMPDEST DUP4 DUP2 GT ISZERO PUSH2 0x1B4A JUMPI PUSH1 0x0 DUP5 DUP5 ADD MSTORE JUMPDEST POP POP POP POP JUMP JUMPDEST PUSH1 0x0 PUSH2 0x1B63 PUSH2 0x1B5E DUP4 PUSH2 0x1CAE JUMP JUMPDEST PUSH2 0x1A64 JUMP JUMPDEST SWAP1 POP SWAP2 SWAP1 POP JUMP JUMPDEST PUSH1 0x0 PUSH2 0x1B7D PUSH2 0x1B78 DUP4 PUSH2 0x1CAE JUMP JUMPDEST PUSH2 0x1A91 JUMP JUMPDEST SWAP1 POP SWAP2 SWAP1 POP JUMP JUMPDEST PUSH1 0x0 PUSH2 0x1B97 PUSH2 0x1B92 DUP4 PUSH2 0x1CAE JUMP JUMPDEST PUSH2 0x1A9B JUMP JUMPDEST SWAP1 POP SWAP2 SWAP1 POP JUMP JUMPDEST PUSH1 0x0 PUSH2 0x1BB1 PUSH2 0x1BAC DUP4 PUSH2 0x1CAE JUMP JUMPDEST PUSH2 0x1AAB JUMP JUMPDEST SWAP1 POP SWAP2 SWAP1 POP JUMP JUMPDEST PUSH1 0x0 PUSH2 0x1BCB PUSH2 0x1BC6 DUP4 PUSH2 0x1CBB JUMP JUMPDEST PUSH2 0x1A84 JUMP JUMPDEST SWAP1 POP SWAP2 SWAP1 POP JUMP JUMPDEST PUSH1 0x0 PUSH2 0x1BDD DUP3 PUSH2 0x1AF6 JUMP JUMPDEST SWAP2 POP PUSH32 0xFFFFFFFFFFFFFFFFFFFFFFFFFFFFFFFFFFFFFFFFFFFFFFFFFFFFFFFFFFFFFFFF DUP3 EQ ISZERO PUSH2 0x1C10 JUMPI PUSH2 0x1C0F PUSH2 0x1C2D JUMP JUMPDEST JUMPDEST PUSH1 0x1 DUP3 ADD SWAP1 POP SWAP2 SWAP1 POP JUMP JUMPDEST PUSH1 0x0 PUSH2 0x1C26 DUP3 PUSH2 0x1CA1 JUMP JUMPDEST SWAP1 POP SWAP2 SWAP1 POP JUMP JUMPDEST PUSH32 0x4E487B7100000000000000000000000000000000000000000000000000000000 PUSH1 0x0 MSTORE PUSH1 0x11 PUSH1 0x4 MSTORE PUSH1 0x24 PUSH1 0x0 REVERT JUMPDEST PUSH32 0x4E487B7100000000000000000000000000000000000000000000000000000000 PUSH1 0x0 MSTORE PUSH1 0x32 PUSH1 0x4 MSTORE PUSH1 0x24 PUSH1 0x0 REVERT JUMPDEST PUSH1 0x0 DUP1 REVERT JUMPDEST PUSH1 0x0 PUSH1 0x1F NOT PUSH1 0x1F DUP4 ADD AND SWAP1 POP SWAP2 SWAP1 POP JUMP JUMPDEST PUSH1 0x0 DUP2 PUSH1 0xF8 SHL SWAP1 POP SWAP2 SWAP1 POP JUMP JUMPDEST PUSH1 0x0 DUP2 PUSH1 0x0 SHR SWAP1 POP SWAP2 SWAP1 POP JUMP JUMPDEST PUSH1 0x0 DUP2 PUSH1 0x8 SHR SWAP1 POP SWAP2 SWAP1 POP JUMP JUMPDEST PUSH32 0x4465636973696F6E206D616B696E672077617320612073756363657373000000 PUSH1 0x0 DUP3 ADD MSTORE POP JUMP JUMPDEST PUSH32 0x4E6F2077696E6E657220666F72207468697320726F756E640000000000000000 PUSH1 0x0 DUP3 ADD MSTORE POP JUMP JUMPDEST PUSH32 0x546865206E756D626572206F6620617267756D656E74732063616E6E6F742065 PUSH1 0x0 DUP3 ADD MSTORE PUSH32 0x786365656420746865206669786564207468726573686F6C6400000000000000 PUSH1 0x20 DUP3 ADD MSTORE POP JUMP JUMPDEST PUSH32 0x417267756D656E74206164646564000000000000000000000000000000000000 PUSH1 0x0 DUP3 ADD MSTORE POP JUMP JUMPDEST PUSH32 0x4F6E6C792061206E6F6465207468617420686173206E6F7420617267756D656E PUSH1 0x0 DUP3 ADD MSTORE PUSH32 0x746564207965742C2063616E2061646420616E20617267756D656E7400000000 PUSH1 0x20 DUP3 ADD MSTORE POP JUMP JUMPDEST PUSH32 0x66696E616C204465636973696F6E206D616B696E672077617320612073756363 PUSH1 0x0 DUP3 ADD MSTORE PUSH32 0x6573730000000000000000000000000000000000000000000000000000000000 PUSH1 0x20 DUP3 ADD MSTORE POP JUMP JUMPDEST PUSH32 0x4E2F410000000000000000000000000000000000000000000000000000000000 PUSH1 0x0 DUP3 ADD MSTORE POP JUMP JUMPDEST PUSH2 0x1E62 DUP2 PUSH2 0x1AB8 JUMP JUMPDEST DUP2 EQ PUSH2 0x1E6D JUMPI PUSH1 0x0 DUP1 REVERT JUMPDEST POP JUMP JUMPDEST PUSH2 0x1E79 DUP2 PUSH2 0x1AF6 JUMP JUMPDEST DUP2 EQ PUSH2 0x1E84 JUMPI PUSH1 0x0 DUP1 REVERT JUMPDEST POP JUMP JUMPDEST PUSH2 0x1E90 DUP2 PUSH2 0x1B10 JUMP JUMPDEST DUP2 EQ PUSH2 0x1E9B JUMPI PUSH1 0x0 DUP1 REVERT JUMPDEST POP JUMP INVALID LOG2 PUSH5 0x6970667358 0x22 SLT KECCAK256 0xC7 0xD0 SWAP11 SMOD 0xEB JUMP DELEGATECALL 0xFB 0xBF 0xD1 0xC0 PUSH20 0xAE099CC2EE5CAAA03B885770543089A2724BA50E PUSH5 0x736F6C6343 STOP ADDMOD SMOD STOP CALLER "
		},
		"gasEstimates": {
			"creation": {
				"codeDepositCost": "1578400",
				"executionCost": "infinite",
				"totalCost": "infinite"
			},
			"external": {
				"IDS_current_nbr()": "2521",
				"IDS_threshold()": "2516",
				"addArgument(uint256,uint256,uint256,uint8)": "infinite",
				"args_final_nbr()": "2588",
				"argumentor_adresses(address)": "2911",
				"current_arg_calls_nbr()": "2522",
				"newArgumentor(address)": "2924",
				"winning_clusters(uint8)": "infinite"
			},
			"internal": {
				"addArgumentor(address)": "48593",
				"addToAlertIDLlIndex(bytes32,mapping(bytes32 => bytes32))": "infinite",
				"addToClusteringLlIndex(bytes32,mapping(bytes32 => bytes32))": "51015",
				"addToWinningClusteringLlIndex(uint8,mapping(uint8 => uint8))": "55465",
				"computeFinalWinner()": "infinite",
				"doArgumentation()": "infinite",
				"resetArgumentationParams()": "infinite",
				"validateArgument(struct Argumentation.Argument memory)": "infinite"
			}
		},
		"methodIdentifiers": {
			"IDS_current_nbr()": "7464a92d",
			"IDS_threshold()": "1ef3409e",
			"addArgument(uint256,uint256,uint256,uint8)": "ebacfed4",
			"args_final_nbr()": "6b5d7f03",
			"argumentor_adresses(address)": "f84dabb7",
			"current_arg_calls_nbr()": "0671f57d",
			"newArgumentor(address)": "1194d603",
			"winning_clusters(uint8)": "ad318f4d"
		}
	},
	"abi": [
		{
			"inputs": [
				{
					"internalType": "uint8",
					"name": "IDS_number",
					"type": "uint8"
				},
				{
					"internalType": "uint8",
					"name": "args_threshold",
					"type": "uint8"
				}
			],
			"stateMutability": "nonpayable",
			"type": "constructor"
		},
		{
			"anonymous": false,
			"inputs": [
				{
					"components": [
						{
							"internalType": "uint8",
							"name": "_cluster_id",
							"type": "uint8"
						},
						{
							"components": [
								{
									"internalType": "address",
									"name": "argumentor",
									"type": "address"
								},
								{
									"internalType": "uint256",
									"name": "_flowDuration",
									"type": "uint256"
								},
								{
									"internalType": "uint256",
									"name": "_idleMean",
									"type": "uint256"
								},
								{
									"internalType": "uint256",
									"name": "_label",
									"type": "uint256"
								},
								{
									"internalType": "uint8",
									"name": "_cluster_id",
									"type": "uint8"
								},
								{
									"internalType": "bool",
									"name": "valid",
									"type": "bool"
								}
							],
							"internalType": "struct Argumentation.Argument[]",
							"name": "arguments",
							"type": "tuple[]"
						},
						{
							"internalType": "uint32",
							"name": "weight",
							"type": "uint32"
						}
					],
					"indexed": false,
					"internalType": "struct Argumentation.ArgumentSet",
					"name": "argumentSet",
					"type": "tuple"
				},
				{
					"indexed": false,
					"internalType": "string",
					"name": "message",
					"type": "string"
				}
			],
			"name": "decision_result",
			"type": "event"
		},
		{
			"anonymous": false,
			"inputs": [
				{
					"components": [
						{
							"internalType": "uint8",
							"name": "_cluster_id",
							"type": "uint8"
						},
						{
							"components": [
								{
									"internalType": "address",
									"name": "argumentor",
									"type": "address"
								},
								{
									"internalType": "uint256",
									"name": "_flowDuration",
									"type": "uint256"
								},
								{
									"internalType": "uint256",
									"name": "_idleMean",
									"type": "uint256"
								},
								{
									"internalType": "uint256",
									"name": "_label",
									"type": "uint256"
								},
								{
									"internalType": "uint8",
									"name": "_cluster_id",
									"type": "uint8"
								},
								{
									"internalType": "bool",
									"name": "valid",
									"type": "bool"
								}
							],
							"internalType": "struct Argumentation.Argument[]",
							"name": "arguments",
							"type": "tuple[]"
						},
						{
							"internalType": "uint32",
							"name": "weight",
							"type": "uint32"
						}
					],
					"indexed": false,
					"internalType": "struct Argumentation.ArgumentSet",
					"name": "argumentSet",
					"type": "tuple"
				},
				{
					"indexed": false,
					"internalType": "string",
					"name": "message",
					"type": "string"
				}
			],
			"name": "final_decision_result",
			"type": "event"
		},
		{
			"anonymous": false,
			"inputs": [
				{
					"indexed": false,
					"internalType": "string",
					"name": "message",
					"type": "string"
				}
			],
			"name": "logging",
			"type": "event"
		},
		{
			"inputs": [],
			"name": "IDS_current_nbr",
			"outputs": [
				{
					"internalType": "uint8",
					"name": "",
					"type": "uint8"
				}
			],
			"stateMutability": "view",
			"type": "function"
		},
		{
			"inputs": [],
			"name": "IDS_threshold",
			"outputs": [
				{
					"internalType": "uint8",
					"name": "",
					"type": "uint8"
				}
			],
			"stateMutability": "view",
			"type": "function"
		},
		{
			"inputs": [
				{
					"internalType": "uint256",
					"name": "flowDuration",
					"type": "uint256"
				},
				{
					"internalType": "uint256",
					"name": "idleMean",
					"type": "uint256"
				},
				{
					"internalType": "uint256",
					"name": "label",
					"type": "uint256"
				},
				{
					"internalType": "uint8",
					"name": "cluster_id",
					"type": "uint8"
				}
			],
			"name": "addArgument",
			"outputs": [],
			"stateMutability": "nonpayable",
			"type": "function"
		},
		{
			"inputs": [],
			"name": "args_final_nbr",
			"outputs": [
				{
					"internalType": "uint8",
					"name": "",
					"type": "uint8"
				}
			],
			"stateMutability": "view",
			"type": "function"
		},
		{
			"inputs": [
				{
					"internalType": "address",
					"name": "",
					"type": "address"
				}
			],
			"name": "argumentor_adresses",
			"outputs": [
				{
					"internalType": "bool",
					"name": "",
					"type": "bool"
				}
			],
			"stateMutability": "view",
			"type": "function"
		},
		{
			"inputs": [],
			"name": "current_arg_calls_nbr",
			"outputs": [
				{
					"internalType": "uint8",
					"name": "",
					"type": "uint8"
				}
			],
			"stateMutability": "view",
			"type": "function"
		},
		{
			"inputs": [
				{
					"internalType": "address",
					"name": "sender",
					"type": "address"
				}
			],
			"name": "newArgumentor",
			"outputs": [
				{
					"internalType": "bool",
					"name": "newArgumentor_",
					"type": "bool"
				}
			],
			"stateMutability": "view",
			"type": "function"
		},
		{
			"inputs": [
				{
					"internalType": "uint8",
					"name": "",
					"type": "uint8"
				}
			],
			"name": "winning_clusters",
			"outputs": [
				{
					"internalType": "uint8",
					"name": "_cluster_id",
					"type": "uint8"
				},
				{
					"internalType": "uint32",
					"name": "weight",
					"type": "uint32"
				}
			],
			"stateMutability": "view",
			"type": "function"
		}
	]
}